{"abi":[{"type":"constructor","inputs":[{"name":"_veFBK","type":"address","internalType":"address"},{"name":"_votingDelay","type":"uint256","internalType":"uint256"},{"name":"_votingPeriod","type":"uint256","internalType":"uint256"},{"name":"_timelockDelay","type":"uint256","internalType":"uint256"},{"name":"_quorumBps","type":"uint256","internalType":"uint256"},{"name":"_proposalThreshold","type":"uint256","internalType":"uint256"}],"stateMutability":"nonpayable"},{"type":"function","name":"BPS_BASE","inputs":[],"outputs":[{"name":"","type":"uint256","internalType":"uint256"}],"stateMutability":"view"},{"type":"function","name":"cancel","inputs":[{"name":"proposalId","type":"uint256","internalType":"uint256"}],"outputs":[],"stateMutability":"nonpayable"},{"type":"function","name":"castVote","inputs":[{"name":"proposalId","type":"uint256","internalType":"uint256"},{"name":"voteType","type":"uint8","internalType":"enum FinBankGovernor.VoteType"}],"outputs":[],"stateMutability":"nonpayable"},{"type":"function","name":"execute","inputs":[{"name":"proposalId","type":"uint256","internalType":"uint256"}],"outputs":[],"stateMutability":"nonpayable"},{"type":"function","name":"getProposalTiming","inputs":[{"name":"proposalId","type":"uint256","internalType":"uint256"}],"outputs":[{"name":"snapshotTimestamp","type":"uint256","internalType":"uint256"},{"name":"voteStart","type":"uint256","internalType":"uint256"},{"name":"voteEnd","type":"uint256","internalType":"uint256"},{"name":"timelockEta","type":"uint256","internalType":"uint256"}],"stateMutability":"view"},{"type":"function","name":"getProposalVotes","inputs":[{"name":"proposalId","type":"uint256","internalType":"uint256"}],"outputs":[{"name":"forVotes","type":"uint256","internalType":"uint256"},{"name":"againstVotes","type":"uint256","internalType":"uint256"},{"name":"abstainVotes","type":"uint256","internalType":"uint256"}],"stateMutability":"view"},{"type":"function","name":"getState","inputs":[{"name":"proposalId","type":"uint256","internalType":"uint256"}],"outputs":[{"name":"","type":"uint8","internalType":"enum FinBankGovernor.ProposalState"}],"stateMutability":"view"},{"type":"function","name":"hasVoted","inputs":[{"name":"","type":"uint256","internalType":"uint256"},{"name":"","type":"address","internalType":"address"}],"outputs":[{"name":"","type":"bool","internalType":"bool"}],"stateMutability":"view"},{"type":"function","name":"proposalCount","inputs":[],"outputs":[{"name":"","type":"uint256","internalType":"uint256"}],"stateMutability":"view"},{"type":"function","name":"proposalThreshold","inputs":[],"outputs":[{"name":"","type":"uint256","internalType":"uint256"}],"stateMutability":"view"},{"type":"function","name":"proposals","inputs":[{"name":"","type":"uint256","internalType":"uint256"}],"outputs":[{"name":"id","type":"uint256","internalType":"uint256"},{"name":"proposer","type":"address","internalType":"address"},{"name":"snapshotTimestamp","type":"uint256","internalType":"uint256"},{"name":"voteStart","type":"uint256","internalType":"uint256"},{"name":"voteEnd","type":"uint256","internalType":"uint256"},{"name":"timelockEta","type":"uint256","internalType":"uint256"},{"name":"forVotes","type":"uint256","internalType":"uint256"},{"name":"againstVotes","type":"uint256","internalType":"uint256"},{"name":"abstainVotes","type":"uint256","internalType":"uint256"},{"name":"executed","type":"bool","internalType":"bool"},{"name":"canceled","type":"bool","internalType":"bool"},{"name":"description","type":"string","internalType":"string"}],"stateMutability":"view"},{"type":"function","name":"propose","inputs":[{"name":"targets","type":"address[]","internalType":"address[]"},{"name":"values","type":"uint256[]","internalType":"uint256[]"},{"name":"calldatas","type":"bytes[]","internalType":"bytes[]"},{"name":"description","type":"string","internalType":"string"}],"outputs":[{"name":"proposalId","type":"uint256","internalType":"uint256"}],"stateMutability":"nonpayable"},{"type":"function","name":"queue","inputs":[{"name":"proposalId","type":"uint256","internalType":"uint256"}],"outputs":[],"stateMutability":"nonpayable"},{"type":"function","name":"quorumBps","inputs":[],"outputs":[{"name":"","type":"uint256","internalType":"uint256"}],"stateMutability":"view"},{"type":"function","name":"quorumVotes","inputs":[],"outputs":[{"name":"","type":"uint256","internalType":"uint256"}],"stateMutability":"view"},{"type":"function","name":"setProposalThreshold","inputs":[{"name":"newThreshold","type":"uint256","internalType":"uint256"}],"outputs":[],"stateMutability":"nonpayable"},{"type":"function","name":"setQuorumBps","inputs":[{"name":"newBps","type":"uint256","internalType":"uint256"}],"outputs":[],"stateMutability":"nonpayable"},{"type":"function","name":"setTimelockDelay","inputs":[{"name":"newDelay","type":"uint256","internalType":"uint256"}],"outputs":[],"stateMutability":"nonpayable"},{"type":"function","name":"setVotingDelay","inputs":[{"name":"newDelay","type":"uint256","internalType":"uint256"}],"outputs":[],"stateMutability":"nonpayable"},{"type":"function","name":"setVotingPeriod","inputs":[{"name":"newPeriod","type":"uint256","internalType":"uint256"}],"outputs":[],"stateMutability":"nonpayable"},{"type":"function","name":"timelockDelay","inputs":[],"outputs":[{"name":"","type":"uint256","internalType":"uint256"}],"stateMutability":"view"},{"type":"function","name":"veFBK","inputs":[],"outputs":[{"name":"","type":"address","internalType":"contract IVeFBK"}],"stateMutability":"view"},{"type":"function","name":"voteChoice","inputs":[{"name":"","type":"uint256","internalType":"uint256"},{"name":"","type":"address","internalType":"address"}],"outputs":[{"name":"","type":"uint8","internalType":"enum FinBankGovernor.VoteType"}],"stateMutability":"view"},{"type":"function","name":"votingDelay","inputs":[],"outputs":[{"name":"","type":"uint256","internalType":"uint256"}],"stateMutability":"view"},{"type":"function","name":"votingPeriod","inputs":[],"outputs":[{"name":"","type":"uint256","internalType":"uint256"}],"stateMutability":"view"},{"type":"event","name":"ProposalCanceled","inputs":[{"name":"proposalId","type":"uint256","indexed":true,"internalType":"uint256"}],"anonymous":false},{"type":"event","name":"ProposalCreated","inputs":[{"name":"proposalId","type":"uint256","indexed":true,"internalType":"uint256"},{"name":"proposer","type":"address","indexed":true,"internalType":"address"},{"name":"targets","type":"address[]","indexed":false,"internalType":"address[]"},{"name":"values","type":"uint256[]","indexed":false,"internalType":"uint256[]"},{"name":"calldatas","type":"bytes[]","indexed":false,"internalType":"bytes[]"},{"name":"voteStart","type":"uint256","indexed":false,"internalType":"uint256"},{"name":"voteEnd","type":"uint256","indexed":false,"internalType":"uint256"},{"name":"description","type":"string","indexed":false,"internalType":"string"}],"anonymous":false},{"type":"event","name":"ProposalExecuted","inputs":[{"name":"proposalId","type":"uint256","indexed":true,"internalType":"uint256"}],"anonymous":false},{"type":"event","name":"ProposalQueued","inputs":[{"name":"proposalId","type":"uint256","indexed":true,"internalType":"uint256"},{"name":"eta","type":"uint256","indexed":false,"internalType":"uint256"}],"anonymous":false},{"type":"event","name":"ProposalThresholdUpdated","inputs":[{"name":"oldThreshold","type":"uint256","indexed":false,"internalType":"uint256"},{"name":"newThreshold","type":"uint256","indexed":false,"internalType":"uint256"}],"anonymous":false},{"type":"event","name":"QuorumUpdated","inputs":[{"name":"oldBps","type":"uint256","indexed":false,"internalType":"uint256"},{"name":"newBps","type":"uint256","indexed":false,"internalType":"uint256"}],"anonymous":false},{"type":"event","name":"TimelockDelayUpdated","inputs":[{"name":"oldDelay","type":"uint256","indexed":false,"internalType":"uint256"},{"name":"newDelay","type":"uint256","indexed":false,"internalType":"uint256"}],"anonymous":false},{"type":"event","name":"VoteCast","inputs":[{"name":"voter","type":"address","indexed":true,"internalType":"address"},{"name":"proposalId","type":"uint256","indexed":true,"internalType":"uint256"},{"name":"voteType","type":"uint8","indexed":false,"internalType":"enum FinBankGovernor.VoteType"},{"name":"weight","type":"uint256","indexed":false,"internalType":"uint256"}],"anonymous":false},{"type":"event","name":"VotingDelayUpdated","inputs":[{"name":"oldDelay","type":"uint256","indexed":false,"internalType":"uint256"},{"name":"newDelay","type":"uint256","indexed":false,"internalType":"uint256"}],"anonymous":false},{"type":"event","name":"VotingPeriodUpdated","inputs":[{"name":"oldPeriod","type":"uint256","indexed":false,"internalType":"uint256"},{"name":"newPeriod","type":"uint256","indexed":false,"internalType":"uint256"}],"anonymous":false},{"type":"error","name":"AlreadyVoted","inputs":[{"name":"voter","type":"address","internalType":"address"},{"name":"proposalId","type":"uint256","internalType":"uint256"}]},{"type":"error","name":"ArrayLengthMismatch","inputs":[]},{"type":"error","name":"BelowProposalThreshold","inputs":[{"name":"balance","type":"uint256","internalType":"uint256"},{"name":"threshold","type":"uint256","internalType":"uint256"}]},{"type":"error","name":"InvalidParameter","inputs":[]},{"type":"error","name":"NotProposer","inputs":[{"name":"caller","type":"address","internalType":"address"},{"name":"proposer","type":"address","internalType":"address"}]},{"type":"error","name":"OnlyGovernance","inputs":[]},{"type":"error","name":"ProposalAlreadyCanceled","inputs":[{"name":"proposalId","type":"uint256","internalType":"uint256"}]},{"type":"error","name":"ProposalAlreadyExecuted","inputs":[{"name":"proposalId","type":"uint256","internalType":"uint256"}]},{"type":"error","name":"ProposalNotActive","inputs":[{"name":"proposalId","type":"uint256","internalType":"uint256"},{"name":"state","type":"uint8","internalType":"enum FinBankGovernor.ProposalState"}]},{"type":"error","name":"ProposalNotQueued","inputs":[{"name":"proposalId","type":"uint256","internalType":"uint256"},{"name":"state","type":"uint8","internalType":"enum FinBankGovernor.ProposalState"}]},{"type":"error","name":"ProposalNotSucceeded","inputs":[{"name":"proposalId","type":"uint256","internalType":"uint256"},{"name":"state","type":"uint8","internalType":"enum FinBankGovernor.ProposalState"}]},{"type":"error","name":"TimelockNotExpired","inputs":[{"name":"eta","type":"uint256","internalType":"uint256"},{"name":"now_","type":"uint256","internalType":"uint256"}]}],"bytecode":{"object":"0x60a0346100d357601f61190038819003918201601f191683019291906001600160401b038411838510176100d7578160c092849260409687528339810103126100d35780516001600160a01b03811691908290036100d35760208101518382015160608301519160a060808501519401519480156100c25782156100c25761271085116100c2576080525f556001556002556003556004555161181490816100ec823960805181818161080401528181610f36015281816110aa01526117550152f35b8651630309cb8760e51b8152600490fd5b5f80fd5b634e487b7160e01b5f52604160045260245ffdfe6080806040526004361015610012575f80fd5b5f3560e01c908163013cf08b146112be5750806302a251a3146112a157806324bc1a641461127f5780633932abb11461126357806340e58ee514611191578063438596321461114857806344c9af281461111d57806347c66140146110d95780634fd3bc29146110955780635678138814610e9e57806370b0f66014610e4e5780637b78ad4214610dff5780637d5e81e2146106545780639eaa1b0914610638578063a815ca52146105dd578063af267f8f1461058b578063b58131b01461056e578063cd2ddd0c14610551578063da35c66414610534578063ddf0b00914610499578063ea0217cf1461042f578063ece40cc1146103cb578063eef09bad146103ae578063fb468855146103605763fe0d94c11461012f575f80fd5b3461035c57602036600319011261035c5761014b60043561163b565b60078110156103485760048103610320576004355f52600660205260405f206005810154804210610302575060098101805460ff191660011790555f5b600a8201548110156102d9576101a181600a8401611612565b9054906101b183600b8601611612565b90549060031b1c6101c584600c8701611612565b5091604051925f908054906101d982611435565b91600181169081156102c25750600114610290575b505f9586959283900394929360031b1c6001600160a01b031690505af13d1561028b573d61021b81611508565b90610229604051928361146d565b81525f60203d92013e5b156102465761024190611567565b610188565b60405162461bcd60e51b815260206004820152601c60248201527f46696e42616e6b476f7665726e6f723a2063616c6c206661696c6564000000006044820152606490fd5b610233565b9091505f5260205f205f905b8282106102ae5750508301815f6101ee565b60018160209254848901520191019061029c565b60ff1916875250508015150284019050815f6101ee565b6004357f712ae1383f79ac853f8d882153778e0260ef8f03b504e2866e0593e04d2b291f5f80a2005b6044906040519063126b74dd60e11b82526004820152426024820152fd5b60405163d7a08fa360e01b815260048035908201526044916103469060248301906114e3565bfd5b634e487b7160e01b5f52602160045260245ffd5b5f80fd5b3461035c57604036600319011261035c576103796114cd565b6004355f52600860205260405f209060018060a01b03165f52602052602060ff60405f2054166103ac604051809261155a565bf35b3461035c575f36600319011261035c576020600254604051908152f35b3461035c57602036600319011261035c5760043530330361041d577fe92242fc3efcad407a677132b517977331a6e5b65abab69fd757cc02e99c9c4e60406004548151908152836020820152a1600455005b6040516354348f0360e01b8152600490fd5b3461035c57602036600319011261035c5760043530330361041d578015610487577fffc708f072ca56e3d45ef0cb288b96cb9378f5f63e1646868bfbc9c38f4263a160406001548151908152836020820152a1600155005b604051630309cb8760e51b8152600490fd5b3461035c57602036600319011261035c576004356104b68161163b565b6007811015610348576003810361051057507f9a2e42fd6722813d69113e7d0079d3d940171428df7373df9c7f7617cfda289260206104f760025442611589565b835f526006825280600560405f200155604051908152a2005b90610346604492604051926386e1935d60e01b8452600484015260248301906114e3565b3461035c575f36600319011261035c576020600554604051908152f35b3461035c575f36600319011261035c576020600354604051908152f35b3461035c575f36600319011261035c576020600454604051908152f35b3461035c57602036600319011261035c5760043530330361041d577f0d64018104bbece148774374900c9844b1c388724c82f170dbe557313b34daef60406002548151908152836020820152a1600255005b3461035c57602036600319011261035c5760043530330361041d576127108111610487577f6784e9bcb845caaa98267d7b0918f97d3d17f7cb35a05b52010f7eb587a0acb060406003548151908152836020820152a1600355005b3461035c575f36600319011261035c5760206040516127108152f35b3461035c57608036600319011261035c5760043567ffffffffffffffff811161035c573660238201121561035c578060040135610690816114f0565b9161069e604051938461146d565b81835260208301906024829360051b8201019036821161035c57602401915b818310610ddf575050506024359067ffffffffffffffff821161035c573660238301121561035c578160040135926106f4846114f0565b92610702604051948561146d565b848452602084016024819660051b8301019136831161035c57602401905b828210610dcf5750505067ffffffffffffffff6044351161035c5736602360443501121561035c5760443560040135610758816114f0565b93610766604051958661146d565b8185526020850180923660248260051b60443501011161035c57602460443501915b60248260051b60443501018310610d825750505060643567ffffffffffffffff811161035c573660238201121561035c576107cd903690602481600401359101611524565b9383518251811490811591610d76575b50610d6457835115610487576040516370a0823160e01b81523360048201526020816024817f00000000000000000000000000000000000000000000000000000000000000006001600160a01b03165afa908115610d59575f91610d27575b50600454808210610d09575050610854600554611567565b95866005556108645f5443611589565b9161087160015484611589565b93885f52600660205260405f2089815560018101336bffffffffffffffffffffffff60a01b825416179055426002820155846003820155856004820155875167ffffffffffffffff8111610b6a57600160401b8111610b6a57600a820180548282556108df918391906115ac565b83600a83015f5260205f205f5b838110610cec5750505050815167ffffffffffffffff8111610b6a57600160401b8111610b6a57600b82018054828255610928918391906115ac565b8b600b83015f5260205f205f5b838110610cd857505050508351600160401b8111610b6a57600c82015481600c840155808210610c63575b508790600c83015f5260205f20915f905b828210610b7e5750505050885167ffffffffffffffff8111610b6a576109a78161099e600d850154611435565b600d85016115cf565b6020601f8211600114610aff5781600d926109d6925f91610af4575b508160011b915f199060031b1c19161790565b9101555b6040519660c088019060c089525180915260e0880192905f5b818110610ad5575050506020908783038289015251918281520198905f5b818110610abf57505050848803604086015251808852602088019060208160051b8a010194915f905b828210610a935760208a8a817f95f03e437e6d5037418f12bef80fc7e0a5f27754c078a1d5d3f62d39bac44e508c80610a888e8e8e6060850152608084015282810360a0840152339661148f565b0390a3604051908152f35b90919295602080610ab16001938e601f199082030186528a5161148f565b980192019201909291610a3a565b82518b5260209a8b019a90920191600101610a11565b82516001600160a01b03168552602094850194909201916001016109f3565b90508c01518f6109c3565b600d83015f5260205f20905f5b8c601f1985168210610b5257505091600191600d9382601f19811610610b3a575b5050811b019101556109da565b8d01515f1960f88460031b161c191690558e80610b2d565b60018394602093948493015181550193019101610b0c565b634e487b7160e01b5f52604160045260245ffd5b805180519067ffffffffffffffff8211610b6a57610ba682610ba08854611435565b886115cf565b602090601f8311600114610bf75792610bdd836001959460209487965f92610bec575b50508160011b915f199060031b1c19161790565b87555b01940191019092610971565b015190505f80610bc9565b90865f5260205f20915f5b601f1985168110610c4b575083602093600196938796938794601f19811610610c33575b505050811b018755610be0565b01515f1960f88460031b161c191690555f8080610c26565b91926020600181928685015181550194019201610c02565b600c83015f5260205f20908282015b8183018110610c82575050610960565b80610c8f60019254611435565b80610c9c575b5001610c72565b601f908181118414610cb45750505f81555b5f610c95565b610ccf5f9284845260208420920160051c8201858301611596565b81835555610cae565b600190602084519401938184015501610935565b82516001600160a01b0316818301556020909201916001016108ec565b604492506040519163cd2c13e160e01b835260048301526024820152fd5b90506020813d602011610d51575b81610d426020938361146d565b8101031261035c57518861083c565b3d9150610d35565b6040513d5f823e3d90fd5b60405163512509d360e11b8152600490fd5b905086511415886107dd565b82359067ffffffffffffffff821161035c57366043836044350101121561035c5760208091610dc260249436906044878282350101359181350101611524565b8152019301929050610788565b8135815260209182019101610720565b82356001600160a01b038116810361035c578152602092830192016106bd565b3461035c57602036600319011261035c576004355f526006602052608060405f206002810154906003810154906005600482015491015491604051938452602084015260408301526060820152f35b3461035c57602036600319011261035c5760043530330361041d577f16569b50c8812bb18e4b5c46b0fee4a9acbb3a9dca1e1badce427e8d75b5652d60405f548151908152836020820152a15f55005b3461035c57604036600319011261035c57600435602435600381101561035c57610ec78261163b565b600781101561034857600181036110705750815f5260206007815260405f20335f52815260ff60405f205416611051575f838152600682526040908190206002810154915163277166bf60e11b8152336004820152602481019290925290919081836044816001600160a01b037f0000000000000000000000000000000000000000000000000000000000000000165afa928315610d59575f93611022575b50845f526007825260405f20335f52825260405f2060ff1990600182825416179055855f526008835260405f20335f52835260405f209081541660ff8616179055600184145f14610ffa57600601610fbf838254611589565b90555b610fcf604051809461155a565b8201527f2c9deb38f462962eadbd85a9d3a4120503ee091f1582eaaa10aa8c6797651d2960403392a3005b836110145760070161100d838254611589565b9055610fc2565b60080161100d838254611589565b9092508181813d831161104a575b61103a818361146d565b8101031261035c57519185610f66565b503d611030565b604051631bdd6e5960e11b815233600482015260248101849052604490fd5b60405163052d1a7b60e21b8152600481018490526044916103469060248301906114e3565b3461035c575f36600319011261035c576040517f00000000000000000000000000000000000000000000000000000000000000006001600160a01b03168152602090f35b3461035c57602036600319011261035c576004355f526006602052606060405f20600681015490600860078201549101549060405192835260208301526040820152f35b3461035c57602036600319011261035c57602061113b60043561163b565b6103ac60405180926114e3565b3461035c57604036600319011261035c576111616114cd565b6004355f52600760205260405f209060018060a01b03165f52602052602060ff60405f2054166040519015158152f35b3461035c57602036600319011261035c57600435805f52600660205260405f20600981019081549060ff821661124a5760ff8260081c1661123157600101546001600160a01b031633819003611213575061ff0019166101001790557f789cf55be980739dad1d0699b93b58e806b51c9d96619bfa8fe0a28abaa7b30c5f80a2005b6044906040519063828f1b5560e01b82523360048301526024820152fd5b604051632a7b4d2f60e21b815260048101859052602490fd5b604051632776407360e11b815260048101859052602490fd5b3461035c575f36600319011261035c5760205f54604051908152f35b3461035c575f36600319011261035c576020611299611740565b604051908152f35b3461035c575f36600319011261035c576020600154604051908152f35b3461035c5760208060031936011261035c576004355f526006815260405f2091825460018060a01b03600185015416936002810154600382015460048301546005840154600685015491600786015493600887015495600d600989015498018a5f918d81549061132d82611435565b8094526001821691825f146113f75750506001146113c0575b50509160ff979593916113638c6113bc9d9c9b999795038c61146d565b6040519d8e9d8e6101809c8152015260408d015260608c015260808b015260a08a015260c089015260e0880152610100870152818116151561012087015260081c1615156101408501528061016085015283019061148f565b0390f35b8d92505f52815f20905f915b8183106113e15750508b010181611363611346565b80548e84018501528e93909201916001016113cc565b6113bc9f9e9d9b9997955061136393508e92509360ff9c9a9896948d191682840152151560051b820101939597999b9c509c50819395979950611346565b90600182811c92168015611463575b602083101461144f57565b634e487b7160e01b5f52602260045260245ffd5b91607f1691611444565b90601f8019910116810190811067ffffffffffffffff821117610b6a57604052565b91908251928382525f5b8481106114b9575050825f602080949584010152601f8019910116010190565b602081830181015184830182015201611499565b602435906001600160a01b038216820361035c57565b9060078210156103485752565b67ffffffffffffffff8111610b6a5760051b60200190565b67ffffffffffffffff8111610b6a57601f01601f191660200190565b92919261153082611508565b9161153e604051938461146d565b82948184528183011161035c578281602093845f960137010152565b9060038210156103485752565b5f1981146115755760010190565b634e487b7160e01b5f52601160045260245ffd5b9190820180921161157557565b8181106115a1575050565b5f8155600101611596565b918181106115b957505050565b6115cd925f5260205f209182019101611596565b565b9190601f81116115de57505050565b6115cd925f5260205f20906020601f840160051c83019310611608575b601f0160051c0190611596565b90915081906115fb565b8054821015611627575f5260205f2001905f90565b634e487b7160e01b5f52603260045260245ffd5b5f52600660205260405f208054156116f157600981015460ff8160081c166116ea5760ff166116e45760038101544311156116df5760048101544311156116d9576006810154600782015461169e6116938284611589565b600885015490611589565b6116a6611740565b119182156116ce575b50506116c85760050154156116c357600490565b600390565b50600290565b111590505f806116af565b50600190565b505f90565b50600590565b5050600690565b60405162461bcd60e51b815260206004820152602160248201527f46696e42616e6b476f7665726e6f723a20756e6b6e6f776e2070726f706f73616044820152601b60fa1b6064820152608490fd5b604051632b448a0960e11b81526020816004817f00000000000000000000000000000000000000000000000000000000000000006001600160a01b03165afa908115610d59575f916117aa575b506003549081810291818304149015171561157557612710900490565b906020823d82116117d6575b816117c36020938361146d565b810103126117d35750515f61178d565b80fd5b3d91506117b656fea2646970667358221220980625989cebf49e3e92decff3ff2a9012da336c47bbb69a3ee114799dc43a6564736f6c63430008150033","linkReferences":{}},"methodIdentifiers":{"BPS_BASE()":"9eaa1b09","cancel(uint256)":"40e58ee5","castVote(uint256,uint8)":"56781388","execute(uint256)":"fe0d94c1","getProposalTiming(uint256)":"7b78ad42","getProposalVotes(uint256)":"47c66140","getState(uint256)":"44c9af28","hasVoted(uint256,address)":"43859632","proposalCount()":"da35c664","proposalThreshold()":"b58131b0","proposals(uint256)":"013cf08b","propose(address[],uint256[],bytes[],string)":"7d5e81e2","queue(uint256)":"ddf0b009","quorumBps()":"cd2ddd0c","quorumVotes()":"24bc1a64","setProposalThreshold(uint256)":"ece40cc1","setQuorumBps(uint256)":"a815ca52","setTimelockDelay(uint256)":"af267f8f","setVotingDelay(uint256)":"70b0f660","setVotingPeriod(uint256)":"ea0217cf","timelockDelay()":"eef09bad","veFBK()":"4fd3bc29","voteChoice(uint256,address)":"fb468855","votingDelay()":"3932abb1","votingPeriod()":"02a251a3"},"id":22}