{"abi":[{"type":"constructor","inputs":[{"name":"_veFBK","type":"address","internalType":"address"},{"name":"_votingDelay","type":"uint256","internalType":"uint256"},{"name":"_votingPeriod","type":"uint256","internalType":"uint256"},{"name":"_timelockDelay","type":"uint256","internalType":"uint256"},{"name":"_quorumBps","type":"uint256","internalType":"uint256"},{"name":"_proposalThreshold","type":"uint256","internalType":"uint256"}],"stateMutability":"nonpayable"},{"type":"function","name":"BPS_BASE","inputs":[],"outputs":[{"name":"","type":"uint256","internalType":"uint256"}],"stateMutability":"view"},{"type":"function","name":"cancel","inputs":[{"name":"proposalId","type":"uint256","internalType":"uint256"}],"outputs":[],"stateMutability":"nonpayable"},{"type":"function","name":"castVote","inputs":[{"name":"proposalId","type":"uint256","internalType":"uint256"},{"name":"voteType","type":"uint8","internalType":"enum FinBankGovernor.VoteType"}],"outputs":[],"stateMutability":"nonpayable"},{"type":"function","name":"execute","inputs":[{"name":"proposalId","type":"uint256","internalType":"uint256"}],"outputs":[],"stateMutability":"nonpayable"},{"type":"function","name":"getProposalTiming","inputs":[{"name":"proposalId","type":"uint256","internalType":"uint256"}],"outputs":[{"name":"snapshotTimestamp","type":"uint256","internalType":"uint256"},{"name":"voteStart","type":"uint256","internalType":"uint256"},{"name":"voteEnd","type":"uint256","internalType":"uint256"},{"name":"timelockEta","type":"uint256","internalType":"uint256"}],"stateMutability":"view"},{"type":"function","name":"getProposalVotes","inputs":[{"name":"proposalId","type":"uint256","internalType":"uint256"}],"outputs":[{"name":"forVotes","type":"uint256","internalType":"uint256"},{"name":"againstVotes","type":"uint256","internalType":"uint256"},{"name":"abstainVotes","type":"uint256","internalType":"uint256"}],"stateMutability":"view"},{"type":"function","name":"getState","inputs":[{"name":"proposalId","type":"uint256","internalType":"uint256"}],"outputs":[{"name":"","type":"uint8","internalType":"enum FinBankGovernor.ProposalState"}],"stateMutability":"view"},{"type":"function","name":"hasVoted","inputs":[{"name":"","type":"uint256","internalType":"uint256"},{"name":"","type":"address","internalType":"address"}],"outputs":[{"name":"","type":"bool","internalType":"bool"}],"stateMutability":"view"},{"type":"function","name":"proposalCount","inputs":[],"outputs":[{"name":"","type":"uint256","internalType":"uint256"}],"stateMutability":"view"},{"type":"function","name":"proposalThreshold","inputs":[],"outputs":[{"name":"","type":"uint256","internalType":"uint256"}],"stateMutability":"view"},{"type":"function","name":"proposals","inputs":[{"name":"","type":"uint256","internalType":"uint256"}],"outputs":[{"name":"id","type":"uint256","internalType":"uint256"},{"name":"proposer","type":"address","internalType":"address"},{"name":"snapshotTimestamp","type":"uint256","internalType":"uint256"},{"name":"voteStart","type":"uint256","internalType":"uint256"},{"name":"voteEnd","type":"uint256","internalType":"uint256"},{"name":"timelockEta","type":"uint256","internalType":"uint256"},{"name":"forVotes","type":"uint256","internalType":"uint256"},{"name":"againstVotes","type":"uint256","internalType":"uint256"},{"name":"abstainVotes","type":"uint256","internalType":"uint256"},{"name":"executed","type":"bool","internalType":"bool"},{"name":"canceled","type":"bool","internalType":"bool"},{"name":"description","type":"string","internalType":"string"}],"stateMutability":"view"},{"type":"function","name":"propose","inputs":[{"name":"targets","type":"address[]","internalType":"address[]"},{"name":"values","type":"uint256[]","internalType":"uint256[]"},{"name":"calldatas","type":"bytes[]","internalType":"bytes[]"},{"name":"description","type":"string","internalType":"string"}],"outputs":[{"name":"proposalId","type":"uint256","internalType":"uint256"}],"stateMutability":"nonpayable"},{"type":"function","name":"queue","inputs":[{"name":"proposalId","type":"uint256","internalType":"uint256"}],"outputs":[],"stateMutability":"nonpayable"},{"type":"function","name":"quorumBps","inputs":[],"outputs":[{"name":"","type":"uint256","internalType":"uint256"}],"stateMutability":"view"},{"type":"function","name":"quorumVotes","inputs":[],"outputs":[{"name":"","type":"uint256","internalType":"uint256"}],"stateMutability":"view"},{"type":"function","name":"setProposalThreshold","inputs":[{"name":"newThreshold","type":"uint256","internalType":"uint256"}],"outputs":[],"stateMutability":"nonpayable"},{"type":"function","name":"setQuorumBps","inputs":[{"name":"newBps","type":"uint256","internalType":"uint256"}],"outputs":[],"stateMutability":"nonpayable"},{"type":"function","name":"setTimelockDelay","inputs":[{"name":"newDelay","type":"uint256","internalType":"uint256"}],"outputs":[],"stateMutability":"nonpayable"},{"type":"function","name":"setVotingDelay","inputs":[{"name":"newDelay","type":"uint256","internalType":"uint256"}],"outputs":[],"stateMutability":"nonpayable"},{"type":"function","name":"setVotingPeriod","inputs":[{"name":"newPeriod","type":"uint256","internalType":"uint256"}],"outputs":[],"stateMutability":"nonpayable"},{"type":"function","name":"timelockDelay","inputs":[],"outputs":[{"name":"","type":"uint256","internalType":"uint256"}],"stateMutability":"view"},{"type":"function","name":"veFBK","inputs":[],"outputs":[{"name":"","type":"address","internalType":"contract IVeFBK"}],"stateMutability":"view"},{"type":"function","name":"voteChoice","inputs":[{"name":"","type":"uint256","internalType":"uint256"},{"name":"","type":"address","internalType":"address"}],"outputs":[{"name":"","type":"uint8","internalType":"enum FinBankGovernor.VoteType"}],"stateMutability":"view"},{"type":"function","name":"votingDelay","inputs":[],"outputs":[{"name":"","type":"uint256","internalType":"uint256"}],"stateMutability":"view"},{"type":"function","name":"votingPeriod","inputs":[],"outputs":[{"name":"","type":"uint256","internalType":"uint256"}],"stateMutability":"view"},{"type":"event","name":"ProposalCanceled","inputs":[{"name":"proposalId","type":"uint256","indexed":true,"internalType":"uint256"}],"anonymous":false},{"type":"event","name":"ProposalCreated","inputs":[{"name":"proposalId","type":"uint256","indexed":true,"internalType":"uint256"},{"name":"proposer","type":"address","indexed":true,"internalType":"address"},{"name":"targets","type":"address[]","indexed":false,"internalType":"address[]"},{"name":"values","type":"uint256[]","indexed":false,"internalType":"uint256[]"},{"name":"calldatas","type":"bytes[]","indexed":false,"internalType":"bytes[]"},{"name":"voteStart","type":"uint256","indexed":false,"internalType":"uint256"},{"name":"voteEnd","type":"uint256","indexed":false,"internalType":"uint256"},{"name":"description","type":"string","indexed":false,"internalType":"string"}],"anonymous":false},{"type":"event","name":"ProposalExecuted","inputs":[{"name":"proposalId","type":"uint256","indexed":true,"internalType":"uint256"}],"anonymous":false},{"type":"event","name":"ProposalQueued","inputs":[{"name":"proposalId","type":"uint256","indexed":true,"internalType":"uint256"},{"name":"eta","type":"uint256","indexed":false,"internalType":"uint256"}],"anonymous":false},{"type":"event","name":"ProposalThresholdUpdated","inputs":[{"name":"oldThreshold","type":"uint256","indexed":false,"internalType":"uint256"},{"name":"newThreshold","type":"uint256","indexed":false,"internalType":"uint256"}],"anonymous":false},{"type":"event","name":"QuorumUpdated","inputs":[{"name":"oldBps","type":"uint256","indexed":false,"internalType":"uint256"},{"name":"newBps","type":"uint256","indexed":false,"internalType":"uint256"}],"anonymous":false},{"type":"event","name":"TimelockDelayUpdated","inputs":[{"name":"oldDelay","type":"uint256","indexed":false,"internalType":"uint256"},{"name":"newDelay","type":"uint256","indexed":false,"internalType":"uint256"}],"anonymous":false},{"type":"event","name":"VoteCast","inputs":[{"name":"voter","type":"address","indexed":true,"internalType":"address"},{"name":"proposalId","type":"uint256","indexed":true,"internalType":"uint256"},{"name":"voteType","type":"uint8","indexed":false,"internalType":"enum FinBankGovernor.VoteType"},{"name":"weight","type":"uint256","indexed":false,"internalType":"uint256"}],"anonymous":false},{"type":"event","name":"VotingDelayUpdated","inputs":[{"name":"oldDelay","type":"uint256","indexed":false,"internalType":"uint256"},{"name":"newDelay","type":"uint256","indexed":false,"internalType":"uint256"}],"anonymous":false},{"type":"event","name":"VotingPeriodUpdated","inputs":[{"name":"oldPeriod","type":"uint256","indexed":false,"internalType":"uint256"},{"name":"newPeriod","type":"uint256","indexed":false,"internalType":"uint256"}],"anonymous":false},{"type":"error","name":"AlreadyVoted","inputs":[{"name":"voter","type":"address","internalType":"address"},{"name":"proposalId","type":"uint256","internalType":"uint256"}]},{"type":"error","name":"ArrayLengthMismatch","inputs":[]},{"type":"error","name":"BelowProposalThreshold","inputs":[{"name":"balance","type":"uint256","internalType":"uint256"},{"name":"threshold","type":"uint256","internalType":"uint256"}]},{"type":"error","name":"InvalidParameter","inputs":[]},{"type":"error","name":"NotProposer","inputs":[{"name":"caller","type":"address","internalType":"address"},{"name":"proposer","type":"address","internalType":"address"}]},{"type":"error","name":"OnlyGovernance","inputs":[]},{"type":"error","name":"ProposalAlreadyCanceled","inputs":[{"name":"proposalId","type":"uint256","internalType":"uint256"}]},{"type":"error","name":"ProposalAlreadyExecuted","inputs":[{"name":"proposalId","type":"uint256","internalType":"uint256"}]},{"type":"error","name":"ProposalNotActive","inputs":[{"name":"proposalId","type":"uint256","internalType":"uint256"},{"name":"state","type":"uint8","internalType":"enum FinBankGovernor.ProposalState"}]},{"type":"error","name":"ProposalNotQueued","inputs":[{"name":"proposalId","type":"uint256","internalType":"uint256"},{"name":"state","type":"uint8","internalType":"enum FinBankGovernor.ProposalState"}]},{"type":"error","name":"ProposalNotSucceeded","inputs":[{"name":"proposalId","type":"uint256","internalType":"uint256"},{"name":"state","type":"uint8","internalType":"enum FinBankGovernor.ProposalState"}]},{"type":"error","name":"TimelockNotExpired","inputs":[{"name":"eta","type":"uint256","internalType":"uint256"},{"name":"now_","type":"uint256","internalType":"uint256"}]}],"bytecode":{"object":"0x60a060405234801562000010575f80fd5b5060405162001c1e38038062001c1e8339810160408190526200003391620000c8565b6001600160a01b0386166200005b57604051630309cb8760e51b815260040160405180910390fd5b835f036200007c57604051630309cb8760e51b815260040160405180910390fd5b612710821115620000a057604051630309cb8760e51b815260040160405180910390fd5b6001600160a01b039095166080525f9390935560019190915560025560035560045562000124565b5f805f805f8060c08789031215620000de575f80fd5b86516001600160a01b0381168114620000f5575f80fd5b6020880151604089015160608a015160808b015160a0909b0151939c929b509099909850965090945092505050565b608051611acc620001525f395f818161028f01528181610537015281816108770152610ad50152611acc5ff3fe608060405234801561000f575f80fd5b506004361061016d575f3560e01c80637d5e81e2116100d9578063da35c66411610093578063ece40cc11161006e578063ece40cc1146103ca578063eef09bad146103dd578063fb468855146103e6578063fe0d94c114610420575f80fd5b8063da35c6641461039b578063ddf0b009146103a4578063ea0217cf146103b7575f80fd5b80637d5e81e2146103475780639eaa1b091461035a578063a815ca5214610363578063af267f8f14610376578063b58131b014610389578063cd2ddd0c14610392575f80fd5b806344c9af281161012a57806344c9af281461021e57806347c661401461023e5780634fd3bc291461028a57806356781388146102c957806370b0f660146102dc5780637b78ad42146102ef575f80fd5b8063013cf08b1461017157806302a251a3146101a557806324bc1a64146101bc5780633932abb1146101c457806340e58ee5146101cc57806343859632146101e1575b5f80fd5b61018461017f366004611277565b610433565b60405161019c9c9b9a999897969594939291906112d1565b60405180910390f35b6101ae60015481565b60405190815260200161019c565b6101ae61052e565b6101ae5f5481565b6101df6101da366004611277565b6105ce565b005b61020e6101ef366004611364565b600760209081525f928352604080842090915290825290205460ff1681565b604051901515815260200161019c565b61023161022c366004611277565b6106ba565b60405161019c91906113b6565b61026f61024c366004611277565b5f9081526006602081905260409091209081015460078201546008909201549092565b6040805193845260208401929092529082015260600161019c565b6102b17f000000000000000000000000000000000000000000000000000000000000000081565b6040516001600160a01b03909116815260200161019c565b6101df6102d73660046113ca565b6107c1565b6101df6102ea366004611277565b610a0c565b6103276102fd366004611277565b5f908152600660205260409020600281015460038201546004830154600590930154919390929190565b60408051948552602085019390935291830152606082015260800161019c565b6101ae6103553660046115d5565b610a6b565b6101ae61271081565b6101df610371366004611277565b610c92565b6101df610384366004611277565b610d16565b6101ae60045481565b6101ae60035481565b6101ae60055481565b6101df6103b2366004611277565b610d77565b6101df6103c5366004611277565b610e1f565b6101df6103d8366004611277565b610ea0565b6101ae60025481565b6104136103f4366004611364565b600860209081525f928352604080842090915290825290205460ff1681565b60405161019c91906116e5565b6101df61042e366004611277565b610f01565b600660208190525f918252604090912080546001820154600283015460038401546004850154600586015496860154600787015460088801546009890154600d8a018054999b6001600160a01b039099169a979996989597959694959394929360ff8084169461010090940416929091906104ad906116f3565b80601f01602080910402602001604051908101604052809291908181526020018280546104d9906116f3565b80156105245780601f106104fb57610100808354040283529160200191610524565b820191905f5260205f20905b81548152906001019060200180831161050757829003601f168201915b505050505090508c565b5f6127106003547f00000000000000000000000000000000000000000000000000000000000000006001600160a01b031663568914126040518163ffffffff1660e01b8152600401602060405180830381865afa158015610591573d5f803e3d5ffd5b505050506040513d601f19601f820116820180604052508101906105b5919061172b565b6105bf9190611756565b6105c9919061176d565b905090565b5f818152600660205260409020600981015460ff161561060957604051632776407360e11b8152600481018390526024015b60405180910390fd5b6009810154610100900460ff161561063757604051632a7b4d2f60e21b815260048101839052602401610600565b60018101546001600160a01b0316331461067b57600181015460405163828f1b5560e01b81523360048201526001600160a01b039091166024820152604401610600565b60098101805461ff00191661010017905560405182907f789cf55be980739dad1d0699b93b58e806b51c9d96619bfa8fe0a28abaa7b30c905f90a25050565b5f818152600660205260408120805482036107215760405162461bcd60e51b815260206004820152602160248201527f46696e42616e6b476f7665726e6f723a20756e6b6e6f776e2070726f706f73616044820152601b60fa1b6064820152608401610600565b6009810154610100900460ff161561073c5750600692915050565b600981015460ff16156107525750600592915050565b8060030154431161076557505f92915050565b806004015443116107795750600192915050565b610782816110ea565b158061079657506007810154600682015411155b156107a45750600292915050565b80600501545f036107b85750600392915050565b50600492915050565b5f6107cb836106ba565b905060018160068111156107e1576107e161138e565b1461080357828160405163052d1a7b60e21b815260040161060092919061178c565b5f83815260076020908152604080832033845290915290205460ff161561084657604051631bdd6e5960e11b815233600482015260248101849052604401610600565b5f838152600660205260408082206002810154915163277166bf60e11b8152336004820152602481019290925291907f00000000000000000000000000000000000000000000000000000000000000006001600160a01b031690634ee2cd7e90604401602060405180830381865afa1580156108c4573d5f803e3d5ffd5b505050506040513d601f19601f820116820180604052508101906108e8919061172b565b5f868152600760209081526040808320338085529083528184208054600160ff1991821681179092558b86526008855283862092865291909352922080549394508793909216908360028111156109415761094161138e565b0217905550600184600281111561095a5761095a61138e565b0361097d5780826006015f82825461097291906117a0565b909155506109c19050565b5f8460028111156109905761099061138e565b036109a85780826007015f82825461097291906117a0565b80826008015f8282546109bb91906117a0565b90915550505b84336001600160a01b03167f2c9deb38f462962eadbd85a9d3a4120503ee091f1582eaaa10aa8c6797651d2986846040516109fd9291906117b3565b60405180910390a35050505050565b333014610a2c576040516354348f0360e01b815260040160405180910390fd5b5f5460408051918252602082018390527f16569b50c8812bb18e4b5c46b0fee4a9acbb3a9dca1e1badce427e8d75b5652d910160405180910390a15f55565b5f83518551141580610a7f57508251855114155b15610a9d5760405163512509d360e11b815260040160405180910390fd5b84515f03610abe57604051630309cb8760e51b815260040160405180910390fd5b6040516370a0823160e01b81523360048201525f907f00000000000000000000000000000000000000000000000000000000000000006001600160a01b0316906370a0823190602401602060405180830381865afa158015610b22573d5f803e3d5ffd5b505050506040513d601f19601f82011682018060405250810190610b46919061172b565b9050600454811015610b76576004805460405163cd2c13e160e01b81529182018390526024820152604401610600565b60055f8154610b84906117ce565b91905081905591505f805443610b9a91906117a0565b90505f60015482610bab91906117a0565b5f8581526006602090815260409091208681556001810180546001600160a01b0319163317905542600282015560038101859055600481018390558a5192935091610bfe91600a840191908c0190611121565b508751610c1490600b83019060208b0190611184565b508651610c2a90600c83019060208a01906111bd565b50600d8101610c398782611834565b50336001600160a01b0316857f95f03e437e6d5037418f12bef80fc7e0a5f27754c078a1d5d3f62d39bac44e508b8b8b88888d604051610c7e96959493929190611979565b60405180910390a350505050949350505050565b333014610cb2576040516354348f0360e01b815260040160405180910390fd5b612710811115610cd557604051630309cb8760e51b815260040160405180910390fd5b60035460408051918252602082018390527f6784e9bcb845caaa98267d7b0918f97d3d17f7cb35a05b52010f7eb587a0acb0910160405180910390a1600355565b333014610d36576040516354348f0360e01b815260040160405180910390fd5b60025460408051918252602082018390527f0d64018104bbece148774374900c9844b1c388724c82f170dbe557313b34daef910160405180910390a1600255565b5f610d81826106ba565b90506003816006811115610d9757610d9761138e565b14610db95781816040516386e1935d60e01b815260040161060092919061178c565b5f60025442610dc891906117a0565b5f84815260066020526040908190206005018290555190915083907f9a2e42fd6722813d69113e7d0079d3d940171428df7373df9c7f7617cfda289290610e129084815260200190565b60405180910390a2505050565b333014610e3f576040516354348f0360e01b815260040160405180910390fd5b805f03610e5f57604051630309cb8760e51b815260040160405180910390fd5b60015460408051918252602082018390527fffc708f072ca56e3d45ef0cb288b96cb9378f5f63e1646868bfbc9c38f4263a1910160405180910390a1600155565b333014610ec0576040516354348f0360e01b815260040160405180910390fd5b60045460408051918252602082018390527fe92242fc3efcad407a677132b517977331a6e5b65abab69fd757cc02e99c9c4e910160405180910390a1600455565b5f610f0b826106ba565b90506004816006811115610f2157610f2161138e565b14610f4357818160405163d7a08fa360e01b815260040161060092919061178c565b5f8281526006602052604090206005810154421015610f8457600581015460405163126b74dd60e11b81526004810191909152426024820152604401610600565b60098101805460ff191660011790555f5b600a8201548110156110ba575f82600a018281548110610fb757610fb7611a10565b5f91825260209091200154600b840180546001600160a01b039092169184908110610fe457610fe4611a10565b905f5260205f20015484600c01848154811061100257611002611a10565b905f5260205f20016040516110179190611a24565b5f6040518083038185875af1925050503d805f8114611051576040519150601f19603f3d011682016040523d82523d5f602084013e611056565b606091505b50509050806110a75760405162461bcd60e51b815260206004820152601c60248201527f46696e42616e6b476f7665726e6f723a2063616c6c206661696c6564000000006044820152606401610600565b50806110b2816117ce565b915050610f95565b5060405183907f712ae1383f79ac853f8d882153778e0260ef8f03b504e2866e0593e04d2b291f905f90a2505050565b5f8082600801548360070154846006015461110591906117a0565b61110f91906117a0565b905061111961052e565b111592915050565b828054828255905f5260205f20908101928215611174579160200282015b8281111561117457825182546001600160a01b0319166001600160a01b0390911617825560209092019160019091019061113f565b5061118092915061120d565b5090565b828054828255905f5260205f20908101928215611174579160200282015b828111156111745782518255916020019190600101906111a2565b828054828255905f5260205f20908101928215611201579160200282015b8281111561120157825182906111f19082611834565b50916020019190600101906111db565b50611180929150611221565b5b80821115611180575f815560010161120e565b80821115611180575f611234828261123d565b50600101611221565b508054611249906116f3565b5f825580601f10611258575050565b601f0160209004905f5260205f2090810190611274919061120d565b50565b5f60208284031215611287575f80fd5b5035919050565b5f81518084525f5b818110156112b257602081850181015186830182015201611296565b505f602082860101526020601f19601f83011685010191505092915050565b5f6101808e835260018060a01b038e1660208401528c60408401528b60608401528a60808401528960a08401528860c08401528760e084015286610100840152851515610120840152841515610140840152806101608401526113368184018561128e565b9f9e505050505050505050505050505050565b80356001600160a01b038116811461135f575f80fd5b919050565b5f8060408385031215611375575f80fd5b8235915061138560208401611349565b90509250929050565b634e487b7160e01b5f52602160045260245ffd5b600781106113b2576113b261138e565b9052565b602081016113c482846113a2565b92915050565b5f80604083850312156113db575f80fd5b823591506020830135600381106113f0575f80fd5b809150509250929050565b634e487b7160e01b5f52604160045260245ffd5b604051601f8201601f1916810167ffffffffffffffff81118282101715611438576114386113fb565b604052919050565b5f67ffffffffffffffff821115611459576114596113fb565b5060051b60200190565b5f82601f830112611472575f80fd5b8135602061148761148283611440565b61140f565b82815260059290921b840181019181810190868411156114a5575f80fd5b8286015b848110156114c057803583529183019183016114a9565b509695505050505050565b5f67ffffffffffffffff8311156114e4576114e46113fb565b6114f7601f8401601f191660200161140f565b905082815283838301111561150a575f80fd5b828260208301375f602084830101529392505050565b5f82601f83011261152f575f80fd5b8135602061153f61148283611440565b82815260059290921b8401810191818101908684111561155d575f80fd5b8286015b848110156114c057803567ffffffffffffffff811115611580575f8081fd5b8701603f81018913611591575f8081fd5b6115a28986830135604084016114cb565b845250918301918301611561565b5f82601f8301126115bf575f80fd5b6115ce838335602085016114cb565b9392505050565b5f805f80608085870312156115e8575f80fd5b843567ffffffffffffffff808211156115ff575f80fd5b818701915087601f830112611612575f80fd5b8135602061162261148283611440565b82815260059290921b8401810191818101908b841115611640575f80fd5b948201945b838610156116655761165686611349565b82529482019490820190611645565b9850508801359250508082111561167a575f80fd5b61168688838901611463565b9450604087013591508082111561169b575f80fd5b6116a788838901611520565b935060608701359150808211156116bc575f80fd5b506116c9878288016115b0565b91505092959194509250565b600381106113b2576113b261138e565b602081016113c482846116d5565b600181811c9082168061170757607f821691505b60208210810361172557634e487b7160e01b5f52602260045260245ffd5b50919050565b5f6020828403121561173b575f80fd5b5051919050565b634e487b7160e01b5f52601160045260245ffd5b80820281158282048414176113c4576113c4611742565b5f8261178757634e487b7160e01b5f52601260045260245ffd5b500490565b828152604081016115ce60208301846113a2565b808201808211156113c4576113c4611742565b604081016117c182856116d5565b8260208301529392505050565b5f600182016117df576117df611742565b5060010190565b601f82111561182f575f81815260208120601f850160051c8101602086101561180c5750805b601f850160051c820191505b8181101561182b57828155600101611818565b5050505b505050565b815167ffffffffffffffff81111561184e5761184e6113fb565b6118628161185c84546116f3565b846117e6565b602080601f831160018114611895575f841561187e5750858301515b5f19600386901b1c1916600185901b17855561182b565b5f85815260208120601f198616915b828110156118c3578886015182559484019460019091019084016118a4565b50858210156118e057878501515f19600388901b60f8161c191681555b5050505050600190811b01905550565b5f8151808452602080850194508084015f5b8381101561191e57815187529582019590820190600101611902565b509495945050505050565b5f815180845260208085019450848260051b86018286015f5b8581101561196c57838303895261195a83835161128e565b98850198925090840190600101611942565b5090979650505050505050565b60c080825287519082018190525f9060209060e0840190828b01845b828110156119ba5781516001600160a01b031684529284019290840190600101611995565b505050838103828501526119ce818a6118f0565b91505082810360408401526119e38188611929565b905085606084015284608084015282810360a0840152611a03818561128e565b9998505050505050505050565b634e487b7160e01b5f52603260045260245ffd5b5f808354611a31816116f3565b60018281168015611a495760018114611a5e57611a8a565b60ff1984168752821515830287019450611a8a565b875f526020805f205f5b85811015611a815781548a820152908401908201611a68565b50505082870194505b5092969550505050505056fea264697066735822122029aa1248a79edecc27280541a0bd49a850274e8429b1c1497dfdc2c5ce117abc64736f6c63430008150033","linkReferences":{}},"methodIdentifiers":{"BPS_BASE()":"9eaa1b09","cancel(uint256)":"40e58ee5","castVote(uint256,uint8)":"56781388","execute(uint256)":"fe0d94c1","getProposalTiming(uint256)":"7b78ad42","getProposalVotes(uint256)":"47c66140","getState(uint256)":"44c9af28","hasVoted(uint256,address)":"43859632","proposalCount()":"da35c664","proposalThreshold()":"b58131b0","proposals(uint256)":"013cf08b","propose(address[],uint256[],bytes[],string)":"7d5e81e2","queue(uint256)":"ddf0b009","quorumBps()":"cd2ddd0c","quorumVotes()":"24bc1a64","setProposalThreshold(uint256)":"ece40cc1","setQuorumBps(uint256)":"a815ca52","setTimelockDelay(uint256)":"af267f8f","setVotingDelay(uint256)":"70b0f660","setVotingPeriod(uint256)":"ea0217cf","timelockDelay()":"eef09bad","veFBK()":"4fd3bc29","voteChoice(uint256,address)":"fb468855","votingDelay()":"3932abb1","votingPeriod()":"02a251a3"},"id":22}