{"abi":[{"type":"constructor","inputs":[{"name":"_eas","type":"address","internalType":"address"},{"name":"_kycSchema","type":"bytes32","internalType":"bytes32"}],"stateMutability":"nonpayable"},{"type":"function","name":"approveAttestor","inputs":[{"name":"attestor","type":"address","internalType":"address"}],"outputs":[],"stateMutability":"nonpayable"},{"type":"function","name":"approvedAttestors","inputs":[{"name":"","type":"address","internalType":"address"}],"outputs":[{"name":"","type":"bool","internalType":"bool"}],"stateMutability":"view"},{"type":"function","name":"eas","inputs":[],"outputs":[{"name":"","type":"address","internalType":"contract IEAS"}],"stateMutability":"view"},{"type":"function","name":"isAuthorized","inputs":[{"name":"user","type":"address","internalType":"address"}],"outputs":[{"name":"","type":"bool","internalType":"bool"}],"stateMutability":"view"},{"type":"function","name":"kycSchema","inputs":[],"outputs":[{"name":"","type":"bytes32","internalType":"bytes32"}],"stateMutability":"view"},{"type":"function","name":"owner","inputs":[],"outputs":[{"name":"","type":"address","internalType":"address"}],"stateMutability":"view"},{"type":"function","name":"registerAttestation","inputs":[{"name":"attestationUID","type":"bytes32","internalType":"bytes32"}],"outputs":[],"stateMutability":"nonpayable"},{"type":"function","name":"revokeAttestor","inputs":[{"name":"attestor","type":"address","internalType":"address"}],"outputs":[],"stateMutability":"nonpayable"},{"type":"function","name":"transferOwnership","inputs":[{"name":"newOwner","type":"address","internalType":"address"}],"outputs":[],"stateMutability":"nonpayable"},{"type":"function","name":"updateSchema","inputs":[{"name":"newSchema","type":"bytes32","internalType":"bytes32"}],"outputs":[],"stateMutability":"nonpayable"},{"type":"function","name":"userAttestationUID","inputs":[{"name":"","type":"address","internalType":"address"}],"outputs":[{"name":"","type":"bytes32","internalType":"bytes32"}],"stateMutability":"view"},{"type":"event","name":"AttestorApproved","inputs":[{"name":"attestor","type":"address","indexed":true,"internalType":"address"}],"anonymous":false},{"type":"event","name":"AttestorRevoked","inputs":[{"name":"attestor","type":"address","indexed":true,"internalType":"address"}],"anonymous":false},{"type":"event","name":"SchemaUpdated","inputs":[{"name":"newSchema","type":"bytes32","indexed":false,"internalType":"bytes32"}],"anonymous":false},{"type":"error","name":"AttestorAlreadyApproved","inputs":[{"name":"attestor","type":"address","internalType":"address"}]},{"type":"error","name":"AttestorNotFound","inputs":[{"name":"attestor","type":"address","internalType":"address"}]},{"type":"error","name":"NoValidAttestation","inputs":[{"name":"user","type":"address","internalType":"address"}]},{"type":"error","name":"NotOwner","inputs":[]}],"bytecode":{"object":"0x60a060405234801561000f575f80fd5b50604051610b6f380380610b6f83398101604081905261002e91610055565b6001600160a01b039091166080525f55600180546001600160a01b0319163317905561008c565b5f8060408385031215610066575f80fd5b82516001600160a01b038116811461007c575f80fd5b6020939093015192949293505050565b608051610abd6100b25f395f818161014e0152818161031801526106e40152610abd5ff3fe608060405234801561000f575f80fd5b50600436106100a6575f3560e01c80638150864d1161006e5780638150864d146101495780638da5cb5b14610188578063904f48361461019b578063c295f33e146101ae578063f2fde38b146101b6578063fe9fbb80146101c9575f80fd5b80630d6b808f146100aa57806328582b9d146100e15780632f28a9c4146100f657806358ff2232146101235780635a2d7f5014610136575b5f80fd5b6100cc6100b8366004610837565b60026020525f908152604090205460ff1681565b60405190151581526020015b60405180910390f35b6100f46100ef366004610837565b6101dc565b005b610115610104366004610837565b60036020525f908152604090205481565b6040519081526020016100d8565b6100f4610131366004610859565b61029b565b6100f4610144366004610859565b610300565b6101707f000000000000000000000000000000000000000000000000000000000000000081565b6040516001600160a01b0390911681526020016100d8565b600154610170906001600160a01b031681565b6100f46101a9366004610837565b6105a4565b6101155f5481565b6100f46101c4366004610837565b61065a565b6100cc6101d7366004610837565b6106a7565b6001546001600160a01b03163314610207576040516330cd747160e01b815260040160405180910390fd5b6001600160a01b0381165f9081526002602052604090205460ff161561025057604051638b2a387160e01b81526001600160a01b03821660048201526024015b60405180910390fd5b6001600160a01b0381165f81815260026020526040808220805460ff19166001179055517f1832e62c1320bb8c3be301fb194df98a375f57bf29897fa15ce55b82911fa1bc9190a250565b6001546001600160a01b031633146102c6576040516330cd747160e01b815260040160405180910390fd5b5f8190556040518181527f9fdfc4a79a40f32e29387cf31d7c2216715105026bcada349e161f790a2a61dd9060200160405180910390a150565b6040516328c44a9960e21b8152600481018290525f907f00000000000000000000000000000000000000000000000000000000000000006001600160a01b03169063a3112a64906024015f60405180830381865afa158015610364573d5f803e3d5ffd5b505050506040513d5f823e601f3d908101601f1916820160405261038b9190810190610995565b60c08101519091506001600160a01b031633146103f95760405162461bcd60e51b815260206004820152602660248201527f454153436865636b65723a206174746573746174696f6e206e6f7420666f722060448201526531b0b63632b960d11b6064820152608401610247565b60e08101516001600160a01b03165f9081526002602052604090205460ff1661046e5760405162461bcd60e51b815260206004820152602160248201527f454153436865636b65723a206174746573746f72206e6f7420617070726f76656044820152601960fa1b6064820152608401610247565b5f548160200151146104c25760405162461bcd60e51b815260206004820152601860248201527f454153436865636b65723a2077726f6e6720736368656d6100000000000000006044820152606401610247565b608081015167ffffffffffffffff161561051e5760405162461bcd60e51b815260206004820152601f60248201527f454153436865636b65723a206174746573746174696f6e207265766f6b6564006044820152606401610247565b606081015167ffffffffffffffff161580610546575042816060015167ffffffffffffffff16115b6105925760405162461bcd60e51b815260206004820152601f60248201527f454153436865636b65723a206174746573746174696f6e2065787069726564006044820152606401610247565b50335f90815260036020526040902055565b6001546001600160a01b031633146105cf576040516330cd747160e01b815260040160405180910390fd5b6001600160a01b0381165f9081526002602052604090205460ff1661061257604051630a26e16f60e01b81526001600160a01b0382166004820152602401610247565b6001600160a01b0381165f81815260026020526040808220805460ff19169055517f6db04a1d0bcf5d36ee7c6d7f7c40c79579eb83a22d7ae9a04aa0181d649ff4949190a250565b6001546001600160a01b03163314610685576040516330cd747160e01b815260040160405180910390fd5b600180546001600160a01b0319166001600160a01b0392909216919091179055565b6001600160a01b0381165f90815260036020526040812054806106cc57505f92915050565b6040516328c44a9960e21b8152600481018290525f907f00000000000000000000000000000000000000000000000000000000000000006001600160a01b03169063a3112a64906024015f60405180830381865afa158015610730573d5f803e3d5ffd5b505050506040513d5f823e601f3d908101601f191682016040526107579190810190610995565b9050836001600160a01b03168160c001516001600160a01b03161461077f57505f9392505050565b60e08101516001600160a01b03165f9081526002602052604090205460ff166107ab57505f9392505050565b5f548160200151146107c057505f9392505050565b608081015167ffffffffffffffff16156107dd57505f9392505050565b606081015167ffffffffffffffff1615801590610808575042816060015167ffffffffffffffff1611155b1561081657505f9392505050565b5060019392505050565b6001600160a01b0381168114610834575f80fd5b50565b5f60208284031215610847575f80fd5b813561085281610820565b9392505050565b5f60208284031215610869575f80fd5b5035919050565b634e487b7160e01b5f52604160045260245ffd5b604051610140810167ffffffffffffffff811182821017156108a8576108a8610870565b60405290565b604051601f8201601f1916810167ffffffffffffffff811182821017156108d7576108d7610870565b604052919050565b805167ffffffffffffffff811681146108f6575f80fd5b919050565b80516108f681610820565b805180151581146108f6575f80fd5b5f82601f830112610924575f80fd5b815167ffffffffffffffff81111561093e5761093e610870565b6020610952601f8301601f191682016108ae565b8281528582848701011115610965575f80fd5b5f5b83811015610982578581018301518282018401528201610967565b505f928101909101919091529392505050565b5f602082840312156109a5575f80fd5b815167ffffffffffffffff808211156109bc575f80fd5b9083019061014082860312156109d0575f80fd5b6109d8610884565b82518152602083015160208201526109f2604084016108df565b6040820152610a03606084016108df565b6060820152610a14608084016108df565b608082015260a083015160a0820152610a2f60c084016108fb565b60c0820152610a4060e084016108fb565b60e0820152610100610a53818501610906565b908201526101208381015183811115610a6a575f80fd5b610a7688828701610915565b91830191909152509594505050505056fea26469706673582212201992c608a9d7cea680344558586b1297b581ab46d0fd8a66e0894a0e6b54af4664736f6c63430008150033","linkReferences":{}},"methodIdentifiers":{"approveAttestor(address)":"28582b9d","approvedAttestors(address)":"0d6b808f","eas()":"8150864d","isAuthorized(address)":"fe9fbb80","kycSchema()":"c295f33e","owner()":"8da5cb5b","registerAttestation(bytes32)":"5a2d7f50","revokeAttestor(address)":"904f4836","transferOwnership(address)":"f2fde38b","updateSchema(bytes32)":"58ff2232","userAttestationUID(address)":"2f28a9c4"},"id":33}