{"abi":[{"type":"constructor","inputs":[{"name":"_eas","type":"address","internalType":"address"},{"name":"_kycSchema","type":"bytes32","internalType":"bytes32"}],"stateMutability":"nonpayable"},{"type":"function","name":"approveAttestor","inputs":[{"name":"attestor","type":"address","internalType":"address"}],"outputs":[],"stateMutability":"nonpayable"},{"type":"function","name":"approvedAttestors","inputs":[{"name":"","type":"address","internalType":"address"}],"outputs":[{"name":"","type":"bool","internalType":"bool"}],"stateMutability":"view"},{"type":"function","name":"eas","inputs":[],"outputs":[{"name":"","type":"address","internalType":"contract IEAS"}],"stateMutability":"view"},{"type":"function","name":"isAuthorized","inputs":[{"name":"user","type":"address","internalType":"address"}],"outputs":[{"name":"","type":"bool","internalType":"bool"}],"stateMutability":"view"},{"type":"function","name":"kycSchema","inputs":[],"outputs":[{"name":"","type":"bytes32","internalType":"bytes32"}],"stateMutability":"view"},{"type":"function","name":"owner","inputs":[],"outputs":[{"name":"","type":"address","internalType":"address"}],"stateMutability":"view"},{"type":"function","name":"registerAttestation","inputs":[{"name":"attestationUID","type":"bytes32","internalType":"bytes32"}],"outputs":[],"stateMutability":"nonpayable"},{"type":"function","name":"revokeAttestor","inputs":[{"name":"attestor","type":"address","internalType":"address"}],"outputs":[],"stateMutability":"nonpayable"},{"type":"function","name":"transferOwnership","inputs":[{"name":"newOwner","type":"address","internalType":"address"}],"outputs":[],"stateMutability":"nonpayable"},{"type":"function","name":"updateSchema","inputs":[{"name":"newSchema","type":"bytes32","internalType":"bytes32"}],"outputs":[],"stateMutability":"nonpayable"},{"type":"function","name":"userAttestationUID","inputs":[{"name":"","type":"address","internalType":"address"}],"outputs":[{"name":"","type":"bytes32","internalType":"bytes32"}],"stateMutability":"view"},{"type":"event","name":"AttestorApproved","inputs":[{"name":"attestor","type":"address","indexed":true,"internalType":"address"}],"anonymous":false},{"type":"event","name":"AttestorRevoked","inputs":[{"name":"attestor","type":"address","indexed":true,"internalType":"address"}],"anonymous":false},{"type":"event","name":"OwnershipTransferred","inputs":[{"name":"oldOwner","type":"address","indexed":true,"internalType":"address"},{"name":"newOwner","type":"address","indexed":true,"internalType":"address"}],"anonymous":false},{"type":"event","name":"SchemaUpdated","inputs":[{"name":"newSchema","type":"bytes32","indexed":false,"internalType":"bytes32"}],"anonymous":false},{"type":"error","name":"AttestorAlreadyApproved","inputs":[{"name":"attestor","type":"address","internalType":"address"}]},{"type":"error","name":"AttestorNotFound","inputs":[{"name":"attestor","type":"address","internalType":"address"}]},{"type":"error","name":"NoValidAttestation","inputs":[{"name":"user","type":"address","internalType":"address"}]},{"type":"error","name":"NotOwner","inputs":[]},{"type":"error","name":"ZeroAddress","inputs":[]}],"bytecode":{"object":"0x60a03461009657601f6108ea38819003918201601f19168301916001600160401b0383118484101761009a5780849260409485528339810103126100965780516001600160a01b038116919082900361009657602001516080919091525f55600180546001600160a01b0319163317905560405161083b90816100af8239608051818181610270015281816102d8015261072f0152f35b5f80fd5b634e487b7160e01b5f52604160045260245ffdfe60806040818152600480361015610014575f80fd5b5f92833560e01c9081630d6b808f146105185750806328582b9d146104805780632f28a9c41461044757806358ff2232146103ed5780635a2d7f501461029f5780638150864d1461025b5780638da5cb5b14610232578063904f48361461018e578063c295f33e1461016d578063f2fde38b146100d85763fe9fbb8014610099575f80fd5b346100d45760203660031901126100d45735916001600160a01b03831683036100d157506100c86020926106f1565b90519015158152f35b80fd5b8280fd5b50346100d45760203660031901126100d4576001600160a01b03813581811693919290849003610169576001549283169182330361015c57841561014f57505082907f8be0079c531659141344cd1fd0a4f28419497f9722a3daafe3b4186f6b6457e08580a36001600160a01b0319161760015580f35b5163d92e233d60e01b8152fd5b516330cd747160e01b8152fd5b8480fd5b50503461018a578160031936011261018a57602091549051908152f35b5080fd5b5090346100d45760203660031901126100d45781356001600160a01b0381811693918490036101695760015416330361022457828452600260205260ff82852054161561020f575081835260026020528220805460ff191690557f6db04a1d0bcf5d36ee7c6d7f7c40c79579eb83a22d7ae9a04aa0181d649ff4948280a280f35b826024925191630a26e16f60e01b8352820152fd5b90516330cd747160e01b8152fd5b50503461018a578160031936011261018a5760015490516001600160a01b039091168152602090f35b50503461018a578160031936011261018a57517f00000000000000000000000000000000000000000000000000000000000000006001600160a01b03168152602090f35b5090346100d45760203660031901126100d45780516328c44a9960e21b81528235818401819052926024916001600160a01b03868285817f000000000000000000000000000000000000000000000000000000000000000085165afa9182156103e35787926103bf575b508060c08301511633036103945760e0820151168652600260205260ff8487205416156103aa5760208101518654036103aa5767ffffffffffffffff90816080820151166103945760600151168015159081610389575b50610375575050338352600360205282205580f35b825190633feae07160e11b82523390820152fd5b90504210155f610360565b5050825190633feae07160e11b82523390820152fd5b50825190633feae07160e11b82523390820152fd5b6103dc9192503d8089833e6103d48183610559565b8101906105bc565b905f610309565b85513d89823e3d90fd5b5090346100d45760203660031901126100d457600154823592906001600160a01b031633036102245750816020917f9fdfc4a79a40f32e29387cf31d7c2216715105026bcada349e161f790a2a61dd93855551908152a180f35b50346100d45760203660031901126100d457356001600160a01b038116908190036100d457828291602094526003845220549051908152f35b5090346100d45760203660031901126100d45781356001600160a01b0381811693918490036101695760015416330361022457828452600260205260ff8285205416610503575081835260026020528220805460ff191660011790557f1832e62c1320bb8c3be301fb194df98a375f57bf29897fa15ce55b82911fa1bc8280a280f35b826024925191638b2a387160e01b8352820152fd5b929190503461055557602036600319011261055557356001600160a01b038116908190036105555783526002602090815292205460ff1615158152f35b8380fd5b90601f8019910116810190811067ffffffffffffffff82111761057b57604052565b634e487b7160e01b5f52604160045260245ffd5b519067ffffffffffffffff821682036105a457565b5f80fd5b51906001600160a01b03821682036105a457565b90602080838303126105a457825167ffffffffffffffff938482116105a45701906101409384838503126105a4576040519485018581108282111761057b576040528251855281830151828601526106166040840161058f565b60408601526106276060840161058f565b60608601526106386080840161058f565b608086015260a083015160a086015261065360c084016105a8565b60c086015261066460e084016105a8565b60e0860152610100808401519081151582036105a4578601526101209283810151908282116105a4570184601f820112156105a457805191821161057b57604051946106b9601f8401601f1916850187610559565b8286528383830101116105a4575f5b8281106106de575050905f918401015282015290565b81810184015186820185015283016106c8565b6001600160a01b039081165f818152600360205260408120549092909182156107ff57604051926328c44a9960e21b845260048401528383602481857f0000000000000000000000000000000000000000000000000000000000000000165afa9283156107f45784936107d8575b508160c084015116036107cf5760e0820151168252600260205260ff604083205416156107d45760208101518254036107d45767ffffffffffffffff90816080820151166107cf57606001511680151590816107c4575b506107c15750600190565b90565b90504210155f6107b6565b505090565b5090565b6107ed9193503d8086833e6103d48183610559565b915f61075f565b6040513d86823e3d90fd5b5050509056fea2646970667358221220334375164ccfb4c25d61fbbe38682ffe9f0799c5995d2a903732f1c7dcba56a664736f6c63430008150033","linkReferences":{}},"methodIdentifiers":{"approveAttestor(address)":"28582b9d","approvedAttestors(address)":"0d6b808f","eas()":"8150864d","isAuthorized(address)":"fe9fbb80","kycSchema()":"c295f33e","owner()":"8da5cb5b","registerAttestation(bytes32)":"5a2d7f50","revokeAttestor(address)":"904f4836","transferOwnership(address)":"f2fde38b","updateSchema(bytes32)":"58ff2232","userAttestationUID(address)":"2f28a9c4"},"id":34}