{"abi":[{"type":"function","name":"addYield","inputs":[{"name":"marketParams","type":"tuple","internalType":"struct MarketParams","components":[{"name":"loanToken","type":"address","internalType":"address"},{"name":"collateralToken","type":"address","internalType":"address"},{"name":"oracle","type":"address","internalType":"address"},{"name":"irm","type":"address","internalType":"address"},{"name":"lltv","type":"uint256","internalType":"uint256"}]},{"name":"amount","type":"uint256","internalType":"uint256"}],"outputs":[],"stateMutability":"nonpayable"},{"type":"function","name":"addYield","inputs":[{"name":"loanToken","type":"address","internalType":"address"},{"name":"amount","type":"uint256","internalType":"uint256"}],"outputs":[],"stateMutability":"nonpayable"},{"type":"function","name":"assetsOf","inputs":[{"name":"marketParams","type":"tuple","internalType":"struct MarketParams","components":[{"name":"loanToken","type":"address","internalType":"address"},{"name":"collateralToken","type":"address","internalType":"address"},{"name":"oracle","type":"address","internalType":"address"},{"name":"irm","type":"address","internalType":"address"},{"name":"lltv","type":"uint256","internalType":"uint256"}]},{"name":"user","type":"address","internalType":"address"}],"outputs":[{"name":"","type":"uint256","internalType":"uint256"}],"stateMutability":"view"},{"type":"function","name":"deposits","inputs":[{"name":"","type":"bytes32","internalType":"bytes32"},{"name":"","type":"address","internalType":"address"}],"outputs":[{"name":"","type":"uint256","internalType":"uint256"}],"stateMutability":"view"},{"type":"function","name":"market","inputs":[{"name":"id","type":"bytes32","internalType":"Id"}],"outputs":[{"name":"","type":"tuple","internalType":"struct Market","components":[{"name":"totalSupplyAssets","type":"uint128","internalType":"uint128"},{"name":"totalSupplyShares","type":"uint128","internalType":"uint128"},{"name":"totalBorrowAssets","type":"uint128","internalType":"uint128"},{"name":"totalBorrowShares","type":"uint128","internalType":"uint128"},{"name":"lastUpdate","type":"uint128","internalType":"uint128"},{"name":"fee","type":"uint128","internalType":"uint128"}]}],"stateMutability":"view"},{"type":"function","name":"position","inputs":[{"name":"id","type":"bytes32","internalType":"Id"},{"name":"user","type":"address","internalType":"address"}],"outputs":[{"name":"","type":"tuple","internalType":"struct Position","components":[{"name":"supplyShares","type":"uint256","internalType":"uint256"},{"name":"borrowShares","type":"uint128","internalType":"uint128"},{"name":"collateral","type":"uint128","internalType":"uint128"}]}],"stateMutability":"view"},{"type":"function","name":"supply","inputs":[{"name":"marketParams","type":"tuple","internalType":"struct MarketParams","components":[{"name":"loanToken","type":"address","internalType":"address"},{"name":"collateralToken","type":"address","internalType":"address"},{"name":"oracle","type":"address","internalType":"address"},{"name":"irm","type":"address","internalType":"address"},{"name":"lltv","type":"uint256","internalType":"uint256"}]},{"name":"assets","type":"uint256","internalType":"uint256"},{"name":"","type":"uint256","internalType":"uint256"},{"name":"onBehalf","type":"address","internalType":"address"},{"name":"","type":"bytes","internalType":"bytes"}],"outputs":[{"name":"assetsSupplied","type":"uint256","internalType":"uint256"},{"name":"sharesSupplied","type":"uint256","internalType":"uint256"}],"stateMutability":"nonpayable"},{"type":"function","name":"totalSupplyAssets","inputs":[{"name":"","type":"bytes32","internalType":"bytes32"}],"outputs":[{"name":"","type":"uint256","internalType":"uint256"}],"stateMutability":"view"},{"type":"function","name":"totalSupplyShares","inputs":[{"name":"","type":"bytes32","internalType":"bytes32"}],"outputs":[{"name":"","type":"uint256","internalType":"uint256"}],"stateMutability":"view"},{"type":"function","name":"withdraw","inputs":[{"name":"marketParams","type":"tuple","internalType":"struct MarketParams","components":[{"name":"loanToken","type":"address","internalType":"address"},{"name":"collateralToken","type":"address","internalType":"address"},{"name":"oracle","type":"address","internalType":"address"},{"name":"irm","type":"address","internalType":"address"},{"name":"lltv","type":"uint256","internalType":"uint256"}]},{"name":"assets","type":"uint256","internalType":"uint256"},{"name":"","type":"uint256","internalType":"uint256"},{"name":"onBehalf","type":"address","internalType":"address"},{"name":"receiver","type":"address","internalType":"address"}],"outputs":[{"name":"assetsWithdrawn","type":"uint256","internalType":"uint256"},{"name":"sharesWithdrawn","type":"uint256","internalType":"uint256"}],"stateMutability":"nonpayable"},{"type":"function","name":"yieldPool","inputs":[{"name":"","type":"bytes32","internalType":"bytes32"}],"outputs":[{"name":"","type":"uint256","internalType":"uint256"}],"stateMutability":"view"}],"bytecode":{"object":"0x6080806040523461001657610b0a908161001b8239f35b5f80fdfe60806040818152600480361015610014575f80fd5b5f92833560e01c9081630d2db07414610859575080630f9ccd3d14610784578063417737d61461075d5780634f1c2c311461071d5780635c2bea49146104fb5780635c60e39a146104385780637143e057146103f15780637ecb8bcf146102f15780638147e2be146102ca57806393c52062146102385763a99aad8914610099575f80fd5b3461023457610120366003190112610234576100b436610939565b9260a435906100c1610923565b92610104359367ffffffffffffffff968786116102305736602387011215610230578583013597881161021d578651602096610106601f8b01601f19168901836108e7565b8982523660248b83010111610219578986926101769b60248b9401848301370101528585610133836109df565b925189516323b872dd60e01b8152339681019687523060208801526040870192909252909992946001600160a01b03938b92851691839189918391606090910190565b03925af197881561020f578798979596976101e2575b508284528387528484209116835285528282206101aa8582546109be565b9055808252600285528282206101c18582546109be565b9055815260038452206101d58282546109be565b9055825191818352820152f35b61020190883d8a11610208575b6101f981836108e7565b8101906109a6565b505f61018c565b503d6101ef565b87513d86823e3d90fd5b8580fd5b634e487b7160e01b845260418352602484fd5b8380fd5b8280fd5b509190346102c657806003193601126102c657606092610256610909565b9083838051610264816108cb565b8281528260208201520152358352826020528183209060018060a01b0316835260205280822054918151610297816108cb565b83815282602082019183835201918252825193845251906001600160801b038092166020850152511690820152f35b5080fd5b50346102345760203660031901126102345760209282913581526001845220549051908152f35b50903461023457806003193601126102345781356001600160a01b038116929083900361023057610353906103876024359485855191610330836108af565b808352602095838a88809601528a898201528a60608201528a60808201526109df565b87516323b872dd60e01b8152339681019687523060208801526040870193909352949193849283918b918391606090910190565b03925af180156103e757916103c59493916002936103ca575b50808752600182528387206103b68782546109be565b905586525283209182546109be565b905580f35b6103e090833d8511610208576101f981836108e7565b505f6103a0565b84513d88823e3d90fd5b5050346102c65760c03660031901126102c65761040d36610939565b60a435926001600160a01b0384168403610435575060209261042e91610a70565b9051908152f35b80fd5b50346102345760209081600319360112610230579260c0938160a0855161045e8161087f565b828152828682015282878201528260608201528260808201520152358152600282526001600160801b03809281808685205416956003835281818620541690828151946104aa8661087f565b898652808601938452828601908882528260608801958a875260a060808a01998342168b52019a8b5285519c8d525116908b01525116908801525116606086015251166080840152511660a0820152f35b508234610435576101203660031901126104355761051836610939565b60a43591610524610923565b6001600160a01b03946101043586811692908390036102305786610547866109df565b955116948085526020978589528986209216918286528852888520549181865260028952898620549286938015158061070d575b6106ea575b5061058b84826109be565b89116106a95791604493918a969593808b115f146106a157905b8289528888528c892090895287526105c18c8920918254610a63565b9055808752600286528a8720548980821115610699576105e091610a63565b818852600287528b882055600386528a87205489808211156106905761060591610a63565b905b8752600386528a87205580610676575b50848951968794859363a9059cbb60e01b85528401528860248401525af190811561066b575061064e575b50825191818352820152f35b61066490833d8511610208576101f981836108e7565b5083610642565b8551903d90823e3d90fd5b600185526106888a8720918254610a63565b905589610617565b50508690610607565b5050866105e0565b5089906105a5565b6064858b808e519262461bcd60e51b845283015260248201527f4d6f636b4d6f7270686f3a20696e73756666696369656e742062616c616e63656044820152fd5b61070691945060018b52610701858d8a2054610a32565b610a45565b928b610580565b5060018b528b882054151561057b565b5034610234578160031936011261023457602092829161073b610909565b903582528185528282206001600160a01b039091168252845220549051908152f35b50346102345760203660031901126102345760209282913581526002845220549051908152f35b50346102345760c0366003190112610234576107f2916107a336610939565b602060a43580946107b3846109df565b935185516323b872dd60e01b8152339281019283523060208401526040830193909352919687926001600160a01b03169183918a918391606090910190565b03925af193841561084f576103c59394610831575b50808552600160205281852061081e8582546109be565b90558452600260205283209182546109be565b6108489060203d8111610208576101f981836108e7565b505f610807565b82513d87823e3d90fd5b929190503461023057602036600319011261023057926020933581526003845220548152f35b60c0810190811067ffffffffffffffff82111761089b57604052565b634e487b7160e01b5f52604160045260245ffd5b60a0810190811067ffffffffffffffff82111761089b57604052565b6060810190811067ffffffffffffffff82111761089b57604052565b90601f8019910116810190811067ffffffffffffffff82111761089b57604052565b602435906001600160a01b038216820361091f57565b5f80fd5b60e435906001600160a01b038216820361091f57565b60a090600319011261091f5760405190610952826108af565b816001600160a01b03600435818116810361091f578252602435818116810361091f576020830152604435818116810361091f576040830152606435908116810361091f5760608201526080608435910152565b9081602091031261091f5751801515810361091f5790565b919082018092116109cb57565b634e487b7160e01b5f52601160045260245ffd5b6040516080602082019260018060a01b0380825116855280602083015116604085015280604083015116606085015260608201511682840152015160a082015260a08152610a2c8161087f565b51902090565b818102929181159184041417156109cb57565b8115610a4f570490565b634e487b7160e01b5f52601260045260245ffd5b919082039182116109cb57565b610a79906109df565b5f818152602081815260408083206001600160a01b0390951683529381528382205492825260029052918220548015610acf57610ac690610701836040610acc9660016020522054610a32565b906109be565b90565b50509056fea2646970667358221220d8afcb58a9b0ebaa9d947a2f7ff423e8d3c3e73ff3ee1ddee2c086a50c77542d64736f6c63430008150033","linkReferences":{}},"methodIdentifiers":{"addYield((address,address,address,address,uint256),uint256)":"0f9ccd3d","addYield(address,uint256)":"7ecb8bcf","assetsOf((address,address,address,address,uint256),address)":"7143e057","deposits(bytes32,address)":"4f1c2c31","market(bytes32)":"5c60e39a","position(bytes32,address)":"93c52062","supply((address,address,address,address,uint256),uint256,uint256,address,bytes)":"a99aad89","totalSupplyAssets(bytes32)":"417737d6","totalSupplyShares(bytes32)":"0d2db074","withdraw((address,address,address,address,uint256),uint256,uint256,address,address)":"5c2bea49","yieldPool(bytes32)":"8147e2be"},"id":28}