{"abi":[{"type":"constructor","inputs":[{"name":"_fbk","type":"address","internalType":"address"},{"name":"_vault","type":"address","internalType":"address"},{"name":"_rewardRate","type":"uint256","internalType":"uint256"}],"stateMutability":"nonpayable"},{"type":"function","name":"claim","inputs":[],"outputs":[],"stateMutability":"nonpayable"},{"type":"function","name":"earned","inputs":[{"name":"user","type":"address","internalType":"address"}],"outputs":[{"name":"","type":"uint256","internalType":"uint256"}],"stateMutability":"view"},{"type":"function","name":"fbk","inputs":[],"outputs":[{"name":"","type":"address","internalType":"contract IFBKToken"}],"stateMutability":"view"},{"type":"function","name":"lastUpdateTime","inputs":[],"outputs":[{"name":"","type":"uint256","internalType":"uint256"}],"stateMutability":"view"},{"type":"function","name":"notifyDeposit","inputs":[{"name":"user","type":"address","internalType":"address"},{"name":"shares","type":"uint256","internalType":"uint256"}],"outputs":[],"stateMutability":"nonpayable"},{"type":"function","name":"notifyWithdraw","inputs":[{"name":"user","type":"address","internalType":"address"},{"name":"shares","type":"uint256","internalType":"uint256"}],"outputs":[],"stateMutability":"nonpayable"},{"type":"function","name":"owner","inputs":[],"outputs":[{"name":"","type":"address","internalType":"address"}],"stateMutability":"view"},{"type":"function","name":"pendingReward","inputs":[{"name":"","type":"address","internalType":"address"}],"outputs":[{"name":"","type":"uint256","internalType":"uint256"}],"stateMutability":"view"},{"type":"function","name":"remainingMintable","inputs":[],"outputs":[{"name":"","type":"uint256","internalType":"uint256"}],"stateMutability":"view"},{"type":"function","name":"rewardPerShare","inputs":[],"outputs":[{"name":"","type":"uint256","internalType":"uint256"}],"stateMutability":"view"},{"type":"function","name":"rewardPerShareStored","inputs":[],"outputs":[{"name":"","type":"uint256","internalType":"uint256"}],"stateMutability":"view"},{"type":"function","name":"rewardRate","inputs":[],"outputs":[{"name":"","type":"uint256","internalType":"uint256"}],"stateMutability":"view"},{"type":"function","name":"setRewardRate","inputs":[{"name":"newRate","type":"uint256","internalType":"uint256"}],"outputs":[],"stateMutability":"nonpayable"},{"type":"function","name":"totalDistributed","inputs":[],"outputs":[{"name":"","type":"uint256","internalType":"uint256"}],"stateMutability":"view"},{"type":"function","name":"totalShares","inputs":[],"outputs":[{"name":"","type":"uint256","internalType":"uint256"}],"stateMutability":"view"},{"type":"function","name":"transferOwnership","inputs":[{"name":"newOwner","type":"address","internalType":"address"}],"outputs":[],"stateMutability":"nonpayable"},{"type":"function","name":"userRewardPerSharePaid","inputs":[{"name":"","type":"address","internalType":"address"}],"outputs":[{"name":"","type":"uint256","internalType":"uint256"}],"stateMutability":"view"},{"type":"function","name":"userShares","inputs":[{"name":"","type":"address","internalType":"address"}],"outputs":[{"name":"","type":"uint256","internalType":"uint256"}],"stateMutability":"view"},{"type":"function","name":"vault","inputs":[],"outputs":[{"name":"","type":"address","internalType":"address"}],"stateMutability":"view"},{"type":"event","name":"Claimed","inputs":[{"name":"user","type":"address","indexed":true,"internalType":"address"},{"name":"amount","type":"uint256","indexed":false,"internalType":"uint256"}],"anonymous":false},{"type":"event","name":"RewardRateUpdated","inputs":[{"name":"oldRate","type":"uint256","indexed":false,"internalType":"uint256"},{"name":"newRate","type":"uint256","indexed":false,"internalType":"uint256"}],"anonymous":false},{"type":"event","name":"SharesUpdated","inputs":[{"name":"user","type":"address","indexed":true,"internalType":"address"},{"name":"userShares","type":"uint256","indexed":false,"internalType":"uint256"},{"name":"totalShares","type":"uint256","indexed":false,"internalType":"uint256"}],"anonymous":false},{"type":"error","name":"NotOwner","inputs":[]},{"type":"error","name":"NotVault","inputs":[]},{"type":"error","name":"NothingToClaim","inputs":[]},{"type":"error","name":"ZeroAddress","inputs":[]}],"bytecode":{"object":"0x60c060405234801561000f575f80fd5b50604051610bc0380380610bc083398101604081905261002e916100c7565b6001600160a01b0383166100555760405163d92e233d60e01b815260040160405180910390fd5b6001600160a01b03821661007c5760405163d92e233d60e01b815260040160405180910390fd5b6001600160a01b03928316608052911660a0525f80546001600160a01b0319163317905560015542600355610100565b80516001600160a01b03811681146100c2575f80fd5b919050565b5f805f606084860312156100d9575f80fd5b6100e2846100ac565b92506100f0602085016100ac565b9150604084015190509250925092565b60805160a051610a7c6101445f395f818161028b015281816104f501526106f301525f8181610202015281816104520152818161083801526108b80152610a7c5ff3fe608060405234801561000f575f80fd5b506004361061011b575f3560e01c80639e447fc6116100a9578063efca2eed1161006e578063efca2eed14610243578063f2fde38b1461024c578063f40f0f521461025f578063f76e95e51461027e578063fbfa77cf14610286575f80fd5b80639e447fc6146101ce578063ab53bddc146101e1578063c8f33c91146101f4578063de53befc146101fd578063de69b3aa14610224575f80fd5b80634e71d92d116100ef5780634e71d92d1461015f5780637b0a47ee14610169578063818ae1ce146101725780638600e40b146101915780638da5cb5b146101a4575f80fd5b80628cc2621461011f5780630ab747f0146101455780633a98ef391461014e578063446a2ec814610157575b5f80fd5b61013261012d366004610960565b6102ad565b6040519081526020015b60405180910390f35b61013260025481565b61013260045481565b610132610328565b61016761038b565b005b61013260015481565b610132610180366004610960565b60076020525f908152604090205481565b61016761019f366004610980565b6104ea565b5f546101b6906001600160a01b031681565b6040516001600160a01b03909116815260200161013c565b6101676101dc3660046109a8565b610629565b6101676101ef366004610980565b6106e8565b61013260035481565b6101b67f000000000000000000000000000000000000000000000000000000000000000081565b610132610232366004610960565b60066020525f908152604090205481565b61013260055481565b61016761025a366004610960565b6107c3565b61013261026d366004610960565b60086020525f908152604090205481565b610132610835565b6101b67f000000000000000000000000000000000000000000000000000000000000000081565b6001600160a01b0381165f908152600860209081526040808320546007909252822054670de0b6b3a7640000906102e2610328565b6102ec91906109d3565b6001600160a01b0385165f9081526006602052604090205461030e91906109e6565b61031891906109fd565b6103229190610a1c565b92915050565b5f6004545f03610339575060025490565b5f6003544261034891906109d3565b9050600454670de0b6b3a76400006001548361036491906109e6565b61036e91906109e6565b61037891906109fd565b6002546103859190610a1c565b91505090565b33610394610328565b600255426003556001600160a01b038116156103de576103b3816102ad565b6001600160a01b0382165f908152600860209081526040808320939093556002546007909152919020555b335f908152600860205260408120549081900361040e576040516312d37ee560e31b815260040160405180910390fd5b335f90815260086020526040812081905560058054839290610431908490610a1c565b90915550506040516340c10f1960e01b8152336004820152602481018290527f00000000000000000000000000000000000000000000000000000000000000006001600160a01b0316906340c10f19906044015f604051808303815f87803b15801561049b575f80fd5b505af11580156104ad573d5f803e3d5ffd5b50506040518381523392507fd8138f8a3f377c5259ca548e70e4c2de94f129f5a11036a15b69513cba2b426a915060200160405180910390a25050565b336001600160a01b037f00000000000000000000000000000000000000000000000000000000000000001614610533576040516362df054560e01b815260040160405180910390fd5b8161053c610328565b600255426003556001600160a01b038116156105865761055b816102ad565b6001600160a01b0382165f908152600860209081526040808320939093556002546007909152919020555b6001600160a01b0383165f90815260066020526040812080548492906105ad9084906109d3565b925050819055508160045f8282546105c591906109d3565b90915550506001600160a01b0383165f81815260066020526040908190205460045491517fca7b0799c2d5d6426b3acee9b38a5097d47bf400d836961c2d90472a85ab35fe9261061c928252602082015260400190565b60405180910390a2505050565b5f546001600160a01b03163314610653576040516330cd747160e01b815260040160405180910390fd5b5f61065c610328565b600255426003556001600160a01b038116156106a65761067b816102ad565b6001600160a01b0382165f908152600860209081526040808320939093556002546007909152919020555b60015460408051918252602082018490527fc390a98ace15a7bb6bab611eedfdbb2685043b241a869420043cdfb23ccfee50910160405180910390a150600155565b336001600160a01b037f00000000000000000000000000000000000000000000000000000000000000001614610731576040516362df054560e01b815260040160405180910390fd5b8161073a610328565b600255426003556001600160a01b0381161561078457610759816102ad565b6001600160a01b0382165f908152600860209081526040808320939093556002546007909152919020555b6001600160a01b0383165f90815260066020526040812080548492906107ab908490610a1c565b925050819055508160045f8282546105c59190610a1c565b5f546001600160a01b031633146107ed576040516330cd747160e01b815260040160405180910390fd5b6001600160a01b0381166108145760405163d92e233d60e01b815260040160405180910390fd5b5f80546001600160a01b0319166001600160a01b0392909216919091179055565b5f7f00000000000000000000000000000000000000000000000000000000000000006001600160a01b03166318160ddd6040518163ffffffff1660e01b8152600401602060405180830381865afa158015610892573d5f803e3d5ffd5b505050506040513d601f19601f820116820180604052508101906108b69190610a2f565b7f00000000000000000000000000000000000000000000000000000000000000006001600160a01b03166332cb6b0c6040518163ffffffff1660e01b8152600401602060405180830381865afa158015610912573d5f803e3d5ffd5b505050506040513d601f19601f820116820180604052508101906109369190610a2f565b61094091906109d3565b905090565b80356001600160a01b038116811461095b575f80fd5b919050565b5f60208284031215610970575f80fd5b61097982610945565b9392505050565b5f8060408385031215610991575f80fd5b61099a83610945565b946020939093013593505050565b5f602082840312156109b8575f80fd5b5035919050565b634e487b7160e01b5f52601160045260245ffd5b81810381811115610322576103226109bf565b8082028115828204841417610322576103226109bf565b5f82610a1757634e487b7160e01b5f52601260045260245ffd5b500490565b80820180821115610322576103226109bf565b5f60208284031215610a3f575f80fd5b505191905056fea26469706673582212201b81efce0423ef3580c1a7e98de21afec0545e261e4c806bd46ec5006b588cb964736f6c63430008150033","linkReferences":{}},"methodIdentifiers":{"claim()":"4e71d92d","earned(address)":"008cc262","fbk()":"de53befc","lastUpdateTime()":"c8f33c91","notifyDeposit(address,uint256)":"ab53bddc","notifyWithdraw(address,uint256)":"8600e40b","owner()":"8da5cb5b","pendingReward(address)":"f40f0f52","remainingMintable()":"f76e95e5","rewardPerShare()":"446a2ec8","rewardPerShareStored()":"0ab747f0","rewardRate()":"7b0a47ee","setRewardRate(uint256)":"9e447fc6","totalDistributed()":"efca2eed","totalShares()":"3a98ef39","transferOwnership(address)":"f2fde38b","userRewardPerSharePaid(address)":"818ae1ce","userShares(address)":"de69b3aa","vault()":"fbfa77cf"},"id":20}