{"abi":[{"type":"constructor","inputs":[{"name":"_fbk","type":"address","internalType":"address"},{"name":"_vault","type":"address","internalType":"address"},{"name":"_rewardRate","type":"uint256","internalType":"uint256"}],"stateMutability":"nonpayable"},{"type":"function","name":"MAX_REWARD_RATE","inputs":[],"outputs":[{"name":"","type":"uint256","internalType":"uint256"}],"stateMutability":"view"},{"type":"function","name":"claim","inputs":[],"outputs":[],"stateMutability":"nonpayable"},{"type":"function","name":"earned","inputs":[{"name":"user","type":"address","internalType":"address"}],"outputs":[{"name":"","type":"uint256","internalType":"uint256"}],"stateMutability":"view"},{"type":"function","name":"fbk","inputs":[],"outputs":[{"name":"","type":"address","internalType":"contract IFBKToken"}],"stateMutability":"view"},{"type":"function","name":"lastUpdateTime","inputs":[],"outputs":[{"name":"","type":"uint256","internalType":"uint256"}],"stateMutability":"view"},{"type":"function","name":"notifyDeposit","inputs":[{"name":"user","type":"address","internalType":"address"},{"name":"shares","type":"uint256","internalType":"uint256"}],"outputs":[],"stateMutability":"nonpayable"},{"type":"function","name":"notifyWithdraw","inputs":[{"name":"user","type":"address","internalType":"address"},{"name":"shares","type":"uint256","internalType":"uint256"}],"outputs":[],"stateMutability":"nonpayable"},{"type":"function","name":"owner","inputs":[],"outputs":[{"name":"","type":"address","internalType":"address"}],"stateMutability":"view"},{"type":"function","name":"pendingReward","inputs":[{"name":"","type":"address","internalType":"address"}],"outputs":[{"name":"","type":"uint256","internalType":"uint256"}],"stateMutability":"view"},{"type":"function","name":"remainingMintable","inputs":[],"outputs":[{"name":"","type":"uint256","internalType":"uint256"}],"stateMutability":"view"},{"type":"function","name":"rewardPerShare","inputs":[],"outputs":[{"name":"","type":"uint256","internalType":"uint256"}],"stateMutability":"view"},{"type":"function","name":"rewardPerShareStored","inputs":[],"outputs":[{"name":"","type":"uint256","internalType":"uint256"}],"stateMutability":"view"},{"type":"function","name":"rewardRate","inputs":[],"outputs":[{"name":"","type":"uint256","internalType":"uint256"}],"stateMutability":"view"},{"type":"function","name":"setRewardRate","inputs":[{"name":"newRate","type":"uint256","internalType":"uint256"}],"outputs":[],"stateMutability":"nonpayable"},{"type":"function","name":"totalDistributed","inputs":[],"outputs":[{"name":"","type":"uint256","internalType":"uint256"}],"stateMutability":"view"},{"type":"function","name":"totalShares","inputs":[],"outputs":[{"name":"","type":"uint256","internalType":"uint256"}],"stateMutability":"view"},{"type":"function","name":"transferOwnership","inputs":[{"name":"newOwner","type":"address","internalType":"address"}],"outputs":[],"stateMutability":"nonpayable"},{"type":"function","name":"userRewardPerSharePaid","inputs":[{"name":"","type":"address","internalType":"address"}],"outputs":[{"name":"","type":"uint256","internalType":"uint256"}],"stateMutability":"view"},{"type":"function","name":"userShares","inputs":[{"name":"","type":"address","internalType":"address"}],"outputs":[{"name":"","type":"uint256","internalType":"uint256"}],"stateMutability":"view"},{"type":"function","name":"vault","inputs":[],"outputs":[{"name":"","type":"address","internalType":"address"}],"stateMutability":"view"},{"type":"event","name":"Claimed","inputs":[{"name":"user","type":"address","indexed":true,"internalType":"address"},{"name":"amount","type":"uint256","indexed":false,"internalType":"uint256"}],"anonymous":false},{"type":"event","name":"OwnershipTransferred","inputs":[{"name":"oldOwner","type":"address","indexed":true,"internalType":"address"},{"name":"newOwner","type":"address","indexed":true,"internalType":"address"}],"anonymous":false},{"type":"event","name":"RewardRateUpdated","inputs":[{"name":"oldRate","type":"uint256","indexed":false,"internalType":"uint256"},{"name":"newRate","type":"uint256","indexed":false,"internalType":"uint256"}],"anonymous":false},{"type":"event","name":"SharesUpdated","inputs":[{"name":"user","type":"address","indexed":true,"internalType":"address"},{"name":"userShares","type":"uint256","indexed":false,"internalType":"uint256"},{"name":"totalShares","type":"uint256","indexed":false,"internalType":"uint256"}],"anonymous":false},{"type":"error","name":"NotOwner","inputs":[]},{"type":"error","name":"NotVault","inputs":[]},{"type":"error","name":"NothingToClaim","inputs":[]},{"type":"error","name":"RewardRateTooHigh","inputs":[{"name":"rate","type":"uint256","internalType":"uint256"},{"name":"max","type":"uint256","internalType":"uint256"}]},{"type":"error","name":"ZeroAddress","inputs":[]}],"bytecode":{"object":"0x60c0346100e057601f610bb238819003918201601f19168301916001600160401b038311848410176100e4578084926060946040528339810103126100e057610047816100f8565b906040610056602083016100f8565b910151916001600160a01b039081169081156100ce578216156100ce5760805260a0525f80546001600160a01b0319163317905560015542600355604051610aa5908161010d82396080518181816101650152818161038901526107ba015260a05181818161010e0152818161040001526105d90152f35b60405163d92e233d60e01b8152600490fd5b5f80fd5b634e487b7160e01b5f52604160045260245ffd5b51906001600160a01b03821682036100e05756fe60406080815260049081361015610014575f80fd5b5f91823560e01c9081628cc2621461090c5781630ab747f0146108ed5781633a98ef39146108cf578163446a2ec8146108b25781634e71d92d1461075f578163718dc3c31461073b5781637b0a47ee1461071c578163818ae1ce146106e45781638600e40b146105ae5781638da5cb5b146105865781639e447fc6146104dc578163ab53bddc146103d7578163c8f33c91146103b8578163de53befc14610374578163de69b3aa1461033c578163efca2eed1461031d578163f2fde38b1461028e578163f40f0f5214610256578163f76e95e514610141575063fbfa77cf146100fb575f80fd5b3461013d578160031936011261013d57517f00000000000000000000000000000000000000000000000000000000000000006001600160a01b03168152602090f35b5080fd5b9050346102525782600319360112610252578151630cb2dac360e21b8152602093907f00000000000000000000000000000000000000000000000000000000000000006001600160a01b031685828581845afa918215610248579086918493610217575b5085516318160ddd60e01b815294859182905afa91821561020c57916101d7575b6101d09250610948565b9051908152f35b90508382813d8311610205575b6101ee8183610a39565b81010312610201576101d09151906101c6565b5f80fd5b503d6101e4565b8451903d90823e3d90fd5b8281939294503d8311610241575b61022f8183610a39565b8101031261020157859051915f6101a5565b503d610225565b85513d85823e3d90fd5b8280fd5b50503461013d57602036600319011261013d5760209181906001600160a01b0361027e610932565b1681526008845220549051908152f35b905034610252576020366003190112610252576102a9610932565b8354916001600160a01b03808416923384900361030d571693841561030057505082907f8be0079c531659141344cd1fd0a4f28419497f9722a3daafe3b4186f6b6457e08580a36001600160a01b03191617815580f35b5163d92e233d60e01b8152fd5b85516330cd747160e01b81528390fd5b50503461013d578160031936011261013d576020906005549051908152f35b50503461013d57602036600319011261013d5760209181906001600160a01b03610364610932565b1681526006845220549051908152f35b50503461013d578160031936011261013d57517f00000000000000000000000000000000000000000000000000000000000000006001600160a01b03168152602090f35b50503461013d578160031936011261013d576020906003549051908152f35b919050346102525780600319360112610252576103f2610932565b916024356001600160a01b037f0000000000000000000000000000000000000000000000000000000000000000811633036104cc577fca7b0799c2d5d6426b3acee9b38a5097d47bf400d836961c2d90472a85ab35fe93929161048791610457610989565b60025542600355861695866104a5575b50858752600660205283872061047e82825461097c565b9055825461097c565b8091558385526006602052818520549082519182526020820152a280f35b6104ae906109de565b8688526008602052848820556002546007602052848820555f610467565b83516362df054560e01b81528390fd5b91905034610252576020366003190112610252578254823592906001600160a01b031633036105785761050d610989565b600255426003556808f1d5c1cae374000080841161055e5750507fc390a98ace15a7bb6bab611eedfdbb2685043b241a869420043cdfb23ccfee50906001548151908152836020820152a160015580f35b8360449351926311a98bfd60e31b84528301526024820152fd5b90516330cd747160e01b8152fd5b50503461013d578160031936011261013d57905490516001600160a01b039091168152602090f35b83833461013d578060031936011261013d576105c8610932565b6001600160a01b03939091906024357f0000000000000000000000000000000000000000000000000000000000000000861633036106d5577fca7b0799c2d5d6426b3acee9b38a5097d47bf400d836961c2d90472a85ab35fe93949561062c610989565b60025542600355851694856106ae575b5084865260066020528286205490818111156106a3575061065d8180610948565b858752600660205283872055815490808211156106995761048791610948565b558385526006602052818520549082519182526020820152a280f35b505084809161067d565b61065d908092610948565b6106b7906109de565b8587526008602052838720556002546007602052838720558661063c565b5090516362df054560e01b8152fd5b50503461013d57602036600319011261013d5760209181906001600160a01b0361070c610932565b1681526007845220549051908152f35b50503461013d578160031936011261013d576020906001549051908152f35b50503461013d578160031936011261013d57602090516808f1d5c1cae37400008152f35b9190503461025257826003193601126102525761077a610989565b600255426003553361088c575b33835260086020528083205491821561087e578390338252600860205281838120556107b58460055461097c565b6005557f00000000000000000000000000000000000000000000000000000000000000006001600160a01b0316803b1561025257829060448551809581936340c10f1960e01b835233878401528960248401525af1801561087457610844575b5050519081527fd8138f8a3f377c5259ca548e70e4c2de94f129f5a11036a15b69513cba2b426a60203392a280f35b67ffffffffffffffff829593951161086157508352915f80610815565b634e487b7160e01b835260419052602482fd5b83513d87823e3d90fd5b90516312d37ee560e31b8152fd5b610895336109de565b338452600860205281842055600254600760205281842055610787565b50503461013d578160031936011261013d576020906101d0610989565b90503461025257826003193601126102525760209250549051908152f35b50503461013d578160031936011261013d576020906002549051908152f35b50503461013d57602036600319011261013d576020906101d061092d610932565b6109de565b600435906001600160a01b038216820361020157565b9190820391821161095557565b634e487b7160e01b5f52601160045260245ffd5b8181029291811591840414171561095557565b9190820180921161095557565b60045480156109d75761099e60035442610948565b6109ae6002549160015490610969565b91670de0b6b3a764000092838102938185041490151715610955576109d492049061097c565b90565b5060025490565b6109d49060018060a01b031660405f8281526006602052670de0b6b3a7640000610a2883832054610a22610a10610989565b87865260076020528686205490610948565b90610969565b04928152600860205220549061097c565b90601f8019910116810190811067ffffffffffffffff821117610a5b57604052565b634e487b7160e01b5f52604160045260245ffdfea26469706673582212201b0f4822c0aa8449afd78b09965fd6b60acf45f8c888ec129e6a8f6d6096f04964736f6c63430008150033","linkReferences":{}},"methodIdentifiers":{"MAX_REWARD_RATE()":"718dc3c3","claim()":"4e71d92d","earned(address)":"008cc262","fbk()":"de53befc","lastUpdateTime()":"c8f33c91","notifyDeposit(address,uint256)":"ab53bddc","notifyWithdraw(address,uint256)":"8600e40b","owner()":"8da5cb5b","pendingReward(address)":"f40f0f52","remainingMintable()":"f76e95e5","rewardPerShare()":"446a2ec8","rewardPerShareStored()":"0ab747f0","rewardRate()":"7b0a47ee","setRewardRate(uint256)":"9e447fc6","totalDistributed()":"efca2eed","totalShares()":"3a98ef39","transferOwnership(address)":"f2fde38b","userRewardPerSharePaid(address)":"818ae1ce","userShares(address)":"de69b3aa","vault()":"fbfa77cf"},"id":20}