{"abi":[{"type":"constructor","inputs":[{"name":"_asset","type":"address","internalType":"address"},{"name":"_morpho","type":"address","internalType":"address"},{"name":"_market","type":"tuple","internalType":"struct MarketParams","components":[{"name":"loanToken","type":"address","internalType":"address"},{"name":"collateralToken","type":"address","internalType":"address"},{"name":"oracle","type":"address","internalType":"address"},{"name":"irm","type":"address","internalType":"address"},{"name":"lltv","type":"uint256","internalType":"uint256"}]},{"name":"_checker","type":"address","internalType":"address"},{"name":"_treasury","type":"address","internalType":"address"},{"name":"_feeBps","type":"uint256","internalType":"uint256"}],"stateMutability":"nonpayable"},{"type":"function","name":"BPS_BASE","inputs":[],"outputs":[{"name":"","type":"uint256","internalType":"uint256"}],"stateMutability":"view"},{"type":"function","name":"MAX_FEE_BPS","inputs":[],"outputs":[{"name":"","type":"uint256","internalType":"uint256"}],"stateMutability":"view"},{"type":"function","name":"WAD","inputs":[],"outputs":[{"name":"","type":"uint256","internalType":"uint256"}],"stateMutability":"view"},{"type":"function","name":"allowance","inputs":[{"name":"","type":"address","internalType":"address"},{"name":"","type":"address","internalType":"address"}],"outputs":[{"name":"","type":"uint256","internalType":"uint256"}],"stateMutability":"view"},{"type":"function","name":"approve","inputs":[{"name":"spender","type":"address","internalType":"address"},{"name":"amount","type":"uint256","internalType":"uint256"}],"outputs":[{"name":"","type":"bool","internalType":"bool"}],"stateMutability":"nonpayable"},{"type":"function","name":"asset","inputs":[],"outputs":[{"name":"","type":"address","internalType":"contract IERC20"}],"stateMutability":"view"},{"type":"function","name":"assetAddress","inputs":[],"outputs":[{"name":"","type":"address","internalType":"address"}],"stateMutability":"view"},{"type":"function","name":"balanceOf","inputs":[{"name":"","type":"address","internalType":"address"}],"outputs":[{"name":"","type":"uint256","internalType":"uint256"}],"stateMutability":"view"},{"type":"function","name":"convertToAssets","inputs":[{"name":"shares","type":"uint256","internalType":"uint256"}],"outputs":[{"name":"","type":"uint256","internalType":"uint256"}],"stateMutability":"view"},{"type":"function","name":"convertToShares","inputs":[{"name":"assets","type":"uint256","internalType":"uint256"}],"outputs":[{"name":"","type":"uint256","internalType":"uint256"}],"stateMutability":"view"},{"type":"function","name":"decimals","inputs":[],"outputs":[{"name":"","type":"uint8","internalType":"uint8"}],"stateMutability":"view"},{"type":"function","name":"deposit","inputs":[{"name":"assets","type":"uint256","internalType":"uint256"},{"name":"receiver","type":"address","internalType":"address"}],"outputs":[{"name":"shares","type":"uint256","internalType":"uint256"}],"stateMutability":"nonpayable"},{"type":"function","name":"distributor","inputs":[],"outputs":[{"name":"","type":"address","internalType":"address"}],"stateMutability":"view"},{"type":"function","name":"easChecker","inputs":[],"outputs":[{"name":"","type":"address","internalType":"contract EASChecker"}],"stateMutability":"view"},{"type":"function","name":"feeBps","inputs":[],"outputs":[{"name":"","type":"uint256","internalType":"uint256"}],"stateMutability":"view"},{"type":"function","name":"lastTotalAssets","inputs":[],"outputs":[{"name":"","type":"uint256","internalType":"uint256"}],"stateMutability":"view"},{"type":"function","name":"marketParams","inputs":[],"outputs":[{"name":"loanToken","type":"address","internalType":"address"},{"name":"collateralToken","type":"address","internalType":"address"},{"name":"oracle","type":"address","internalType":"address"},{"name":"irm","type":"address","internalType":"address"},{"name":"lltv","type":"uint256","internalType":"uint256"}],"stateMutability":"view"},{"type":"function","name":"maxDeposit","inputs":[{"name":"user","type":"address","internalType":"address"}],"outputs":[{"name":"","type":"uint256","internalType":"uint256"}],"stateMutability":"view"},{"type":"function","name":"maxWithdraw","inputs":[{"name":"user","type":"address","internalType":"address"}],"outputs":[{"name":"","type":"uint256","internalType":"uint256"}],"stateMutability":"view"},{"type":"function","name":"migrateMarket","inputs":[{"name":"newMarket","type":"tuple","internalType":"struct MarketParams","components":[{"name":"loanToken","type":"address","internalType":"address"},{"name":"collateralToken","type":"address","internalType":"address"},{"name":"oracle","type":"address","internalType":"address"},{"name":"irm","type":"address","internalType":"address"},{"name":"lltv","type":"uint256","internalType":"uint256"}]}],"outputs":[],"stateMutability":"nonpayable"},{"type":"function","name":"morpho","inputs":[],"outputs":[{"name":"","type":"address","internalType":"contract IMorpho"}],"stateMutability":"view"},{"type":"function","name":"name","inputs":[],"outputs":[{"name":"","type":"string","internalType":"string"}],"stateMutability":"view"},{"type":"function","name":"owner","inputs":[],"outputs":[{"name":"","type":"address","internalType":"address"}],"stateMutability":"view"},{"type":"function","name":"previewDeposit","inputs":[{"name":"assets","type":"uint256","internalType":"uint256"}],"outputs":[{"name":"","type":"uint256","internalType":"uint256"}],"stateMutability":"view"},{"type":"function","name":"previewRedeem","inputs":[{"name":"shares","type":"uint256","internalType":"uint256"}],"outputs":[{"name":"","type":"uint256","internalType":"uint256"}],"stateMutability":"view"},{"type":"function","name":"redeem","inputs":[{"name":"shares","type":"uint256","internalType":"uint256"},{"name":"receiver","type":"address","internalType":"address"},{"name":"owner_","type":"address","internalType":"address"}],"outputs":[{"name":"assets","type":"uint256","internalType":"uint256"}],"stateMutability":"nonpayable"},{"type":"function","name":"setDistributor","inputs":[{"name":"newDistributor","type":"address","internalType":"address"}],"outputs":[],"stateMutability":"nonpayable"},{"type":"function","name":"setFee","inputs":[{"name":"newFeeBps","type":"uint256","internalType":"uint256"}],"outputs":[],"stateMutability":"nonpayable"},{"type":"function","name":"setTreasury","inputs":[{"name":"newTreasury","type":"address","internalType":"address"}],"outputs":[],"stateMutability":"nonpayable"},{"type":"function","name":"symbol","inputs":[],"outputs":[{"name":"","type":"string","internalType":"string"}],"stateMutability":"view"},{"type":"function","name":"totalAssets","inputs":[],"outputs":[{"name":"","type":"uint256","internalType":"uint256"}],"stateMutability":"view"},{"type":"function","name":"totalSupply","inputs":[],"outputs":[{"name":"","type":"uint256","internalType":"uint256"}],"stateMutability":"view"},{"type":"function","name":"transfer","inputs":[{"name":"to","type":"address","internalType":"address"},{"name":"amount","type":"uint256","internalType":"uint256"}],"outputs":[{"name":"","type":"bool","internalType":"bool"}],"stateMutability":"nonpayable"},{"type":"function","name":"transferFrom","inputs":[{"name":"from","type":"address","internalType":"address"},{"name":"to","type":"address","internalType":"address"},{"name":"amount","type":"uint256","internalType":"uint256"}],"outputs":[{"name":"","type":"bool","internalType":"bool"}],"stateMutability":"nonpayable"},{"type":"function","name":"transferOwnership","inputs":[{"name":"newOwner","type":"address","internalType":"address"}],"outputs":[],"stateMutability":"nonpayable"},{"type":"function","name":"treasury","inputs":[],"outputs":[{"name":"","type":"address","internalType":"address"}],"stateMutability":"view"},{"type":"event","name":"Approval","inputs":[{"name":"owner","type":"address","indexed":true,"internalType":"address"},{"name":"spender","type":"address","indexed":true,"internalType":"address"},{"name":"value","type":"uint256","indexed":false,"internalType":"uint256"}],"anonymous":false},{"type":"event","name":"Deposit","inputs":[{"name":"caller","type":"address","indexed":true,"internalType":"address"},{"name":"owner","type":"address","indexed":true,"internalType":"address"},{"name":"assets","type":"uint256","indexed":false,"internalType":"uint256"},{"name":"shares","type":"uint256","indexed":false,"internalType":"uint256"}],"anonymous":false},{"type":"event","name":"DistributorUpdated","inputs":[{"name":"oldDistributor","type":"address","indexed":true,"internalType":"address"},{"name":"newDistributor","type":"address","indexed":true,"internalType":"address"}],"anonymous":false},{"type":"event","name":"FeeUpdated","inputs":[{"name":"oldFeeBps","type":"uint256","indexed":false,"internalType":"uint256"},{"name":"newFeeBps","type":"uint256","indexed":false,"internalType":"uint256"}],"anonymous":false},{"type":"event","name":"FeesAccrued","inputs":[{"name":"yieldGenerated","type":"uint256","indexed":false,"internalType":"uint256"},{"name":"feeAssets","type":"uint256","indexed":false,"internalType":"uint256"},{"name":"feeShares","type":"uint256","indexed":false,"internalType":"uint256"}],"anonymous":false},{"type":"event","name":"MarketUpdated","inputs":[{"name":"oldMarketId","type":"bytes32","indexed":false,"internalType":"bytes32"},{"name":"newMarketId","type":"bytes32","indexed":false,"internalType":"bytes32"}],"anonymous":false},{"type":"event","name":"OwnershipTransferred","inputs":[{"name":"oldOwner","type":"address","indexed":true,"internalType":"address"},{"name":"newOwner","type":"address","indexed":true,"internalType":"address"}],"anonymous":false},{"type":"event","name":"Transfer","inputs":[{"name":"from","type":"address","indexed":true,"internalType":"address"},{"name":"to","type":"address","indexed":true,"internalType":"address"},{"name":"value","type":"uint256","indexed":false,"internalType":"uint256"}],"anonymous":false},{"type":"event","name":"TreasuryUpdated","inputs":[{"name":"oldTreasury","type":"address","indexed":false,"internalType":"address"},{"name":"newTreasury","type":"address","indexed":false,"internalType":"address"}],"anonymous":false},{"type":"event","name":"Withdraw","inputs":[{"name":"caller","type":"address","indexed":true,"internalType":"address"},{"name":"receiver","type":"address","indexed":true,"internalType":"address"},{"name":"owner","type":"address","indexed":true,"internalType":"address"},{"name":"assets","type":"uint256","indexed":false,"internalType":"uint256"},{"name":"shares","type":"uint256","indexed":false,"internalType":"uint256"}],"anonymous":false},{"type":"error","name":"ExceedsBalance","inputs":[{"name":"requested","type":"uint256","internalType":"uint256"},{"name":"available","type":"uint256","internalType":"uint256"}]},{"type":"error","name":"FeeTooHigh","inputs":[{"name":"feeBps","type":"uint256","internalType":"uint256"},{"name":"maxFeeBps","type":"uint256","internalType":"uint256"}]},{"type":"error","name":"NotAuthorized","inputs":[{"name":"user","type":"address","internalType":"address"}]},{"type":"error","name":"NotOwner","inputs":[]},{"type":"error","name":"Reentrancy","inputs":[]},{"type":"error","name":"ZeroAddress","inputs":[]},{"type":"error","name":"ZeroAmount","inputs":[]},{"type":"error","name":"ZeroAssets","inputs":[]},{"type":"error","name":"ZeroShares","inputs":[]}],"bytecode":{"object":"0x60e060409080825234620003ac57806200239a8038038091620000238285620003b0565b8339810103906101408212620003ac576200003e81620003d4565b9060a06200004f60208301620003d4565b93603f190112620003ac57835160a081016001600160401b038111828210176200039857855262000082858301620003d4565b81526200009260608301620003d4565b6020820152620000a560808301620003d4565b85820152620000b760a08301620003d4565b606082015260c08201516080820152620000d460e08301620003d4565b91610120620000e76101008301620003d4565b910151905f95620000f98754620003e9565b601f81116200036b575b507f46696e42616e6b2045555243205661756c7400000000000000000000000000248755600180546200013690620003e9565b601f81116200033c575b50600c6566624555524360d01b0181556002805460ff19166006179055601055610bb8831162000306576001600160a01b03958616608081815291871660a08190528551600680546001600160a01b0319908116928b16929092179055602080880151600780548416918c169190911790558b880151600880548416918c169190911790556060880151600980548416918c169190911790559390960151600a5595871660c052600c805486169790931696909617909155600d91909155600b80549092163317909155845163095ea7b360e01b815260048101929092525f19602483015290918290604490829086905af18015620002fc57620002b6575b8251611f7590816200042582396080518181816104f8015281816108ef01528181610f2c015281816112ea01526116fd015260a05181818161036b015281816105f1015281816106ef0152818161087d01528181610fc20152611b82015260c051818181610d2101528181610eb701526118470152f35b6020813d602011620002f3575b81620002d260209383620003b0565b81010312620002ef575180151503620002ec57806200023f565b80fd5b5080fd5b3d9150620002c3565b83513d84823e3d90fd5b875162461bcd60e51b815260206004820152600f60248201526e08ccaca40caf0c6cacac8e640dac2f608b1b6044820152606490fd5b81895281601f60208b20920160051c8201915b8281106200035f57505062000140565b8a81550182906200034f565b878052601f60208920910160051c8101905b8181106200038c575062000103565b8881556001016200037d565b634e487b7160e01b5f52604160045260245ffd5b5f80fd5b601f909101601f19168101906001600160401b038211908210176200039857604052565b51906001600160a01b0382168203620003ac57565b90600182811c9216801562000419575b60208310146200040557565b634e487b7160e01b5f52602260045260245ffd5b91607f1691620003f956fe60406080815260049081361015610014575f80fd5b5f91823560e01c806301e1d114146115b557806306fdde03146114f957806307a2d13a1461128f578063095ea7b31461148857806318160ddd146114695780631ba46cfd146112d557806323b872dd1461135a57806324a9d8531461133b578063313ce5671461131957806338d52e0f146112d5578063402d267d146112af5780634cdad5061461128f578063568efc071461127057806361d027b31461124757806369fe0e2d146111a05780636a1460241461117d5780636e553f6514610e5457806370a0823114610e1f57806375619ab514610d9f5780637b9e68f214610d5057806388cf2fd614610d0c5780638da5cb5b14610ce357806395d89b4114610be45780639eaa1b0914610bc7578063a9059cbb14610b01578063ba08765214610786578063bfe109281461075d578063c6e6f592146102db578063c8b41e32146103ef578063ce96cb77146103b7578063d55be8c61461039a578063d8fbc83314610356578063dd62ed3e14610305578063ef8b30f7146102db578063f0f442601461023d5763f2fde38b146101aa575f80fd5b34610239576020366003190112610239576101c361167f565b600b54916001600160a01b038084169233849003610229571693841561021c57505082907f8be0079c531659141344cd1fd0a4f28419497f9722a3daafe3b4186f6b6457e08580a36001600160a01b03191617600b5580f35b5163d92e233d60e01b8152fd5b85516330cd747160e01b81528390fd5b8280fd5b5090346102395760203660031901126102395761025861167f565b600b546001600160a01b03929190831633036102cb5782169283156102bd57507f4ab5be82436d353e61ca18726e984e561f5c1cc7c6d38b29d2553c790434705a90600c549281519084168152846020820152a16001600160a01b03191617600c5580f35b905163d92e233d60e01b8152fd5b81516330cd747160e01b81528490fd5b50913461030257602036600319011261030257506102fb602092356117ba565b9051908152f35b80fd5b50503461035257806003193601126103525760209161032261167f565b8261032b611695565b6001600160a01b03928316845260058652922091165f908152908352819020549051908152f35b5080fd5b505034610352578160031936011261035257517f00000000000000000000000000000000000000000000000000000000000000006001600160a01b03168152602090f35b50503461035257816003193601126103525760209051610bb88152f35b5034610239576020366003190112610239576020926102fb918391906001600160a01b036103e361167f565b168252855220546117e2565b5090346102395760a03660031901126102395780519161040e836115fa565b61041661167f565b8352610420611695565b6020908185019081526104316116ab565b858501908152926001600160a01b03916064359083821682036106b157606088019182526080880191608435835284600b5416330361074d578490610474611923565b8861047e30611b6c565b806106c6575b5050816104976104926119e3565b611eb4565b9881808d5116956bffffffffffffffffffffffff60a01b9687600654161760065551168560075416176007555116836008541617600855511690600954161760095551600a55868551926370a0823160e01b845230838501528484602481847f0000000000000000000000000000000000000000000000000000000000000000165afa9384156106bc578294610685575b5083610575575b505050506105687f2f6904794a496a495d0b5a0a34ad81e2959f12314038813a56388c47424d8be0946105606116e2565b600e55611eb4565b908351928352820152a180f35b86926105ce92610144928551968795869463a99aad8960e01b865285018d6080809160018060a01b0380825116855280602083015116602086015280604083015116604086015260608201511660608501520151910152565b60a48401528160c48401523060e4840152610120610104840152816101248401527f0000000000000000000000000000000000000000000000000000000000000000165af1801561067b5794610568917f2f6904794a496a495d0b5a0a34ad81e2959f12314038813a56388c47424d8be09661064f575b819688915061052f565b61066e90863d8811610674575b6106668183611616565b8101906118a4565b50610645565b503d61065c565b84513d88823e3d90fd5b85809295508193503d83116106b5575b61069f8183611616565b810103126106b157879051925f610528565b5f80fd5b503d610695565b87513d84823e3d90fd5b6106ea9293508c82518080958194635c2bea4960e01b8352309030908d85016118c7565b03918a7f0000000000000000000000000000000000000000000000000000000000000000165af180156107435790869291610727575b8990610484565b61073d908a3d8c11610674576106668183611616565b50610720565b89513d8d823e3d90fd5b87516330cd747160e01b81528490fd5b505034610352578160031936011261035257600f5490516001600160a01b039091168152602090f35b50919034610352576060366003190112610352578235916107a5611695565b906107ae6116ab565b93600160105403610af15760026010558015610ae1576001600160a01b0383811692908315610ad15780871694858352602098808a5287842054808611610ab45750863303610a38575b610800611923565b610809856117e2565b988915610a2957878552818b528885206108248782546118ba565b9055610832866003546118ba565b60035584885f80516020611f208339815191528d8c518a8152a383600f541690816109c2575b50508751635c2bea4960e01b815288818061087730808f8885016118c7565b038188887f0000000000000000000000000000000000000000000000000000000000000000165af180156109b85792858b936108eb9796938e9661099c575b508b5163a9059cbb60e01b81526001600160a01b03909316908301908152602081019490945290958693849291839160400190565b03927f0000000000000000000000000000000000000000000000000000000000000000165af19081156109915750610964575b506109276116e2565b600e55835190858252868201527ffbde797d201c681b91056529119e0b02407c7bb96a4a2c75c01fc9667232c8db843392a4600160105551908152f35b61098390873d891161098a575b61097b8183611616565b810190611805565b505f61091e565b503d610971565b8651903d90823e3d90fd5b6109b2908d803d10610674576106668183611616565b506108b6565b89513d87823e3d90fd5b813b15610a25578951638600e40b60e01b81526001600160a01b03909116838201908152602081018890529091869183919082908490829060400103925af180156109b857610a12575b80610858565b610a1e909491946115d2565b925f610a0c565b8580fd5b508751630cb65c7760e21b8152fd5b86845260058a528784203385528a528784205460018101610a5a575b506107f8565b9795929098949693918789105f14610a885760448a8a8a8a519263d8bf65b560e01b84528301526024820152fd5b91939694989092959785610a9b916118ba565b87855260058b528885203386528b52888520555f610a54565b885163d8bf65b560e01b8152918201869052602482015260449150fd5b855163d92e233d60e01b81528890fd5b8351631f2a200560e01b81528690fd5b835163558a1e0360e11b81528690fd5b509134610302578160031936011261030257610b1b61167f565b602435916001600160a01b038216908115610bb7573381528560205284812054848110610b9b57509084610b94949392602097338252808952828220610b628782546118ba565b9055838252885220610b758482546116c1565b905584518381525f80516020611f20833981519152873392a333611a27565b5160018152f35b866044918688519263d8bf65b560e01b84528301526024820152fd5b845163d92e233d60e01b81528690fd5b505034610352578160031936011261035257602090516127108152f35b50903461023957826003193601126102395780519183600180549182821c928281168015610cd9575b6020958686108214610cc65750848852908115610ca45750600114610c4c575b610c488686610c3e828b0383611616565b5191829182611638565b0390f35b9295508083527fb10e2d527612073b26eecdfd717e6a320cf44b4afac2b0732d9fcbe2b7fa0cf65b828410610c915750505082610c4894610c3e92820101945f610c2d565b8054868501880152928601928101610c74565b60ff191687860152505050151560051b8301019250610c3e82610c485f610c2d565b634e487b7160e01b845260229052602483fd5b93607f1693610c0d565b505034610352578160031936011261035257600b5490516001600160a01b039091168152602090f35b505034610352578160031936011261035257517f00000000000000000000000000000000000000000000000000000000000000006001600160a01b03168152602090f35b50503461035257816003193601126103525760a090600180831b038060065416918160075416918060085416906009541691600a54938151958652602086015284015260608301526080820152f35b503461023957602036600319011261023957610db961167f565b600b546001600160a01b03939192919084163303610e1257505081600f549116809282167f111a961d91cf441fe07e7bfddc128b30ab56974d1a76851e969e0642fdb2dd508580a36001600160a01b03191617600f5580f35b516330cd747160e01b8152fd5b50346102395760203660031901126102395760209282916001600160a01b03610e4661167f565b168252845220549051908152f35b50919034610352578060031936011261035257823592610e72611695565b9360016010540361116e576002601055801561115f576001600160a01b03938585169283156111515784516301fd3f7760e71b815233828201526020979088816024817f00000000000000000000000000000000000000000000000000000000000000008c165afa90811561114757849161112a575b501561111457610ef6611923565b610eff846117ba565b9687156111045786516323b872dd60e01b81523384820152306024820152604481018690528981606481887f000000000000000000000000000000000000000000000000000000000000000087165af180156110dd576110e7575b50865163a99aad8960e01b8152816006541684820152816007541660248201528160085416604482015281600954166064820152600a5460848201528560a48201528460c48201523060e48201526101206101048201528461012482015287816101448188867f0000000000000000000000000000000000000000000000000000000000000000165af180156110dd576110c1575b50610ffa8883611b0d565b600f5416918261104e575b505050506110116116e2565b600e55825190815283858201527fdcbc1c05240f31ff3ad067ef1ee35ce4997762752e3a095284754544f4c709d7833392a3600160105551908152f35b823b156110bd578651632ad4ef7760e21b81526001600160a01b0390921690820190815260208101889052909291829184919082908490829060400103925af19081156110b257506110a3575b808080611005565b6110ac906115d2565b5f61109b565b8551903d90823e3d90fd5b8380fd5b6110d790883d8a11610674576106668183611616565b50610fef565b88513d87823e3d90fd5b6110fd908a3d8c1161098a5761097b8183611616565b505f610f5a565b8651639811e0c760e01b81528390fd5b8551634a0bfec160e01b81523381840152602490fd5b6111419150893d8b1161098a5761097b8183611616565b5f610ee8565b87513d86823e3d90fd5b845163d92e233d60e01b8152fd5b509051631f2a200560e01b8152fd5b50905163558a1e0360e11b8152fd5b50503461035257816003193601126103525760209051670de0b6b3a76400008152f35b50903461023957602036600319011261023957600b54823592906001600160a01b0316330361123957610bb880841161121f5750507f528d9479e9f9889a87a3c30c7f7ba537e5e59c4c85a37733b16e57c62df61302906111ff611923565b600d548151908152836020820152a1600d556112196116e2565b600e5580f35b8360449351926373ab893560e11b84528301526024820152fd5b90516330cd747160e01b8152fd5b505034610352578160031936011261035257600c5490516001600160a01b039091168152602090f35b505034610352578160031936011261035257602090600e549051908152f35b50913461030257602036600319011261030257506102fb602092356117e2565b505034610352576020366003190112610352576020906102fb6112d061167f565b61181d565b505034610352578160031936011261035257517f00000000000000000000000000000000000000000000000000000000000000006001600160a01b03168152602090f35b50503461035257816003193601126103525760209060ff600254169051908152f35b505034610352578160031936011261035257602090600d549051908152f35b5090346102395760603660031901126102395761137561167f565b61137d611695565b604435916001600160a01b0382811690811561145957821680885260209660058852868920338a528852868920545f19810361142f575b508189528088528689205486811061141257509588610b949783839a9b52808b528282206113e38982546118ba565b90558482528a52206113f68682546116c1565b90555f80516020611f20833981519152888851878152a3611a27565b875163d8bf65b560e01b8152918201879052602482015260449150fd5b8681106114125786611440916118ba565b828a5260058952878a20338b528952878a20555f6113b4565b855163d92e233d60e01b81528790fd5b5050346103525781600319360112610352576020906003549051908152f35b505034610352578060031936011261035257602091816114a661167f565b91602435918291338152600587528181209460018060a01b0316948582528752205582519081527f8c5be1e5ebec7d5bd14f71427d1e84f3dd0314c0f7b2291e5b200ac8c7c3b925843392a35160018152f35b5090346102395782600319360112610239578051918380549060019082821c9282811680156115ab575b6020958686108214610cc65750848852908115610ca4575060011461155357610c488686610c3e828b0383611616565b8080949750527f290decd9548b62a8d60345a988386fc84ba6bc95484008f6362f93160ef3e5635b8284106115985750505082610c4894610c3e92820101945f610c2d565b805486850188015292860192810161157b565b93607f1693611523565b5050346103525781600319360112610352576020906102fb6116e2565b67ffffffffffffffff81116115e657604052565b634e487b7160e01b5f52604160045260245ffd5b60a0810190811067ffffffffffffffff8211176115e657604052565b90601f8019910116810190811067ffffffffffffffff8211176115e657604052565b602080825282518183018190529093925f5b82811061166b57505060409293505f838284010152601f8019910116010190565b81810186015184820160400152850161164a565b600435906001600160a01b03821682036106b157565b602435906001600160a01b03821682036106b157565b604435906001600160a01b03821682036106b157565b919082018092116116ce57565b634e487b7160e01b5f52601160045260245ffd5b6040516370a0823160e01b81523060048201526020816024817f00000000000000000000000000000000000000000000000000000000000000006001600160a01b03165afa801561177e575f9061174b575b611748915061174230611b6c565b906116c1565b90565b6020823d8211611776575b8161176360209383611616565b8101031261030257506117489051611734565b3d9150611756565b6040513d5f823e3d90fd5b818102929181159184041417156116ce57565b81156117a6570490565b634e487b7160e01b5f52601260045260245ffd5b60035480156117de576117d09061174892611789565b6117d86116e2565b9061179c565b5090565b60035480156117de57611800611748926117fa6116e2565b90611789565b61179c565b908160209103126106b1575180151581036106b15790565b6040516301fd3f7760e71b81526001600160a01b03918216600482015290602090829060249082907f0000000000000000000000000000000000000000000000000000000000000000165afa90811561177e575f91611886575b5015611882575f1990565b5f90565b61189e915060203d811161098a5761097b8183611616565b5f611877565b91908260409103126106b1576020825192015190565b919082039182116116ce57565b6006546001600160a01b039081168252600754811660208301526008548116604083015260095481166060830152600a54608083015260a08201929092525f60c082015291811660e08301529091166101008201526101200190565b61192b6116e2565b600e548111156119de57611941600e54826118ba565b90612710611951600d5484611789565b049081156119bc57819060035480155f146119c1575050915b82156119bc57826060926119a97f3f0efd667efe2a4e661231bb42b65ce017c3326fb50d12aa6f936500d58c1c029560018060a01b03600c5416611b0d565b60405192835260208301526040820152a1565b505050565b826119d26117d8926119d895611789565b926118ba565b9161196a565b600e55565b604051906119f0826115fa565b6006546001600160a01b0390811683526007548116602084015260085481166040840152600954166060830152600a546080830152565b600f545f93926001600160a01b03909116918215611b0657823b15611b0257604051638600e40b60e01b81526001600160a01b0391909116600482015260248101849052848160448183875af18015611af757611ae4575b50813b156110bd57604051632ad4ef7760e21b81526001600160a01b03919091166004820152602481019290925282908290604490829084905af18015611ad957611ac8575050565b611ad282916115d2565b6103025750565b6040513d84823e3d90fd5b611af0909491946115d2565b925f611a7f565b6040513d87823e3d90fd5b8480fd5b5050505050565b5f80516020611f2083398151915260205f92611b2b856003546116c1565b60035560018060a01b0316938484526004825260408420611b4d8282546116c1565b9055604051908152a3565b51906001600160801b03821682036106b157565b611b776104926119e3565b60018060a01b0390817f000000000000000000000000000000000000000000000000000000000000000016906040908151936349e2903160e11b855281600486015260249516858501526060908185604481875afa948515611eaa575f95611e27575b5082519560208701938651855260208701519781808201986001600160801b03809b168a520151968986830198168852858252608082019667ffffffffffffffff988389108a8a1117611e145788855287848051810103126106b157611c44611c4a92519b611b58565b50611b58565b508815611e06578694632e3071cd60e11b86526084830152848460c09687935afa958615611dfc575f96611d45575b505080519260208401938987511685526020870151978a8483019916895283880151968b81840198168852880151938b608084019516855260a060808a0151998d8286019b168b520151958c8585019716875284845260e084019284841090841117611d325750528051810103126106b1578794611c44611c4492611c44611d0c611d06611d1298611b58565b9a611b58565b97611b58565b5016918215611d2a5761174893611800921690611789565b505050505f90565b634e487b7160e01b5f9081526041600452fd5b8482819894983d8311611df5575b611d5d8185611616565b8101031261023957865192858401908482108a831117611de2575091611d8b61012092611dd5948a52611b58565b8452611d9960a08201611b58565b6020850152611da9868201611b58565b88850152611db960e08201611b58565b87850152611dca6101008201611b58565b608085015201611b58565b60a0820152935f80611c79565b634e487b7160e01b815260416004528590fd5b503d611d53565b82513d5f823e3d90fd5b505050505050505050505f90565b85634e487b7160e01b5f5260416004525ffd5b8281819793973d8311611ea3575b611e3f8183611616565b81010312610352578351918383019083821067ffffffffffffffff831117611e905750611e85918591825280518452611e7a60208201611b58565b602085015201611b58565b83820152935f611bda565b634e487b7160e01b815260416004528890fd5b503d611e35565b83513d5f823e3d90fd5b604051611efb6020820180936080809160018060a01b0380825116855280602083015116602086015280604083015116604086015260608201511660608501520151910152565b60a0815260c0810181811067ffffffffffffffff8211176115e6576040525190209056feddf252ad1be2c89b69c2b068fc378daa952ba7f163c4a11628f55a4df523b3efa264697066735822122099dc3683e2ab0bd96429a8e8ae36be19ef3c3769d96dd38662b24e7cee5c6ee664736f6c63430008150033","linkReferences":{}},"methodIdentifiers":{"BPS_BASE()":"9eaa1b09","MAX_FEE_BPS()":"d55be8c6","WAD()":"6a146024","allowance(address,address)":"dd62ed3e","approve(address,uint256)":"095ea7b3","asset()":"38d52e0f","assetAddress()":"1ba46cfd","balanceOf(address)":"70a08231","convertToAssets(uint256)":"07a2d13a","convertToShares(uint256)":"c6e6f592","decimals()":"313ce567","deposit(uint256,address)":"6e553f65","distributor()":"bfe10928","easChecker()":"88cf2fd6","feeBps()":"24a9d853","lastTotalAssets()":"568efc07","marketParams()":"7b9e68f2","maxDeposit(address)":"402d267d","maxWithdraw(address)":"ce96cb77","migrateMarket((address,address,address,address,uint256))":"c8b41e32","morpho()":"d8fbc833","name()":"06fdde03","owner()":"8da5cb5b","previewDeposit(uint256)":"ef8b30f7","previewRedeem(uint256)":"4cdad506","redeem(uint256,address,address)":"ba087652","setDistributor(address)":"75619ab5","setFee(uint256)":"69fe0e2d","setTreasury(address)":"f0f44260","symbol()":"95d89b41","totalAssets()":"01e1d114","totalSupply()":"18160ddd","transfer(address,uint256)":"a9059cbb","transferFrom(address,address,uint256)":"23b872dd","transferOwnership(address)":"f2fde38b","treasury()":"61d027b3"},"id":23}