{"abi":[{"type":"constructor","inputs":[{"name":"_asset","type":"address","internalType":"address"},{"name":"_morpho","type":"address","internalType":"address"},{"name":"_market","type":"tuple","internalType":"struct MarketParams","components":[{"name":"loanToken","type":"address","internalType":"address"},{"name":"collateralToken","type":"address","internalType":"address"},{"name":"oracle","type":"address","internalType":"address"},{"name":"irm","type":"address","internalType":"address"},{"name":"lltv","type":"uint256","internalType":"uint256"}]},{"name":"_checker","type":"address","internalType":"address"},{"name":"_treasury","type":"address","internalType":"address"},{"name":"_feeBps","type":"uint256","internalType":"uint256"}],"stateMutability":"nonpayable"},{"type":"function","name":"BPS_BASE","inputs":[],"outputs":[{"name":"","type":"uint256","internalType":"uint256"}],"stateMutability":"view"},{"type":"function","name":"MAX_FEE_BPS","inputs":[],"outputs":[{"name":"","type":"uint256","internalType":"uint256"}],"stateMutability":"view"},{"type":"function","name":"WAD","inputs":[],"outputs":[{"name":"","type":"uint256","internalType":"uint256"}],"stateMutability":"view"},{"type":"function","name":"allowance","inputs":[{"name":"","type":"address","internalType":"address"},{"name":"","type":"address","internalType":"address"}],"outputs":[{"name":"","type":"uint256","internalType":"uint256"}],"stateMutability":"view"},{"type":"function","name":"approve","inputs":[{"name":"spender","type":"address","internalType":"address"},{"name":"amount","type":"uint256","internalType":"uint256"}],"outputs":[{"name":"","type":"bool","internalType":"bool"}],"stateMutability":"nonpayable"},{"type":"function","name":"asset","inputs":[],"outputs":[{"name":"","type":"address","internalType":"contract IERC20"}],"stateMutability":"view"},{"type":"function","name":"assetAddress","inputs":[],"outputs":[{"name":"","type":"address","internalType":"address"}],"stateMutability":"view"},{"type":"function","name":"balanceOf","inputs":[{"name":"","type":"address","internalType":"address"}],"outputs":[{"name":"","type":"uint256","internalType":"uint256"}],"stateMutability":"view"},{"type":"function","name":"convertToAssets","inputs":[{"name":"shares","type":"uint256","internalType":"uint256"}],"outputs":[{"name":"","type":"uint256","internalType":"uint256"}],"stateMutability":"view"},{"type":"function","name":"convertToShares","inputs":[{"name":"assets","type":"uint256","internalType":"uint256"}],"outputs":[{"name":"","type":"uint256","internalType":"uint256"}],"stateMutability":"view"},{"type":"function","name":"decimals","inputs":[],"outputs":[{"name":"","type":"uint8","internalType":"uint8"}],"stateMutability":"view"},{"type":"function","name":"deposit","inputs":[{"name":"assets","type":"uint256","internalType":"uint256"},{"name":"receiver","type":"address","internalType":"address"}],"outputs":[{"name":"shares","type":"uint256","internalType":"uint256"}],"stateMutability":"nonpayable"},{"type":"function","name":"distributor","inputs":[],"outputs":[{"name":"","type":"address","internalType":"address"}],"stateMutability":"view"},{"type":"function","name":"easChecker","inputs":[],"outputs":[{"name":"","type":"address","internalType":"contract EASChecker"}],"stateMutability":"view"},{"type":"function","name":"feeBps","inputs":[],"outputs":[{"name":"","type":"uint256","internalType":"uint256"}],"stateMutability":"view"},{"type":"function","name":"lastTotalAssets","inputs":[],"outputs":[{"name":"","type":"uint256","internalType":"uint256"}],"stateMutability":"view"},{"type":"function","name":"marketParams","inputs":[],"outputs":[{"name":"loanToken","type":"address","internalType":"address"},{"name":"collateralToken","type":"address","internalType":"address"},{"name":"oracle","type":"address","internalType":"address"},{"name":"irm","type":"address","internalType":"address"},{"name":"lltv","type":"uint256","internalType":"uint256"}],"stateMutability":"view"},{"type":"function","name":"maxDeposit","inputs":[{"name":"user","type":"address","internalType":"address"}],"outputs":[{"name":"","type":"uint256","internalType":"uint256"}],"stateMutability":"view"},{"type":"function","name":"maxWithdraw","inputs":[{"name":"user","type":"address","internalType":"address"}],"outputs":[{"name":"","type":"uint256","internalType":"uint256"}],"stateMutability":"view"},{"type":"function","name":"migrateMarket","inputs":[{"name":"newMarket","type":"tuple","internalType":"struct MarketParams","components":[{"name":"loanToken","type":"address","internalType":"address"},{"name":"collateralToken","type":"address","internalType":"address"},{"name":"oracle","type":"address","internalType":"address"},{"name":"irm","type":"address","internalType":"address"},{"name":"lltv","type":"uint256","internalType":"uint256"}]}],"outputs":[],"stateMutability":"nonpayable"},{"type":"function","name":"morpho","inputs":[],"outputs":[{"name":"","type":"address","internalType":"contract IMorpho"}],"stateMutability":"view"},{"type":"function","name":"name","inputs":[],"outputs":[{"name":"","type":"string","internalType":"string"}],"stateMutability":"view"},{"type":"function","name":"owner","inputs":[],"outputs":[{"name":"","type":"address","internalType":"address"}],"stateMutability":"view"},{"type":"function","name":"previewDeposit","inputs":[{"name":"assets","type":"uint256","internalType":"uint256"}],"outputs":[{"name":"","type":"uint256","internalType":"uint256"}],"stateMutability":"view"},{"type":"function","name":"previewRedeem","inputs":[{"name":"shares","type":"uint256","internalType":"uint256"}],"outputs":[{"name":"","type":"uint256","internalType":"uint256"}],"stateMutability":"view"},{"type":"function","name":"redeem","inputs":[{"name":"shares","type":"uint256","internalType":"uint256"},{"name":"receiver","type":"address","internalType":"address"},{"name":"owner_","type":"address","internalType":"address"}],"outputs":[{"name":"assets","type":"uint256","internalType":"uint256"}],"stateMutability":"nonpayable"},{"type":"function","name":"setDistributor","inputs":[{"name":"newDistributor","type":"address","internalType":"address"}],"outputs":[],"stateMutability":"nonpayable"},{"type":"function","name":"setFee","inputs":[{"name":"newFeeBps","type":"uint256","internalType":"uint256"}],"outputs":[],"stateMutability":"nonpayable"},{"type":"function","name":"setTreasury","inputs":[{"name":"newTreasury","type":"address","internalType":"address"}],"outputs":[],"stateMutability":"nonpayable"},{"type":"function","name":"symbol","inputs":[],"outputs":[{"name":"","type":"string","internalType":"string"}],"stateMutability":"view"},{"type":"function","name":"totalAssets","inputs":[],"outputs":[{"name":"","type":"uint256","internalType":"uint256"}],"stateMutability":"view"},{"type":"function","name":"totalSupply","inputs":[],"outputs":[{"name":"","type":"uint256","internalType":"uint256"}],"stateMutability":"view"},{"type":"function","name":"transfer","inputs":[{"name":"to","type":"address","internalType":"address"},{"name":"amount","type":"uint256","internalType":"uint256"}],"outputs":[{"name":"","type":"bool","internalType":"bool"}],"stateMutability":"nonpayable"},{"type":"function","name":"transferFrom","inputs":[{"name":"from","type":"address","internalType":"address"},{"name":"to","type":"address","internalType":"address"},{"name":"amount","type":"uint256","internalType":"uint256"}],"outputs":[{"name":"","type":"bool","internalType":"bool"}],"stateMutability":"nonpayable"},{"type":"function","name":"transferOwnership","inputs":[{"name":"newOwner","type":"address","internalType":"address"}],"outputs":[],"stateMutability":"nonpayable"},{"type":"function","name":"treasury","inputs":[],"outputs":[{"name":"","type":"address","internalType":"address"}],"stateMutability":"view"},{"type":"event","name":"Approval","inputs":[{"name":"owner","type":"address","indexed":true,"internalType":"address"},{"name":"spender","type":"address","indexed":true,"internalType":"address"},{"name":"value","type":"uint256","indexed":false,"internalType":"uint256"}],"anonymous":false},{"type":"event","name":"Deposit","inputs":[{"name":"caller","type":"address","indexed":true,"internalType":"address"},{"name":"owner","type":"address","indexed":true,"internalType":"address"},{"name":"assets","type":"uint256","indexed":false,"internalType":"uint256"},{"name":"shares","type":"uint256","indexed":false,"internalType":"uint256"}],"anonymous":false},{"type":"event","name":"FeeUpdated","inputs":[{"name":"oldFeeBps","type":"uint256","indexed":false,"internalType":"uint256"},{"name":"newFeeBps","type":"uint256","indexed":false,"internalType":"uint256"}],"anonymous":false},{"type":"event","name":"FeesAccrued","inputs":[{"name":"yieldGenerated","type":"uint256","indexed":false,"internalType":"uint256"},{"name":"feeAssets","type":"uint256","indexed":false,"internalType":"uint256"},{"name":"feeShares","type":"uint256","indexed":false,"internalType":"uint256"}],"anonymous":false},{"type":"event","name":"MarketUpdated","inputs":[{"name":"oldMarketId","type":"bytes32","indexed":false,"internalType":"bytes32"},{"name":"newMarketId","type":"bytes32","indexed":false,"internalType":"bytes32"}],"anonymous":false},{"type":"event","name":"Transfer","inputs":[{"name":"from","type":"address","indexed":true,"internalType":"address"},{"name":"to","type":"address","indexed":true,"internalType":"address"},{"name":"value","type":"uint256","indexed":false,"internalType":"uint256"}],"anonymous":false},{"type":"event","name":"TreasuryUpdated","inputs":[{"name":"oldTreasury","type":"address","indexed":false,"internalType":"address"},{"name":"newTreasury","type":"address","indexed":false,"internalType":"address"}],"anonymous":false},{"type":"event","name":"Withdraw","inputs":[{"name":"caller","type":"address","indexed":true,"internalType":"address"},{"name":"receiver","type":"address","indexed":true,"internalType":"address"},{"name":"owner","type":"address","indexed":true,"internalType":"address"},{"name":"assets","type":"uint256","indexed":false,"internalType":"uint256"},{"name":"shares","type":"uint256","indexed":false,"internalType":"uint256"}],"anonymous":false},{"type":"error","name":"ExceedsBalance","inputs":[{"name":"requested","type":"uint256","internalType":"uint256"},{"name":"available","type":"uint256","internalType":"uint256"}]},{"type":"error","name":"FeeTooHigh","inputs":[{"name":"feeBps","type":"uint256","internalType":"uint256"},{"name":"maxFeeBps","type":"uint256","internalType":"uint256"}]},{"type":"error","name":"NotAuthorized","inputs":[{"name":"user","type":"address","internalType":"address"}]},{"type":"error","name":"NotOwner","inputs":[]},{"type":"error","name":"ZeroAmount","inputs":[]},{"type":"error","name":"ZeroAssets","inputs":[]},{"type":"error","name":"ZeroShares","inputs":[]}],"bytecode":{"object":"0x610120604052601260e090815271119a5b90985b9ac811555490c815985d5b1d60721b610100525f906200003490826200029a565b5060408051808201909152600681526566624555524360d01b60208201526001906200006190826200029a565b506002805460ff191660061790553480156200007b575f80fd5b5060405162002554380380620025548339810160408190526200009e916200037e565b610bb8811115620000e75760405162461bcd60e51b815260206004820152600f60248201526e08ccaca40caf0c6cacac8e640dac2f608b1b604482015260640160405180910390fd5b6001600160a01b03868116608081815287831660a08190528751600680549186166001600160a01b03199283161790556020890151600780549187169183169190911790556040808a01516008805491881691841691909117905560608a01516009805491881691841691909117905592890151600a5587851660c052600c805495881695821695909517909455600d859055600b805490941633179093555163095ea7b360e01b815260048101929092525f1960248301529063095ea7b3906044016020604051808303815f875af1158015620001c7573d5f803e3d5ffd5b505050506040513d601f19601f82011682018060405250810190620001ed919062000478565b50505050505050620004a0565b634e487b7160e01b5f52604160045260245ffd5b600181811c908216806200022357607f821691505b6020821081036200024257634e487b7160e01b5f52602260045260245ffd5b50919050565b601f82111562000295575f81815260208120601f850160051c81016020861015620002705750805b601f850160051c820191505b8181101562000291578281556001016200027c565b5050505b505050565b81516001600160401b03811115620002b657620002b6620001fa565b620002ce81620002c784546200020e565b8462000248565b602080601f83116001811462000304575f8415620002ec5750858301515b5f19600386901b1c1916600185901b17855562000291565b5f85815260208120601f198616915b82811015620003345788860151825594840194600190910190840162000313565b50858210156200035257878501515f19600388901b60f8161c191681555b5050505050600190811b01905550565b80516001600160a01b038116811462000379575f80fd5b919050565b5f805f805f8086880361014081121562000396575f80fd5b620003a18862000362565b9650620003b16020890162000362565b955060a0603f1982011215620003c5575f80fd5b5060405160a081016001600160401b0381118282101715620003eb57620003eb620001fa565b8060405250620003fe6040890162000362565b81526200040e6060890162000362565b6020820152620004216080890162000362565b60408201526200043460a0890162000362565b606082015260c0880151608082015293506200045360e0880162000362565b925062000464610100880162000362565b915061012087015190509295509295509295565b5f6020828403121562000489575f80fd5b8151801515811462000499575f80fd5b9392505050565b60805160a05160c05161202e620005265f395f81816104370152818161087a01526109ed01525f81816104fd01528181610b5c01528181610f8201528181611170015281816113450152818161159d015261168f01525f818161028801528181610300015281816105a301528181610ad20152818161102701526112bb015261202e5ff3fe608060405234801561000f575f80fd5b5060043610610213575f3560e01c806375619ab51161011f578063c6e6f592116100a9578063d8fbc83311610079578063d8fbc833146104f8578063dd62ed3e1461051f578063ef8b30f714610549578063f0f442601461055c578063f2fde38b1461056f575f80fd5b8063c6e6f592146104b6578063c8b41e32146104c9578063ce96cb77146104dc578063d55be8c6146104ef575f80fd5b806395d89b41116100ef57806395d89b411461046c5780639eaa1b0914610474578063a9059cbb1461047d578063ba08765214610490578063bfe10928146104a3575f80fd5b806375619ab5146103ba5780637b9e68f2146103cd57806388cf2fd6146104325780638da5cb5b14610459575f80fd5b806338d52e0f116101a057806361d027b31161017057806361d027b31461035157806369fe0e2d146103645780636a146024146103795780636e553f651461038857806370a082311461039b575f80fd5b806338d52e0f146102fb578063402d267d146103225780634cdad50614610335578063568efc0714610348575f80fd5b806318160ddd116101e657806318160ddd1461027d5780631ba46cfd1461028657806323b872dd146102c057806324a9d853146102d3578063313ce567146102dc575f80fd5b806301e1d1141461021757806306fdde031461023257806307a2d13a14610247578063095ea7b31461025a575b5f80fd5b61021f610582565b6040519081526020015b60405180910390f35b61023a61062b565b60405161022991906119d9565b61021f610255366004611a24565b6106b6565b61026d610268366004611a56565b6106ed565b6040519015158152602001610229565b61021f60035481565b7f00000000000000000000000000000000000000000000000000000000000000005b6040516001600160a01b039091168152602001610229565b61026d6102ce366004611a7e565b610759565b61021f600d5481565b6002546102e99060ff1681565b60405160ff9091168152602001610229565b6102a87f000000000000000000000000000000000000000000000000000000000000000081565b61021f610330366004611ab7565b610859565b61021f610343366004611a24565b6108f8565b61021f600e5481565b600c546102a8906001600160a01b031681565b610377610372366004611a24565b610902565b005b61021f670de0b6b3a764000081565b61021f610396366004611ad0565b6109b7565b61021f6103a9366004611ab7565b60046020525f908152604090205481565b6103776103c8366004611ab7565b610cad565b600654600754600854600954600a546103f7946001600160a01b0390811694811693811692169085565b604080516001600160a01b0396871681529486166020860152928516928401929092529092166060820152608081019190915260a001610229565b6102a87f000000000000000000000000000000000000000000000000000000000000000081565b600b546102a8906001600160a01b031681565b61023a610cfa565b61021f61271081565b61026d61048b366004611a56565b610d07565b61021f61049e366004611afa565b610d82565b600f546102a8906001600160a01b031681565b61021f6104c4366004611a24565b6110ef565b6103776104d7366004611b33565b611114565b61021f6104ea366004611ab7565b611416565b61021f610bb881565b6102a87f000000000000000000000000000000000000000000000000000000000000000081565b61021f61052d366004611bc7565b600560209081525f928352604080842090915290825290205481565b61021f610557366004611a24565b611437565b61037761056a366004611ab7565b611441565b61037761057d366004611ab7565b6114d5565b6040516370a0823160e01b81523060048201525f9081906001600160a01b037f000000000000000000000000000000000000000000000000000000000000000016906370a0823190602401602060405180830381865afa1580156105e8573d5f803e3d5ffd5b505050506040513d601f19601f8201168201806040525081019061060c9190611bef565b90505f61061830611522565b90506106248183611c1a565b9250505090565b5f805461063790611c2d565b80601f016020809104026020016040519081016040528092919081815260200182805461066390611c2d565b80156106ae5780601f10610685576101008083540402835291602001916106ae565b820191905f5260205f20905b81548152906001019060200180831161069157829003601f168201915b505050505081565b6003545f908082036106c9575090919050565b806106d2610582565b6106dc9085611c65565b6106e69190611c7c565b9392505050565b335f8181526005602090815260408083206001600160a01b038716808552925280832085905551919290917f8c5be1e5ebec7d5bd14f71427d1e84f3dd0314c0f7b2291e5b200ac8c7c3b925906107479086815260200190565b60405180910390a35060015b92915050565b6001600160a01b0383165f9081526005602090815260408083203384529091528120545f19146107bb576001600160a01b0384165f908152600560209081526040808320338452909152812080548492906107b5908490611c9b565b90915550505b6001600160a01b0384165f90815260046020526040812080548492906107e2908490611c9b565b90915550506001600160a01b0383165f908152600460205260408120805484929061080e908490611c1a565b92505081905550826001600160a01b0316846001600160a01b03165f80516020611fd98339815191528460405161084791815260200190565b60405180910390a35060019392505050565b6040516301fd3f7760e71b81526001600160a01b0382811660048301525f917f00000000000000000000000000000000000000000000000000000000000000009091169063fe9fbb8090602401602060405180830381865afa1580156108c1573d5f803e3d5ffd5b505050506040513d601f19601f820116820180604052508101906108e59190611cae565b6108f057505f919050565b505f19919050565b5f610753826106b6565b600b546001600160a01b0316331461092d576040516330cd747160e01b815260040160405180910390fd5b610bb8811115610960576040516373ab893560e11b815260048101829052610bb860248201526044015b60405180910390fd5b6109686117d3565b600d5460408051918252602082018390527f528d9479e9f9889a87a3c30c7f7ba537e5e59c4c85a37733b16e57c62df61302910160405180910390a1600d8190556109b1610582565b600e5550565b5f825f036109d857604051631f2a200560e01b815260040160405180910390fd5b6040516301fd3f7760e71b81523360048201527f00000000000000000000000000000000000000000000000000000000000000006001600160a01b03169063fe9fbb8090602401602060405180830381865afa158015610a3a573d5f803e3d5ffd5b505050506040513d601f19601f82011682018060405250810190610a5e9190611cae565b610a7d57604051634a0bfec160e01b8152336004820152602401610957565b610a856117d3565b610a8e83611437565b9050805f03610ab057604051639811e0c760e01b815260040160405180910390fd5b6040516323b872dd60e01b8152336004820152306024820152604481018490527f00000000000000000000000000000000000000000000000000000000000000006001600160a01b0316906323b872dd906064016020604051808303815f875af1158015610b20573d5f803e3d5ffd5b505050506040513d601f19601f82011682018060405250810190610b449190611cae565b5060405163a99aad8960e01b81526001600160a01b037f0000000000000000000000000000000000000000000000000000000000000000169063a99aad8990610b989060069087905f903090600401611d0b565b60408051808303815f875af1158015610bb3573d5f803e3d5ffd5b505050506040513d601f19601f82011682018060405250810190610bd79190611d51565b5050610be382826118c8565b600f546001600160a01b031615610c5657600f54604051632ad4ef7760e21b81526001600160a01b038481166004830152602482018490529091169063ab53bddc906044015f604051808303815f87803b158015610c3f575f80fd5b505af1158015610c51573d5f803e3d5ffd5b505050505b610c5e610582565b600e5560408051848152602081018390526001600160a01b0384169133917fdcbc1c05240f31ff3ad067ef1ee35ce4997762752e3a095284754544f4c709d7910160405180910390a392915050565b600b546001600160a01b03163314610cd8576040516330cd747160e01b815260040160405180910390fd5b600f80546001600160a01b0319166001600160a01b0392909216919091179055565b6001805461063790611c2d565b335f90815260046020526040812080548391908390610d27908490611c9b565b90915550506001600160a01b0383165f9081526004602052604081208054849290610d53908490611c1a565b90915550506040518281526001600160a01b0384169033905f80516020611fd983398151915290602001610747565b5f835f03610da357604051631f2a200560e01b815260040160405180910390fd5b6001600160a01b0382165f90815260046020526040902054841115610e00576001600160a01b0382165f9081526004602081905260409182902054915163d8bf65b560e01b81529081018690526024810191909152604401610957565b336001600160a01b03831614610ebb576001600160a01b0382165f9081526005602090815260408083203384529091529020545f198114610eb95784811015610e8b5760405162461bcd60e51b815260206004820152601f60248201527f455243343632363a20696e73756666696369656e7420616c6c6f77616e6365006044820152606401610957565b610e958582611c9b565b6001600160a01b0384165f9081526005602090815260408083203384529091529020555b505b610ec36117d3565b610ecc846108f8565b9050805f03610eee57604051630cb65c7760e21b815260040160405180910390fd5b610ef8828561193c565b600f546001600160a01b031615610f6b57600f54604051638600e40b60e01b81526001600160a01b0384811660048301526024820187905290911690638600e40b906044015f604051808303815f87803b158015610f54575f80fd5b505af1158015610f66573d5f803e3d5ffd5b505050505b604051635c2bea4960e01b81526001600160a01b037f00000000000000000000000000000000000000000000000000000000000000001690635c2bea4990610fc09060069085905f9030908190600401611d73565b60408051808303815f875af1158015610fdb573d5f803e3d5ffd5b505050506040513d601f19601f82011682018060405250810190610fff9190611d51565b505060405163a9059cbb60e01b81526001600160a01b038481166004830152602482018390527f0000000000000000000000000000000000000000000000000000000000000000169063a9059cbb906044016020604051808303815f875af115801561106d573d5f803e3d5ffd5b505050506040513d601f19601f820116820180604052508101906110919190611cae565b5061109a610582565b600e5560408051828152602081018690526001600160a01b03808516929086169133917ffbde797d201c681b91056529119e0b02407c7bb96a4a2c75c01fc9667232c8db910160405180910390a49392505050565b6003545f90808203611102575090919050565b61110a610582565b6106dc8285611c65565b600b546001600160a01b0316331461113f576040516330cd747160e01b815260040160405180910390fd5b6111476117d3565b5f61115130611522565b905080156111f057604051635c2bea4960e01b81526001600160a01b037f00000000000000000000000000000000000000000000000000000000000000001690635c2bea49906111ae9060069085905f9030908190600401611d73565b60408051808303815f875af11580156111c9573d5f803e3d5ffd5b505050506040513d601f19601f820116820180604052508101906111ed9190611d51565b50505b6040805160a0810182526006546001600160a01b039081168252600754811660208301526008548116928201929092526009549091166060820152600a5460808201525f9061123e906119aa565b8351600680546001600160a01b03199081166001600160a01b03938416179091556020860151600780548316918416919091179055604080870151600880548416918516919091179055606087015160098054909316908416179091556080860151600a55516370a0823160e01b81523060048201529192505f917f0000000000000000000000000000000000000000000000000000000000000000909116906370a0823190602401602060405180830381865afa158015611302573d5f803e3d5ffd5b505050506040513d601f19601f820116820180604052508101906113269190611bef565b905080156113c25760405163a99aad8960e01b81526001600160a01b037f0000000000000000000000000000000000000000000000000000000000000000169063a99aad899061138090879085905f903090600401611dee565b60408051808303815f875af115801561139b573d5f803e3d5ffd5b505050506040513d601f19601f820116820180604052508101906113bf9190611d51565b50505b6113ca610582565b600e557f2f6904794a496a495d0b5a0a34ad81e2959f12314038813a56388c47424d8be0826113f8866119aa565b6040805192835260208301919091520160405180910390a150505050565b6001600160a01b0381165f90815260046020526040812054610753906106b6565b5f610753826110ef565b600b546001600160a01b0316331461146c576040516330cd747160e01b815260040160405180910390fd5b600c54604080516001600160a01b03928316815291831660208301527f4ab5be82436d353e61ca18726e984e561f5c1cc7c6d38b29d2553c790434705a910160405180910390a1600c80546001600160a01b0319166001600160a01b0392909216919091179055565b600b546001600160a01b03163314611500576040516330cd747160e01b815260040160405180910390fd5b600b80546001600160a01b0319166001600160a01b0392909216919091179055565b6040805160a0810182526006546001600160a01b039081168252600754811660208301526008548116928201929092526009549091166060820152600a5460808201525f908190611572906119aa565b6040516349e2903160e11b8152600481018290526001600160a01b0385811660248301529192505f917f000000000000000000000000000000000000000000000000000000000000000016906393c5206290604401606060405180830381865afa1580156115e2573d5f803e3d5ffd5b505050506040513d601f19601f820116820180604052508101906116069190611e12565b6040805182516020808301919091528301516001600160801b0390811682840152929091015190911660608201526080016040516020818303038152906040528060200190518101906116599190611e81565b50509050805f0361166d57505f9392505050565b604051632e3071cd60e11b8152600481018390525f9081906001600160a01b037f00000000000000000000000000000000000000000000000000000000000000001690635c60e39a9060240160c060405180830381865afa1580156116d4573d5f803e3d5ffd5b505050506040513d601f19601f820116820180604052508101906116f89190611eb1565b60405160200161175b91905f60c0820190506001600160801b038084511683528060208501511660208401528060408501511660408401528060608501511660608401528060808501511660808401528060a08501511660a08401525092915050565b60405160208183030381529060405280602001905181019061177d9190611f5a565b5050505091509150806001600160801b03165f036117a057505f95945050505050565b806001600160801b0316826001600160801b0316846117bf9190611c65565b6117c99190611c7c565b9695505050505050565b5f6117dc610582565b9050600e5481116117ec57600e55565b5f600e54826117fb9190611c9b565b90505f612710600d548361180f9190611c65565b6118199190611c7c565b9050805f0361182757505050565b6003545f9080820361183b5782915061185c565b6118458386611c9b565b61184f8285611c65565b6118599190611c7c565b91505b815f0361186a575050505050565b600c54611880906001600160a01b0316836118c8565b60408051858152602081018590529081018390527f3f0efd667efe2a4e661231bb42b65ce017c3326fb50d12aa6f936500d58c1c029060600160405180910390a15050505050565b8060035f8282546118d99190611c1a565b90915550506001600160a01b0382165f9081526004602052604081208054839290611905908490611c1a565b90915550506040518181526001600160a01b038316905f905f80516020611fd9833981519152906020015b60405180910390a35050565b6001600160a01b0382165f9081526004602052604081208054839290611963908490611c9b565b925050819055508060035f82825461197b9190611c9b565b90915550506040518181525f906001600160a01b038416905f80516020611fd983398151915290602001611930565b5f816040516020016119bc9190611fca565b604051602081830303815290604052805190602001209050919050565b5f6020808352835180828501525f5b81811015611a04578581018301518582016040015282016119e8565b505f604082860101526040601f19601f8301168501019250505092915050565b5f60208284031215611a34575f80fd5b5035919050565b80356001600160a01b0381168114611a51575f80fd5b919050565b5f8060408385031215611a67575f80fd5b611a7083611a3b565b946020939093013593505050565b5f805f60608486031215611a90575f80fd5b611a9984611a3b565b9250611aa760208501611a3b565b9150604084013590509250925092565b5f60208284031215611ac7575f80fd5b6106e682611a3b565b5f8060408385031215611ae1575f80fd5b82359150611af160208401611a3b565b90509250929050565b5f805f60608486031215611b0c575f80fd5b83359250611b1c60208501611a3b565b9150611b2a60408501611a3b565b90509250925092565b5f60a08284031215611b43575f80fd5b60405160a0810181811067ffffffffffffffff82111715611b7257634e487b7160e01b5f52604160045260245ffd5b604052611b7e83611a3b565b8152611b8c60208401611a3b565b6020820152611b9d60408401611a3b565b6040820152611bae60608401611a3b565b6060820152608083013560808201528091505092915050565b5f8060408385031215611bd8575f80fd5b611be183611a3b565b9150611af160208401611a3b565b5f60208284031215611bff575f80fd5b5051919050565b634e487b7160e01b5f52601160045260245ffd5b8082018082111561075357610753611c06565b600181811c90821680611c4157607f821691505b602082108103611c5f57634e487b7160e01b5f52602260045260245ffd5b50919050565b808202811582820484141761075357610753611c06565b5f82611c9657634e487b7160e01b5f52601260045260245ffd5b500490565b8181038181111561075357610753611c06565b5f60208284031215611cbe575f80fd5b815180151581146106e6575f80fd5b80546001600160a01b039081168352600182015481166020840152600282015481166040840152600382015416606083015260040154608090910152565b5f610120611d198388611ccd565b60a08301959095525060c08101929092526001600160a01b031660e082015261010081018290525f9181019190915261014001919050565b5f8060408385031215611d62575f80fd5b505080516020909101519092909150565b6101208101611d828288611ccd565b60a082019590955260c08101939093526001600160a01b0391821660e08401521661010090910152919050565b80516001600160a01b03908116835260208083015182169084015260408083015182169084015260608083015190911690830152608090810151910152565b5f610120611d198388611daf565b80516001600160801b0381168114611a51575f80fd5b5f60608284031215611e22575f80fd5b6040516060810181811067ffffffffffffffff82111715611e5157634e487b7160e01b5f52604160045260245ffd5b60405282518152611e6460208401611dfc565b6020820152611e7560408401611dfc565b60408201529392505050565b5f805f60608486031215611e93575f80fd5b83519250611ea360208501611dfc565b9150611b2a60408501611dfc565b5f60c08284031215611ec1575f80fd5b60405160c0810181811067ffffffffffffffff82111715611ef057634e487b7160e01b5f52604160045260245ffd5b604052611efc83611dfc565b8152611f0a60208401611dfc565b6020820152611f1b60408401611dfc565b6040820152611f2c60608401611dfc565b6060820152611f3d60808401611dfc565b6080820152611f4e60a08401611dfc565b60a08201529392505050565b5f805f805f8060c08789031215611f6f575f80fd5b611f7887611dfc565b9550611f8660208801611dfc565b9450611f9460408801611dfc565b9350611fa260608801611dfc565b9250611fb060808801611dfc565b9150611fbe60a08801611dfc565b90509295509295509295565b60a081016107538284611daf56feddf252ad1be2c89b69c2b068fc378daa952ba7f163c4a11628f55a4df523b3efa26469706673582212202e6705c6b2f4c3b53c17045b8531a0567644bb3e4e7332dd20c0f91e7142376f64736f6c63430008150033","linkReferences":{}},"methodIdentifiers":{"BPS_BASE()":"9eaa1b09","MAX_FEE_BPS()":"d55be8c6","WAD()":"6a146024","allowance(address,address)":"dd62ed3e","approve(address,uint256)":"095ea7b3","asset()":"38d52e0f","assetAddress()":"1ba46cfd","balanceOf(address)":"70a08231","convertToAssets(uint256)":"07a2d13a","convertToShares(uint256)":"c6e6f592","decimals()":"313ce567","deposit(uint256,address)":"6e553f65","distributor()":"bfe10928","easChecker()":"88cf2fd6","feeBps()":"24a9d853","lastTotalAssets()":"568efc07","marketParams()":"7b9e68f2","maxDeposit(address)":"402d267d","maxWithdraw(address)":"ce96cb77","migrateMarket((address,address,address,address,uint256))":"c8b41e32","morpho()":"d8fbc833","name()":"06fdde03","owner()":"8da5cb5b","previewDeposit(uint256)":"ef8b30f7","previewRedeem(uint256)":"4cdad506","redeem(uint256,address,address)":"ba087652","setDistributor(address)":"75619ab5","setFee(uint256)":"69fe0e2d","setTreasury(address)":"f0f44260","symbol()":"95d89b41","totalAssets()":"01e1d114","totalSupply()":"18160ddd","transfer(address,uint256)":"a9059cbb","transferFrom(address,address,uint256)":"23b872dd","transferOwnership(address)":"f2fde38b","treasury()":"61d027b3"},"id":23}