{"abi":[{"type":"constructor","inputs":[{"name":"_minter","type":"address","internalType":"address"}],"stateMutability":"nonpayable"},{"type":"function","name":"MAX_SUPPLY","inputs":[],"outputs":[{"name":"","type":"uint256","internalType":"uint256"}],"stateMutability":"view"},{"type":"function","name":"allowance","inputs":[{"name":"","type":"address","internalType":"address"},{"name":"","type":"address","internalType":"address"}],"outputs":[{"name":"","type":"uint256","internalType":"uint256"}],"stateMutability":"view"},{"type":"function","name":"approve","inputs":[{"name":"spender","type":"address","internalType":"address"},{"name":"amount","type":"uint256","internalType":"uint256"}],"outputs":[{"name":"","type":"bool","internalType":"bool"}],"stateMutability":"nonpayable"},{"type":"function","name":"balanceOf","inputs":[{"name":"","type":"address","internalType":"address"}],"outputs":[{"name":"","type":"uint256","internalType":"uint256"}],"stateMutability":"view"},{"type":"function","name":"burn","inputs":[{"name":"amount","type":"uint256","internalType":"uint256"}],"outputs":[],"stateMutability":"nonpayable"},{"type":"function","name":"burnFrom","inputs":[{"name":"from","type":"address","internalType":"address"},{"name":"amount","type":"uint256","internalType":"uint256"}],"outputs":[],"stateMutability":"nonpayable"},{"type":"function","name":"decimals","inputs":[],"outputs":[{"name":"","type":"uint8","internalType":"uint8"}],"stateMutability":"view"},{"type":"function","name":"mint","inputs":[{"name":"to","type":"address","internalType":"address"},{"name":"amount","type":"uint256","internalType":"uint256"}],"outputs":[],"stateMutability":"nonpayable"},{"type":"function","name":"minter","inputs":[],"outputs":[{"name":"","type":"address","internalType":"address"}],"stateMutability":"view"},{"type":"function","name":"name","inputs":[],"outputs":[{"name":"","type":"string","internalType":"string"}],"stateMutability":"view"},{"type":"function","name":"owner","inputs":[],"outputs":[{"name":"","type":"address","internalType":"address"}],"stateMutability":"view"},{"type":"function","name":"remainingMintable","inputs":[],"outputs":[{"name":"","type":"uint256","internalType":"uint256"}],"stateMutability":"view"},{"type":"function","name":"setMinter","inputs":[{"name":"newMinter","type":"address","internalType":"address"}],"outputs":[],"stateMutability":"nonpayable"},{"type":"function","name":"supplyEmittedBps","inputs":[],"outputs":[{"name":"","type":"uint256","internalType":"uint256"}],"stateMutability":"view"},{"type":"function","name":"symbol","inputs":[],"outputs":[{"name":"","type":"string","internalType":"string"}],"stateMutability":"view"},{"type":"function","name":"totalSupply","inputs":[],"outputs":[{"name":"","type":"uint256","internalType":"uint256"}],"stateMutability":"view"},{"type":"function","name":"transfer","inputs":[{"name":"to","type":"address","internalType":"address"},{"name":"amount","type":"uint256","internalType":"uint256"}],"outputs":[{"name":"","type":"bool","internalType":"bool"}],"stateMutability":"nonpayable"},{"type":"function","name":"transferFrom","inputs":[{"name":"from","type":"address","internalType":"address"},{"name":"to","type":"address","internalType":"address"},{"name":"amount","type":"uint256","internalType":"uint256"}],"outputs":[{"name":"","type":"bool","internalType":"bool"}],"stateMutability":"nonpayable"},{"type":"function","name":"transferOwnership","inputs":[{"name":"newOwner","type":"address","internalType":"address"}],"outputs":[],"stateMutability":"nonpayable"},{"type":"event","name":"Approval","inputs":[{"name":"owner","type":"address","indexed":true,"internalType":"address"},{"name":"spender","type":"address","indexed":true,"internalType":"address"},{"name":"value","type":"uint256","indexed":false,"internalType":"uint256"}],"anonymous":false},{"type":"event","name":"MinterUpdated","inputs":[{"name":"oldMinter","type":"address","indexed":true,"internalType":"address"},{"name":"newMinter","type":"address","indexed":true,"internalType":"address"}],"anonymous":false},{"type":"event","name":"OwnershipTransferred","inputs":[{"name":"oldOwner","type":"address","indexed":true,"internalType":"address"},{"name":"newOwner","type":"address","indexed":true,"internalType":"address"}],"anonymous":false},{"type":"event","name":"Transfer","inputs":[{"name":"from","type":"address","indexed":true,"internalType":"address"},{"name":"to","type":"address","indexed":true,"internalType":"address"},{"name":"value","type":"uint256","indexed":false,"internalType":"uint256"}],"anonymous":false},{"type":"error","name":"CapExceeded","inputs":[{"name":"requested","type":"uint256","internalType":"uint256"},{"name":"available","type":"uint256","internalType":"uint256"}]},{"type":"error","name":"InsufficientAllowance","inputs":[{"name":"requested","type":"uint256","internalType":"uint256"},{"name":"allowed","type":"uint256","internalType":"uint256"}]},{"type":"error","name":"InsufficientBalance","inputs":[{"name":"requested","type":"uint256","internalType":"uint256"},{"name":"available","type":"uint256","internalType":"uint256"}]},{"type":"error","name":"NotMinter","inputs":[]},{"type":"error","name":"NotOwner","inputs":[]},{"type":"error","name":"ZeroAddress","inputs":[]}],"bytecode":{"object":"0x608060405234801561000f575f80fd5b50604051610d2e380380610d2e83398101604081905261002e91610088565b6001600160a01b0381166100555760405163d92e233d60e01b815260040160405180910390fd5b60038054336001600160a01b031991821617909155600480549091166001600160a01b03929092169190911790556100b5565b5f60208284031215610098575f80fd5b81516001600160a01b03811681146100ae575f80fd5b9392505050565b610c6c806100c25f395ff3fe608060405234801561000f575f80fd5b506004361061011c575f3560e01c806370a08231116100a9578063aca1ab581161006e578063aca1ab58146102b7578063dd62ed3e146102bf578063f2fde38b146102e9578063f76e95e5146102fc578063fca3b5aa14610304575f80fd5b806370a082311461023d57806379cc67901461025c5780638da5cb5b1461026f57806395d89b4114610282578063a9059cbb146102a4575f80fd5b806323b872dd116100ef57806323b872dd146101d6578063313ce567146101e957806332cb6b0c1461020357806340c10f191461021557806342966c681461022a575f80fd5b806306fdde03146101205780630754617214610172578063095ea7b31461019d57806318160ddd146101c0575b5f80fd5b61015c6040518060400160405280601881526020017f46696e42616e6b20476f7665726e616e636520546f6b656e000000000000000081525081565b6040516101699190610a77565b60405180910390f35b600454610185906001600160a01b031681565b6040516001600160a01b039091168152602001610169565b6101b06101ab366004610add565b610317565b6040519015158152602001610169565b6101c85f5481565b604051908152602001610169565b6101b06101e4366004610b05565b610383565b6101f1601281565b60405160ff9091168152602001610169565b6101c86a52b7d2dcc80cd2e400000081565b610228610223366004610add565b610507565b005b610228610238366004610b3e565b610612565b6101c861024b366004610b55565b60016020525f908152604090205481565b61022861026a366004610add565b6106bd565b600354610185906001600160a01b031681565b61015c6040518060400160405280600381526020016246424b60e81b81525081565b6101b06102b2366004610add565b61080a565b6101c86108cd565b6101c86102cd366004610b75565b600260209081525f928352604080842090915290825290205481565b6102286102f7366004610b55565b610905565b6101c86109b2565b610228610312366004610b55565b6109ca565b335f8181526002602090815260408083206001600160a01b038716808552925280832085905551919290917f8c5be1e5ebec7d5bd14f71427d1e84f3dd0314c0f7b2291e5b200ac8c7c3b925906103719086815260200190565b60405180910390a35060015b92915050565b6001600160a01b0383165f908152600260209081526040808320338452909152812054828110156103d65760405163054365bb60e31b815260048101849052602481018290526044015b60405180910390fd5b6001600160a01b0385165f90815260016020526040902054831115610432576001600160a01b0385165f908152600160205260409081902054905163cf47918160e01b81526103cd918591600401918252602082015260400190565b5f198114610468576104448382610bba565b6001600160a01b0386165f9081526002602090815260408083203384529091529020555b6001600160a01b0385165f908152600160205260408120805485929061048f908490610bba565b90915550506001600160a01b0384165f90815260016020526040812080548592906104bb908490610bcd565b92505081905550836001600160a01b0316856001600160a01b03165f80516020610c17833981519152856040516104f491815260200190565b60405180910390a3506001949350505050565b6004546001600160a01b0316331461053257604051633e34a41b60e21b815260040160405180910390fd5b6001600160a01b0382166105595760405163d92e233d60e01b815260040160405180910390fd5b5f8054610571906a52b7d2dcc80cd2e4000000610bba565b90508082111561059e5760405163f480e28560e01b815260048101839052602481018290526044016103cd565b815f808282546105ae9190610bcd565b90915550506001600160a01b0383165f90815260016020526040812080548492906105da908490610bcd565b90915550506040518281526001600160a01b038416905f905f80516020610c17833981519152906020015b60405180910390a3505050565b335f9081526001602052604090205481111561065c57335f908152600160205260409081902054905163cf47918160e01b81526103cd918391600401918252602082015260400190565b335f908152600160205260408120805483929061067a908490610bba565b92505081905550805f808282546106919190610bba565b90915550506040518181525f9033905f80516020610c178339815191529060200160405180910390a350565b6001600160a01b0382165f9081526002602090815260408083203384529091529020548181101561070b5760405163054365bb60e31b815260048101839052602481018290526044016103cd565b6001600160a01b0383165f90815260016020526040902054821115610767576001600160a01b0383165f908152600160205260409081902054905163cf47918160e01b81526103cd918491600401918252602082015260400190565b5f19811461079d576107798282610bba565b6001600160a01b0384165f9081526002602090815260408083203384529091529020555b6001600160a01b0383165f90815260016020526040812080548492906107c4908490610bba565b92505081905550815f808282546107db9190610bba565b90915550506040518281525f906001600160a01b038516905f80516020610c1783398151915290602001610605565b335f9081526001602052604081205482111561085457335f908152600160205260409081902054905163cf47918160e01b81526103cd918491600401918252602082015260400190565b335f9081526001602052604081208054849290610872908490610bba565b90915550506001600160a01b0383165f908152600160205260408120805484929061089e908490610bcd565b90915550506040518281526001600160a01b0384169033905f80516020610c1783398151915290602001610371565b5f80545f036108db57505f90565b6a52b7d2dcc80cd2e40000005f546127106108f69190610be0565b6109009190610bf7565b905090565b6003546001600160a01b03163314610930576040516330cd747160e01b815260040160405180910390fd5b6001600160a01b0381166109575760405163d92e233d60e01b815260040160405180910390fd5b6003546040516001600160a01b038084169216907f8be0079c531659141344cd1fd0a4f28419497f9722a3daafe3b4186f6b6457e0905f90a3600380546001600160a01b0319166001600160a01b0392909216919091179055565b5f8054610900906a52b7d2dcc80cd2e4000000610bba565b6003546001600160a01b031633146109f5576040516330cd747160e01b815260040160405180910390fd5b6001600160a01b038116610a1c5760405163d92e233d60e01b815260040160405180910390fd5b6004546040516001600160a01b038084169216907f1cf2de25c5bf439ac0287061c3a0fa69b3b02867d0ccfd2ded34e42577050b73905f90a3600480546001600160a01b0319166001600160a01b0392909216919091179055565b5f6020808352835180828501525f5b81811015610aa257858101830151858201604001528201610a86565b505f604082860101526040601f19601f8301168501019250505092915050565b80356001600160a01b0381168114610ad8575f80fd5b919050565b5f8060408385031215610aee575f80fd5b610af783610ac2565b946020939093013593505050565b5f805f60608486031215610b17575f80fd5b610b2084610ac2565b9250610b2e60208501610ac2565b9150604084013590509250925092565b5f60208284031215610b4e575f80fd5b5035919050565b5f60208284031215610b65575f80fd5b610b6e82610ac2565b9392505050565b5f8060408385031215610b86575f80fd5b610b8f83610ac2565b9150610b9d60208401610ac2565b90509250929050565b634e487b7160e01b5f52601160045260245ffd5b8181038181111561037d5761037d610ba6565b8082018082111561037d5761037d610ba6565b808202811582820484141761037d5761037d610ba6565b5f82610c1157634e487b7160e01b5f52601260045260245ffd5b50049056feddf252ad1be2c89b69c2b068fc378daa952ba7f163c4a11628f55a4df523b3efa26469706673582212209812fd2d50fdf0b68166c903c0ba9aa2e4c249eb3715081672c176acdae0d2f464736f6c63430008150033","linkReferences":{}},"methodIdentifiers":{"MAX_SUPPLY()":"32cb6b0c","allowance(address,address)":"dd62ed3e","approve(address,uint256)":"095ea7b3","balanceOf(address)":"70a08231","burn(uint256)":"42966c68","burnFrom(address,uint256)":"79cc6790","decimals()":"313ce567","mint(address,uint256)":"40c10f19","minter()":"07546172","name()":"06fdde03","owner()":"8da5cb5b","remainingMintable()":"f76e95e5","setMinter(address)":"fca3b5aa","supplyEmittedBps()":"aca1ab58","symbol()":"95d89b41","totalSupply()":"18160ddd","transfer(address,uint256)":"a9059cbb","transferFrom(address,address,uint256)":"23b872dd","transferOwnership(address)":"f2fde38b"},"id":21}