{"abi":[{"type":"constructor","inputs":[{"name":"_minter","type":"address","internalType":"address"}],"stateMutability":"nonpayable"},{"type":"function","name":"MAX_SUPPLY","inputs":[],"outputs":[{"name":"","type":"uint256","internalType":"uint256"}],"stateMutability":"view"},{"type":"function","name":"allowance","inputs":[{"name":"","type":"address","internalType":"address"},{"name":"","type":"address","internalType":"address"}],"outputs":[{"name":"","type":"uint256","internalType":"uint256"}],"stateMutability":"view"},{"type":"function","name":"approve","inputs":[{"name":"spender","type":"address","internalType":"address"},{"name":"amount","type":"uint256","internalType":"uint256"}],"outputs":[{"name":"","type":"bool","internalType":"bool"}],"stateMutability":"nonpayable"},{"type":"function","name":"balanceOf","inputs":[{"name":"","type":"address","internalType":"address"}],"outputs":[{"name":"","type":"uint256","internalType":"uint256"}],"stateMutability":"view"},{"type":"function","name":"burn","inputs":[{"name":"amount","type":"uint256","internalType":"uint256"}],"outputs":[],"stateMutability":"nonpayable"},{"type":"function","name":"burnFrom","inputs":[{"name":"from","type":"address","internalType":"address"},{"name":"amount","type":"uint256","internalType":"uint256"}],"outputs":[],"stateMutability":"nonpayable"},{"type":"function","name":"decimals","inputs":[],"outputs":[{"name":"","type":"uint8","internalType":"uint8"}],"stateMutability":"view"},{"type":"function","name":"mint","inputs":[{"name":"to","type":"address","internalType":"address"},{"name":"amount","type":"uint256","internalType":"uint256"}],"outputs":[],"stateMutability":"nonpayable"},{"type":"function","name":"minter","inputs":[],"outputs":[{"name":"","type":"address","internalType":"address"}],"stateMutability":"view"},{"type":"function","name":"name","inputs":[],"outputs":[{"name":"","type":"string","internalType":"string"}],"stateMutability":"view"},{"type":"function","name":"owner","inputs":[],"outputs":[{"name":"","type":"address","internalType":"address"}],"stateMutability":"view"},{"type":"function","name":"remainingMintable","inputs":[],"outputs":[{"name":"","type":"uint256","internalType":"uint256"}],"stateMutability":"view"},{"type":"function","name":"setMinter","inputs":[{"name":"newMinter","type":"address","internalType":"address"}],"outputs":[],"stateMutability":"nonpayable"},{"type":"function","name":"supplyEmittedBps","inputs":[],"outputs":[{"name":"","type":"uint256","internalType":"uint256"}],"stateMutability":"view"},{"type":"function","name":"symbol","inputs":[],"outputs":[{"name":"","type":"string","internalType":"string"}],"stateMutability":"view"},{"type":"function","name":"totalSupply","inputs":[],"outputs":[{"name":"","type":"uint256","internalType":"uint256"}],"stateMutability":"view"},{"type":"function","name":"transfer","inputs":[{"name":"to","type":"address","internalType":"address"},{"name":"amount","type":"uint256","internalType":"uint256"}],"outputs":[{"name":"","type":"bool","internalType":"bool"}],"stateMutability":"nonpayable"},{"type":"function","name":"transferFrom","inputs":[{"name":"from","type":"address","internalType":"address"},{"name":"to","type":"address","internalType":"address"},{"name":"amount","type":"uint256","internalType":"uint256"}],"outputs":[{"name":"","type":"bool","internalType":"bool"}],"stateMutability":"nonpayable"},{"type":"function","name":"transferOwnership","inputs":[{"name":"newOwner","type":"address","internalType":"address"}],"outputs":[],"stateMutability":"nonpayable"},{"type":"event","name":"Approval","inputs":[{"name":"owner","type":"address","indexed":true,"internalType":"address"},{"name":"spender","type":"address","indexed":true,"internalType":"address"},{"name":"value","type":"uint256","indexed":false,"internalType":"uint256"}],"anonymous":false},{"type":"event","name":"MinterUpdated","inputs":[{"name":"oldMinter","type":"address","indexed":true,"internalType":"address"},{"name":"newMinter","type":"address","indexed":true,"internalType":"address"}],"anonymous":false},{"type":"event","name":"OwnershipTransferred","inputs":[{"name":"oldOwner","type":"address","indexed":true,"internalType":"address"},{"name":"newOwner","type":"address","indexed":true,"internalType":"address"}],"anonymous":false},{"type":"event","name":"Transfer","inputs":[{"name":"from","type":"address","indexed":true,"internalType":"address"},{"name":"to","type":"address","indexed":true,"internalType":"address"},{"name":"value","type":"uint256","indexed":false,"internalType":"uint256"}],"anonymous":false},{"type":"error","name":"CapExceeded","inputs":[{"name":"requested","type":"uint256","internalType":"uint256"},{"name":"available","type":"uint256","internalType":"uint256"}]},{"type":"error","name":"InsufficientAllowance","inputs":[{"name":"requested","type":"uint256","internalType":"uint256"},{"name":"allowed","type":"uint256","internalType":"uint256"}]},{"type":"error","name":"InsufficientBalance","inputs":[{"name":"requested","type":"uint256","internalType":"uint256"},{"name":"available","type":"uint256","internalType":"uint256"}]},{"type":"error","name":"NotMinter","inputs":[]},{"type":"error","name":"NotOwner","inputs":[]},{"type":"error","name":"ZeroAddress","inputs":[]}],"bytecode":{"object":"0x60803461009257601f610af038819003918201601f19168301916001600160401b038311848410176100965780849260209460405283398101031261009257516001600160a01b038116908190036100925780156100805760018060a01b0319338160035416176003556004541617600455604051610a4590816100ab8239f35b60405163d92e233d60e01b8152600490fd5b5f80fd5b634e487b7160e01b5f52604160045260245ffdfe6080604081815260049081361015610015575f80fd5b5f92833560e01c90816306fdde03146108bb575080630754617214610893578063095ea7b31461082257806318160ddd1461080557806323b872dd146106e7578063313ce567146106cb57806332cb6b0c146106a557806340c10f19146105be57806342966c681461055157806370a082311461051957806379cc6790146104195780638da5cb5b146103f057806395d89b411461038a578063a9059cbb146102d1578063aca1ab58146102ad578063dd62ed3e14610264578063f2fde38b146101d3578063f76e95e5146101865763fca3b5aa146100f2575f80fd5b346101825760203660031901126101825761010b610965565b6003546001600160a01b0391908216330361017357811691821561016457508183549182167f1cf2de25c5bf439ac0287061c3a0fa69b3b02867d0ccfd2ded34e42577050b738680a36001600160a01b03191617905580f35b5163d92e233d60e01b81528390fd5b5050516330cd747160e01b8152fd5b8280fd5b508290346101cf57816003193601126101cf578154916a52b7d2dcc80cd2e40000009283039283116101bc576020838351908152f35b634e487b7160e01b815260118452602490fd5b5080fd5b509034610182576020366003190112610182576101ee610965565b600354916001600160a01b038084169233849003610254571693841561024757505082907f8be0079c531659141344cd1fd0a4f28419497f9722a3daafe3b4186f6b6457e08580a36001600160a01b0319161760035580f35b5163d92e233d60e01b8152fd5b85516330cd747160e01b81528390fd5b8382346101cf57806003193601126101cf5780602092610282610965565b61028a61097f565b6001600160a01b0391821683526002865283832091168252845220549051908152f35b8382346101cf57816003193601126101cf576020906102ca6109c3565b9051908152f35b5090346101825781600319360112610182576102eb610965565b6001600160a01b03169060243590821561037c57338552600160205283852054828110610362575050826020943381526001865281812061032d848254610995565b905583815260018652206103428282546109b6565b905582519081525f805160206109f0833981519152843392a35160018152f35b60449285519263cf47918160e01b84528301526024820152fd5b835163d92e233d60e01b8152fd5b508290346101cf57816003193601126101cf578051918183019083821067ffffffffffffffff8311176103dd57506103d993508152600382526246424b60e81b6020830152519182918261091e565b0390f35b634e487b7160e01b815260418552602490fd5b8382346101cf57816003193601126101cf5760035490516001600160a01b039091168152602090f35b508290346101cf57806003193601126101cf57610434610965565b6024359060018060a01b03169182845260209460028652818520338652865281852054908382106104fe5784865260018752828620548481106104e1575050918495915f805160206109f083398151915293825f1982036104be575b5050848652600183528086206104a7838254610995565b90556104b4828754610995565b865551908152a380f35b6104c791610995565b858752600284528187203388528452818720558782610490565b835163cf47918160e01b8152918201859052602482015260449150fd5b9192604493519263054365bb60e31b84528301526024820152fd5b8382346101cf5760203660031901126101cf5760209181906001600160a01b03610541610965565b1681526001845220549051908152f35b509190346101cf5760203660031901126101cf5780359033835260016020528383205482811061036257505081923383526001602052808320610595838254610995565b90556105a2828454610995565b8355519081525f805160206109f083398151915260203392a380f35b50346101825780600319360112610182576105d7610965565b825460243592916001600160a01b0391821633036106955716928315610687578454906a52b7d2dcc80cd2e400000082810390811161067457808511610657575050825f805160206109f08339815191529261063687956020946109b6565b85558585526001835280852061064d8382546109b6565b905551908152a380f35b835163f480e28560e01b8152918201859052602482015260449150fd5b634e487b7160e01b875260118252602487fd5b905163d92e233d60e01b8152fd5b8251633e34a41b60e21b81528590fd5b8382346101cf57816003193601126101cf57602090516a52b7d2dcc80cd2e40000008152f35b8382346101cf57816003193601126101cf576020905160128152f35b50823461080257606036600319011261080257610702610965565b61070a61097f565b906044359060018060a01b038091169283855260209660028852868620338752885286862054908482106107e75785875260018952878720548581106107ca5750508792849288925f805160206109f0833981519152965f1982036107a7575b505086885260018552828820610781858254610995565b9055169586815260018452206107988282546109b6565b90558551908152a35160018152f35b6107b091610995565b87895260028652838920338a528652838920558a8461076a565b885163cf47918160e01b8152918201869052602482015260449150fd5b6044918589519263054365bb60e31b84528301526024820152fd5b80fd5b8382346101cf57816003193601126101cf57602091549051908152f35b8382346101cf57806003193601126101cf5760209181610840610965565b91602435918291338152600287528181209460018060a01b0316948582528752205582519081527f8c5be1e5ebec7d5bd14f71427d1e84f3dd0314c0f7b2291e5b200ac8c7c3b925843392a35160018152f35b5090346101825782600319360112610182575490516001600160a01b03909116815260209150f35b92939050346108025780600319360112610802578183019083821067ffffffffffffffff8311176103dd57506103d993508152601882527f46696e42616e6b20476f7665726e616e636520546f6b656e0000000000000000602083015251918291825b602080825282518183018190529093925f5b82811061095157505060409293505f838284010152601f8019910116010190565b818101860151848201604001528501610930565b600435906001600160a01b038216820361097b57565b5f80fd5b602435906001600160a01b038216820361097b57565b919082039182116109a257565b634e487b7160e01b5f52601160045260245ffd5b919082018092116109a257565b5f5480156109ea57612710808202918204036109a2576a52b7d2dcc80cd2e4000000900490565b505f9056feddf252ad1be2c89b69c2b068fc378daa952ba7f163c4a11628f55a4df523b3efa2646970667358221220de9bf888d14fde721a1e54832442606c81566b3f666ea93c6865bb92a4372c2e64736f6c63430008150033","linkReferences":{}},"methodIdentifiers":{"MAX_SUPPLY()":"32cb6b0c","allowance(address,address)":"dd62ed3e","approve(address,uint256)":"095ea7b3","balanceOf(address)":"70a08231","burn(uint256)":"42966c68","burnFrom(address,uint256)":"79cc6790","decimals()":"313ce567","mint(address,uint256)":"40c10f19","minter()":"07546172","name()":"06fdde03","owner()":"8da5cb5b","remainingMintable()":"f76e95e5","setMinter(address)":"fca3b5aa","supplyEmittedBps()":"aca1ab58","symbol()":"95d89b41","totalSupply()":"18160ddd","transfer(address,uint256)":"a9059cbb","transferFrom(address,address,uint256)":"23b872dd","transferOwnership(address)":"f2fde38b"},"id":21}