{"abi":[{"type":"constructor","inputs":[{"name":"_fbk","type":"address","internalType":"address"}],"stateMutability":"nonpayable"},{"type":"function","name":"MAX_LOCK_DURATION","inputs":[],"outputs":[{"name":"","type":"uint256","internalType":"uint256"}],"stateMutability":"view"},{"type":"function","name":"MIN_LOCK_DURATION","inputs":[],"outputs":[{"name":"","type":"uint256","internalType":"uint256"}],"stateMutability":"view"},{"type":"function","name":"WEEK","inputs":[],"outputs":[{"name":"","type":"uint256","internalType":"uint256"}],"stateMutability":"view"},{"type":"function","name":"balanceOf","inputs":[{"name":"user","type":"address","internalType":"address"}],"outputs":[{"name":"","type":"uint256","internalType":"uint256"}],"stateMutability":"view"},{"type":"function","name":"balanceOfAt","inputs":[{"name":"user","type":"address","internalType":"address"},{"name":"timestamp","type":"uint256","internalType":"uint256"}],"outputs":[{"name":"","type":"uint256","internalType":"uint256"}],"stateMutability":"view"},{"type":"function","name":"createLock","inputs":[{"name":"amount","type":"uint256","internalType":"uint256"},{"name":"lockDuration","type":"uint256","internalType":"uint256"}],"outputs":[],"stateMutability":"nonpayable"},{"type":"function","name":"extendLock","inputs":[{"name":"newUnlockTime","type":"uint256","internalType":"uint256"}],"outputs":[],"stateMutability":"nonpayable"},{"type":"function","name":"fbk","inputs":[],"outputs":[{"name":"","type":"address","internalType":"contract IFBK"}],"stateMutability":"view"},{"type":"function","name":"increaseAmount","inputs":[{"name":"additionalAmount","type":"uint256","internalType":"uint256"}],"outputs":[],"stateMutability":"nonpayable"},{"type":"function","name":"isExpired","inputs":[{"name":"user","type":"address","internalType":"address"}],"outputs":[{"name":"","type":"bool","internalType":"bool"}],"stateMutability":"view"},{"type":"function","name":"locked","inputs":[{"name":"","type":"address","internalType":"address"}],"outputs":[{"name":"amount","type":"uint128","internalType":"uint128"},{"name":"end","type":"uint64","internalType":"uint64"}],"stateMutability":"view"},{"type":"function","name":"remainingLockDuration","inputs":[{"name":"user","type":"address","internalType":"address"}],"outputs":[{"name":"","type":"uint256","internalType":"uint256"}],"stateMutability":"view"},{"type":"function","name":"totalLocked","inputs":[],"outputs":[{"name":"","type":"uint256","internalType":"uint256"}],"stateMutability":"view"},{"type":"function","name":"totalSupply","inputs":[],"outputs":[{"name":"total","type":"uint256","internalType":"uint256"}],"stateMutability":"view"},{"type":"function","name":"withdraw","inputs":[],"outputs":[],"stateMutability":"nonpayable"},{"type":"event","name":"LockCreated","inputs":[{"name":"user","type":"address","indexed":true,"internalType":"address"},{"name":"amount","type":"uint256","indexed":false,"internalType":"uint256"},{"name":"unlockTime","type":"uint256","indexed":false,"internalType":"uint256"}],"anonymous":false},{"type":"event","name":"LockExtended","inputs":[{"name":"user","type":"address","indexed":true,"internalType":"address"},{"name":"oldEnd","type":"uint256","indexed":false,"internalType":"uint256"},{"name":"newEnd","type":"uint256","indexed":false,"internalType":"uint256"}],"anonymous":false},{"type":"event","name":"LockIncreased","inputs":[{"name":"user","type":"address","indexed":true,"internalType":"address"},{"name":"addedAmount","type":"uint256","indexed":false,"internalType":"uint256"},{"name":"newTotal","type":"uint256","indexed":false,"internalType":"uint256"}],"anonymous":false},{"type":"event","name":"Withdrawn","inputs":[{"name":"user","type":"address","indexed":true,"internalType":"address"},{"name":"amount","type":"uint256","indexed":false,"internalType":"uint256"}],"anonymous":false},{"type":"error","name":"LockAlreadyExists","inputs":[]},{"type":"error","name":"LockExpired","inputs":[]},{"type":"error","name":"LockNotExpired","inputs":[{"name":"unlockTime","type":"uint256","internalType":"uint256"}]},{"type":"error","name":"LockTooLong","inputs":[{"name":"duration","type":"uint256","internalType":"uint256"},{"name":"maximum","type":"uint256","internalType":"uint256"}]},{"type":"error","name":"LockTooShort","inputs":[{"name":"duration","type":"uint256","internalType":"uint256"},{"name":"minimum","type":"uint256","internalType":"uint256"}]},{"type":"error","name":"NewEndNotLater","inputs":[{"name":"current","type":"uint256","internalType":"uint256"},{"name":"proposed","type":"uint256","internalType":"uint256"}]},{"type":"error","name":"NoLockFound","inputs":[]},{"type":"error","name":"ZeroAddress","inputs":[]},{"type":"error","name":"ZeroAmount","inputs":[]}],"bytecode":{"object":"0x60a060405234801561000f575f80fd5b50604051610d95380380610d9583398101604081905261002e91610066565b6001600160a01b0381166100555760405163d92e233d60e01b815260040160405180910390fd5b6001600160a01b0316608052610093565b5f60208284031215610076575f80fd5b81516001600160a01b038116811461008c575f80fd5b9392505050565b608051610cd56100c05f395f818161025a0152818161040b015281816105c60152610a0a0152610cd55ff3fe608060405234801561000f575f80fd5b50600436106100f0575f3560e01c80635689141211610093578063ba2eb54111610063578063ba2eb541146101a9578063cbf9fe5f146101f4578063de53befc14610255578063f4359ce51461018c575f80fd5b8063568914121461017057806370a082311461017957806378b4330f1461018c578063b52c05fe14610196575f80fd5b80633ccfd60b116100ce5780633ccfd60b1461013757806344ee3a1c1461013f5780634ee2cd7e146101525780634f1bfc9e14610165575f80fd5b806313f804cf146100f457806315456eba1461011a57806318160ddd1461012f575b5f80fd5b610107610102366004610b71565b610294565b6040519081526020015b60405180910390f35b61012d610128366004610b8a565b610306565b005b600154610107565b61012d6104c9565b61012d61014d366004610b8a565b61066b565b610107610160366004610ba1565b610808565b610107630784ce0081565b61010760015481565b610107610187366004610b71565b610860565b61010762093a8081565b61012d6101a4366004610bc9565b6108ae565b6101e46101b7366004610b71565b6001600160a01b03165f90815260208190526040902054600160801b90046001600160401b031642101590565b6040519015158152602001610111565b61022e610202366004610b71565b5f602081905290815260409020546001600160801b03811690600160801b90046001600160401b031682565b604080516001600160801b0390931683526001600160401b03909116602083015201610111565b61027c7f000000000000000000000000000000000000000000000000000000000000000081565b6040516001600160a01b039091168152602001610111565b6001600160a01b0381165f908152602081815260408083208151808301909252546001600160801b0381168252600160801b90046001600160401b03169181018290529042106102e657505f92915050565b4281602001516001600160401b03166102ff9190610bfd565b9392505050565b805f0361032657604051631f2a200560e01b815260040160405180910390fd5b335f908152602081905260408120805490916001600160801b0390911690036103625760405163f90e998d60e01b815260040160405180910390fd5b8054600160801b90046001600160401b03164210610393576040516307b7d7dd60e51b815260040160405180910390fd5b8054829082905f906103af9084906001600160801b0316610c10565b92506101000a8154816001600160801b0302191690836001600160801b031602179055508160015f8282546103e49190610c37565b90915550506040516323b872dd60e01b8152336004820152306024820152604481018390527f00000000000000000000000000000000000000000000000000000000000000006001600160a01b0316906323b872dd906064016020604051808303815f875af1158015610459573d5f803e3d5ffd5b505050506040513d601f19601f8201168201806040525081019061047d9190610c4a565b508054604080518481526001600160801b03909216602083015233917f9917a91d5994dc0f10f7f78baa61fe966dc9ad3db5aad77b9cdcbf62e7c0248c91015b60405180910390a25050565b335f908152602081815260408083208151808301909252546001600160801b038116808352600160801b9091046001600160401b03169282019290925291036105255760405163f90e998d60e01b815260040160405180910390fd5b80602001516001600160401b031642101561056957602081015160405163d36971e360e01b81526001600160401b0390911660048201526024015b60405180910390fd5b8051335f90815260208190526040812080546001600160c01b0319169055600180546001600160801b03909316928392906105a5908490610bfd565b909155505060405163a9059cbb60e01b8152336004820152602481018290527f00000000000000000000000000000000000000000000000000000000000000006001600160a01b03169063a9059cbb906044016020604051808303815f875af1158015610614573d5f803e3d5ffd5b505050506040513d601f19601f820116820180604052508101906106389190610c4a565b5060405181815233907f7084f5476618d8e60b11ef0d7d3f06914655adb8793e28ff7f018d4c76d505d5906020016104bd565b335f908152602081905260408120805490916001600160801b0390911690036106a75760405163f90e998d60e01b815260040160405180910390fd5b8054600160801b90046001600160401b031642106106d8576040516307b7d7dd60e51b815260040160405180910390fd5b5f6106e283610ac5565b82549091506001600160401b03600160801b90910481169082161161073757815460405163b3c0225f60e01b8152600160801b9091046001600160401b03908116600483015282166024820152604401610560565b61074d610748630784ce0042610c37565b610ac5565b816001600160401b0316111561079757610770426001600160401b038316610bfd565b60405163cdd02da560e01b81526004810191909152630784ce006024820152604401610560565b81546001600160401b03828116600160801b81810267ffffffffffffffff60801b198516178655604080519190940490921680835260208301919091529133917f050932e79e5bc73d7c0e6856f9b80ae760803919f72fdb530c47608b3c2ffbd8910160405180910390a250505050565b6001600160a01b0382165f908152602081815260408083208151808301909252546001600160801b0381168252600160801b90046001600160401b0316918101919091526108568184610ade565b9150505b92915050565b6001600160a01b0381165f908152602081815260408083208151808301909252546001600160801b0381168252600160801b90046001600160401b0316918101919091526102ff8142610ade565b815f036108ce57604051631f2a200560e01b815260040160405180910390fd5b62093a808110156108fe57604051639593d0a960e01b81526004810182905262093a806024820152604401610560565b630784ce008111156109305760405163cdd02da560e01b815260048101829052630784ce006024820152604401610560565b335f908152602081905260409020546001600160801b0316156109665760405163748d150960e01b815260040160405180910390fd5b5f6109746107488342610c37565b6040805180820182526001600160801b0380871682526001600160401b038085166020808501918252335f90815290819052948520935184549151909216600160801b026001600160c01b031990911691909216171790556001805492935085929091906109e3908490610c37565b90915550506040516323b872dd60e01b8152336004820152306024820152604481018490527f00000000000000000000000000000000000000000000000000000000000000006001600160a01b0316906323b872dd906064016020604051808303815f875af1158015610a58573d5f803e3d5ffd5b505050506040513d601f19601f82011682018060405250810190610a7c9190610c4a565b50604080518481526001600160401b038316602082015233917f167357c41e38a45e1950f61b1f5accf902c878d83f1685f7f72fb666203ce047910160405180910390a2505050565b5f62093a80610ad48184610c69565b61085a9190610c88565b81515f906001600160801b03168103610af857505f61085a565b82602001516001600160401b03168210610b1357505f61085a565b5f8284602001516001600160401b0316610b2d9190610bfd565b9050630784ce0081855f01516001600160801b0316610b4c9190610c88565b6108569190610c69565b80356001600160a01b0381168114610b6c575f80fd5b919050565b5f60208284031215610b81575f80fd5b6102ff82610b56565b5f60208284031215610b9a575f80fd5b5035919050565b5f8060408385031215610bb2575f80fd5b610bbb83610b56565b946020939093013593505050565b5f8060408385031215610bda575f80fd5b50508035926020909101359150565b634e487b7160e01b5f52601160045260245ffd5b8181038181111561085a5761085a610be9565b6001600160801b03818116838216019080821115610c3057610c30610be9565b5092915050565b8082018082111561085a5761085a610be9565b5f60208284031215610c5a575f80fd5b815180151581146102ff575f80fd5b5f82610c8357634e487b7160e01b5f52601260045260245ffd5b500490565b808202811582820484141761085a5761085a610be956fea26469706673582212207585888bdeb8efd4acdfb428814e7c0f50f239768fe4ffa9e990deb2b5abb8bf64736f6c63430008150033","linkReferences":{}},"methodIdentifiers":{"MAX_LOCK_DURATION()":"4f1bfc9e","MIN_LOCK_DURATION()":"78b4330f","WEEK()":"f4359ce5","balanceOf(address)":"70a08231","balanceOfAt(address,uint256)":"4ee2cd7e","createLock(uint256,uint256)":"b52c05fe","extendLock(uint256)":"44ee3a1c","fbk()":"de53befc","increaseAmount(uint256)":"15456eba","isExpired(address)":"ba2eb541","locked(address)":"cbf9fe5f","remainingLockDuration(address)":"13f804cf","totalLocked()":"56891412","totalSupply()":"18160ddd","withdraw()":"3ccfd60b"},"id":24}