{"abi":[{"type":"constructor","inputs":[{"name":"_fbk","type":"address","internalType":"address"}],"stateMutability":"nonpayable"},{"type":"function","name":"MAX_LOCK_DURATION","inputs":[],"outputs":[{"name":"","type":"uint256","internalType":"uint256"}],"stateMutability":"view"},{"type":"function","name":"MIN_LOCK_DURATION","inputs":[],"outputs":[{"name":"","type":"uint256","internalType":"uint256"}],"stateMutability":"view"},{"type":"function","name":"WEEK","inputs":[],"outputs":[{"name":"","type":"uint256","internalType":"uint256"}],"stateMutability":"view"},{"type":"function","name":"balanceOf","inputs":[{"name":"user","type":"address","internalType":"address"}],"outputs":[{"name":"","type":"uint256","internalType":"uint256"}],"stateMutability":"view"},{"type":"function","name":"balanceOfAt","inputs":[{"name":"user","type":"address","internalType":"address"},{"name":"timestamp","type":"uint256","internalType":"uint256"}],"outputs":[{"name":"","type":"uint256","internalType":"uint256"}],"stateMutability":"view"},{"type":"function","name":"createLock","inputs":[{"name":"amount","type":"uint256","internalType":"uint256"},{"name":"lockDuration","type":"uint256","internalType":"uint256"}],"outputs":[],"stateMutability":"nonpayable"},{"type":"function","name":"extendLock","inputs":[{"name":"newUnlockTime","type":"uint256","internalType":"uint256"}],"outputs":[],"stateMutability":"nonpayable"},{"type":"function","name":"fbk","inputs":[],"outputs":[{"name":"","type":"address","internalType":"contract IFBK"}],"stateMutability":"view"},{"type":"function","name":"increaseAmount","inputs":[{"name":"additionalAmount","type":"uint256","internalType":"uint256"}],"outputs":[],"stateMutability":"nonpayable"},{"type":"function","name":"isExpired","inputs":[{"name":"user","type":"address","internalType":"address"}],"outputs":[{"name":"","type":"bool","internalType":"bool"}],"stateMutability":"view"},{"type":"function","name":"locked","inputs":[{"name":"","type":"address","internalType":"address"}],"outputs":[{"name":"amount","type":"uint128","internalType":"uint128"},{"name":"end","type":"uint64","internalType":"uint64"}],"stateMutability":"view"},{"type":"function","name":"remainingLockDuration","inputs":[{"name":"user","type":"address","internalType":"address"}],"outputs":[{"name":"","type":"uint256","internalType":"uint256"}],"stateMutability":"view"},{"type":"function","name":"totalLocked","inputs":[],"outputs":[{"name":"","type":"uint256","internalType":"uint256"}],"stateMutability":"view"},{"type":"function","name":"totalSupply","inputs":[],"outputs":[{"name":"total","type":"uint256","internalType":"uint256"}],"stateMutability":"view"},{"type":"function","name":"withdraw","inputs":[],"outputs":[],"stateMutability":"nonpayable"},{"type":"event","name":"LockCreated","inputs":[{"name":"user","type":"address","indexed":true,"internalType":"address"},{"name":"amount","type":"uint256","indexed":false,"internalType":"uint256"},{"name":"unlockTime","type":"uint256","indexed":false,"internalType":"uint256"}],"anonymous":false},{"type":"event","name":"LockExtended","inputs":[{"name":"user","type":"address","indexed":true,"internalType":"address"},{"name":"oldEnd","type":"uint256","indexed":false,"internalType":"uint256"},{"name":"newEnd","type":"uint256","indexed":false,"internalType":"uint256"}],"anonymous":false},{"type":"event","name":"LockIncreased","inputs":[{"name":"user","type":"address","indexed":true,"internalType":"address"},{"name":"addedAmount","type":"uint256","indexed":false,"internalType":"uint256"},{"name":"newTotal","type":"uint256","indexed":false,"internalType":"uint256"}],"anonymous":false},{"type":"event","name":"Withdrawn","inputs":[{"name":"user","type":"address","indexed":true,"internalType":"address"},{"name":"amount","type":"uint256","indexed":false,"internalType":"uint256"}],"anonymous":false},{"type":"error","name":"AmountTooLarge","inputs":[{"name":"amount","type":"uint256","internalType":"uint256"},{"name":"maximum","type":"uint256","internalType":"uint256"}]},{"type":"error","name":"LockAlreadyExists","inputs":[]},{"type":"error","name":"LockExpired","inputs":[]},{"type":"error","name":"LockNotExpired","inputs":[{"name":"unlockTime","type":"uint256","internalType":"uint256"}]},{"type":"error","name":"LockTooLong","inputs":[{"name":"duration","type":"uint256","internalType":"uint256"},{"name":"maximum","type":"uint256","internalType":"uint256"}]},{"type":"error","name":"LockTooShort","inputs":[{"name":"duration","type":"uint256","internalType":"uint256"},{"name":"minimum","type":"uint256","internalType":"uint256"}]},{"type":"error","name":"NewEndNotLater","inputs":[{"name":"current","type":"uint256","internalType":"uint256"},{"name":"proposed","type":"uint256","internalType":"uint256"}]},{"type":"error","name":"NoLockFound","inputs":[]},{"type":"error","name":"ZeroAddress","inputs":[]},{"type":"error","name":"ZeroAmount","inputs":[]}],"bytecode":{"object":"0x60a03461009857601f610bd738819003918201601f19168301916001600160401b0383118484101761009c5780849260209460405283398101031261009857516001600160a01b0381169081900361009857801561008657608052604051610b2690816100b1823960805181818160df015281816102ce015281816106ef015261085f0152f35b60405163d92e233d60e01b8152600490fd5b5f80fd5b634e487b7160e01b5f52604160045260245ffdfe60406080815260049081361015610014575f80fd5b5f90813560e01c92836313f804cf1461092b57836315456eba146107a057836318160ddd1461044a5783633ccfd60b1461065257836344ee3a1c146104e95783634ee2cd7e146104865783634f1bfc9e14610468578363568914121461044a57836370a08231146103e157836378b4330f146100c7578363b52c05fe146101a657508263ba2eb54114610161578263cbf9fe5f14610112578263de53befc146100cc57505063f4359ce5146100c7575f80fd5b61096a565b3461010e578160031936011261010e57517f00000000000000000000000000000000000000000000000000000000000000006001600160a01b03168152602090f35b5080fd5b3461010e57602036600319011261010e579081906001600160a01b03610136610950565b1681528060205220546001600160401b038251916001600160801b038116835260801c166020820152f35b3461010e57602036600319011261010e576020916001600160401b039082906001600160a01b03610190610950565b168152808552205460801c164210159051908152f35b92503461010e578060031936011261010e5782359060243582156103d1576001600160801b038084116103b55762093a808083106103995750630784ce0080831161037d575033855260209185835281848720541661036d5791846102c9969761028b8394610223966102286001600160401b0398899242610987565b610ad6565b16968b895192610237846109a8565b86811684528784018a8152338352828952918b902093518454925167ffffffffffffffff60801b1991909216166001600160c01b031990921691909117911660801b67ffffffffffffffff60801b16179055565b61029782600154610987565b60015585516323b872dd60e01b8152339181019182523060208301526040820192909252909687918291606090910190565b0381897f00000000000000000000000000000000000000000000000000000000000000006001600160a01b03165af1948515610363577f167357c41e38a45e1950f61b1f5accf902c878d83f1685f7f72fb666203ce0479495610336575b5082519485528401523392a280f35b61035590823d841161035c575b61034d81836109d7565b8101906109f8565b505f610327565b503d610343565b83513d88823e3d90fd5b835163748d150960e01b81528790fd5b866044918486519263cdd02da560e01b84528301526024820152fd5b8660449184865192639593d0a960e01b84528301526024820152fd5b8560449185855192637f16270360e01b84528301526024820152fd5b8151631f2a200560e01b81528590fd5b503461010e57602036600319011261010e576020916104439082906001600160a01b0361040c610950565b168152808552206001600160401b03835191610427836109a8565b546001600160801b038116835260801c16848201524290610a77565b9051908152f35b503461010e578160031936011261010e576020906001549051908152f35b503461010e578160031936011261010e5760209051630784ce008152f35b503461010e578060031936011261010e576020916104439082906001600160a01b036104b0610950565b168152808552206001600160401b038351916104cb836109a8565b546001600160801b038116835260801c168482015260243590610a77565b3461064e57602036600319011261064e5733835282602052818320918254926001600160801b03841615610640576001600160401b03809460801c169384421015610631576105388435610ad6565b16928484111561060157630784ce008042018042116105ee5761055a90610ad6565b85116105c7575050805467ffffffffffffffff60801b1916608084901b67ffffffffffffffff60801b16179055516001600160401b0392831681529116602082015233907f050932e79e5bc73d7c0e6856f9b80ae760803919f72fdb530c47608b3c2ffbd890604090a280f35b9150916105d76044944290610a10565b905163cdd02da560e01b8152928301526024820152fd5b634e487b7160e01b885260118352602488fd5b915163b3c0225f60e01b81526001600160401b039485169281019283529390921660208201528291506040010390fd5b5050516307b7d7dd60e51b8152fd5b505163f90e998d60e01b8152fd5b8280fd5b903461064e578260031936011261064e57338352602083815281842082519061067a826109a8565b54906001600160801b0391828116908183526001600160401b0391828685019260801c1682521561079057511680421061077a575051169133855284825284818120556106c983600154610a10565b600155805163a9059cbb60e01b81523394810194909452602484018390528184604481887f00000000000000000000000000000000000000000000000000000000000000006001600160a01b03165af1938415610770577f7084f5476618d8e60b11ef0d7d3f06914655adb8793e28ff7f018d4c76d505d59394610753575b50519283523392a280f35b61076990833d851161035c5761034d81836109d7565b5085610748565b81513d87823e3d90fd5b8560249186519163d36971e360e01b8352820152fd5b855163f90e998d60e01b81528790fd5b92503461010e576020908160031936011261064e5783359182156103d157338452838152818420948554956001600160801b0391828816801561091c576001600160401b038960801c1642101561090d57866107fb91610987565b978389116108f157849187918561085a9a9b16906001600160801b03191617845561082882600154610987565b60015586516323b872dd60e01b8152339181019182523060208301526040820192909252909788918291606090910190565b03818a7f00000000000000000000000000000000000000000000000000000000000000006001600160a01b03165af19586156108e7577f9917a91d5994dc0f10f7f78baa61fe966dc9ad3db5aad77b9cdcbf62e7c0248c95966108ca575b5054169082519485528401523392a280f35b6108e090843d861161035c5761034d81836109d7565b505f6108b8565b84513d89823e3d90fd5b604482858b895192637f16270360e01b84528301526024820152fd5b5084516307b7d7dd60e51b8152fd5b50845163f90e998d60e01b8152fd5b503461010e57602036600319011261010e5760209061044361094b610950565b610a1d565b600435906001600160a01b038216820361096657565b5f80fd5b34610966575f36600319011261096657602060405162093a808152f35b9190820180921161099457565b634e487b7160e01b5f52601160045260245ffd5b604081019081106001600160401b038211176109c357604052565b634e487b7160e01b5f52604160045260245ffd5b90601f801991011681019081106001600160401b038211176109c357604052565b90816020910312610966575180151581036109665790565b9190820391821161099457565b60018060a01b03165f525f602052602060405f206001600160401b0360405191610a46836109a8565b546001600160801b038116835260801c16918291015242811115610a7257610a6f904290610a10565b90565b505f90565b906001600160801b03908183511615610acf576001600160401b036020840151169081811015610ac757610aaa91610a10565b91511681810291818304149015171561099457630784ce00900490565b505050505f90565b5050505f90565b62093a80809104818102918183041490151715610994579056fea264697066735822122036e636ee586dd770ffc0ac06c4c57364a99b45a654cfe0ebf5af718340adb9b464736f6c63430008150033","linkReferences":{}},"methodIdentifiers":{"MAX_LOCK_DURATION()":"4f1bfc9e","MIN_LOCK_DURATION()":"78b4330f","WEEK()":"f4359ce5","balanceOf(address)":"70a08231","balanceOfAt(address,uint256)":"4ee2cd7e","createLock(uint256,uint256)":"b52c05fe","extendLock(uint256)":"44ee3a1c","fbk()":"de53befc","increaseAmount(uint256)":"15456eba","isExpired(address)":"ba2eb541","locked(address)":"cbf9fe5f","remainingLockDuration(address)":"13f804cf","totalLocked()":"56891412","totalSupply()":"18160ddd","withdraw()":"3ccfd60b"},"id":24}